:100000000C9466000C949E000C9483000C94830066
:100010000C9483000C9483000C9483000C94830054
:100020000C9483000C9483000C9483000C94830044
:100030000C9483000C9483000C9483000C94830034
:100040000C9483000C9483000C9483000C94830024
:100050000C9483000C9483000C9483000C94830014
:100060000C9483000C9483001803720061007000EC
:1000700068006E00650074002E006E00650074005C
:100080000403090412010101000000088117960A07
:100090000901010203010A03310030003000300081
:1000A00005010905A1010901A10009300931150067
:1000B00026FF00750895028102C00509190129086B
:1000C00015002501750195088102C00011241FBE8D
:1000D000CFEFD8E0DEBFCDBF11E0A0E0B1E0E6EAAF
:1000E000FBE002C005900D92AC35B107D9F721E0D5
:1000F000ACE5B1E001C01D92A53BB207E1F70E945B
:10010000A9030C94D1050C940000A82FB92F80E00E
:1001100090E041E050EA609530E009C02D918227DF
:100120009795879510F084279527305EC8F36F5F09
:10013000A8F30895EADF8D939D930895CF93CFB7E9
:10014000CF93C3954C9BE9F74C9B09C04C9B07C0D0
:100150004C9B05C04C9B03C04C9B01C0A3C0DF93CC
:10016000C0919801DD27C156DE4F4C9B02C0DF9144
:10017000EBCF2F930F931F9309B12FEF04FB20F9BF
:100180004F933F9319B14FEF012704FB21F93BE057
:1001900031C04E7F012F19B1216028C0102F4D7F33
:1001A0002260000009B129C04B7F2460012F0000AC
:1001B00019B12BC019B1477F28602AC04F7E09B101
:1001C00020612CC04F7D19B120622FC04F7B09B137
:1001D000206432C0422709B149934FEF0000102735
:1001E00014FB20F919B11471C9F1297F91F201278B
:1001F00004FB21F909B1237F89F2315058F110270E
:1002000014FB22F919B1277E79F2012704FB23F9A7
:100210002F7C81F209B1102714FB24F92F7971F298
:1002200000C019B1012704FB25F92F7359F200C052
:1002300009B1102714FB26F9223040F200C019B191
:10024000012704FB27F9243028F64F77206819B1DD
:100250000000F9CF11E01CBB002719C03B503195BD
:10026000C31BD04011E01CBB0881033CF9F00B34E8
:10027000E9F0209196011981110F1213EDCF4A81F7
:10028000441F093641F10D3211F0013E29F7009368
:100290009D013F914F911F910F912F91DF91CCB311
:1002A000C0FD4FCFCF91CFBFCF91189520919D0129
:1002B000222379F310919B01112369F534306AF1FF
:1002C00030939B0120939701109198013BE0311BE3
:1002D0003093980122C000919B010130E4F40AE5BB
:1002E0004F7049F43091010134FD19C000930101B0
:1002F000CFE7D1E018C030918A0134FD10C00093DF
:100300008A01CBE8D1E00FC02795A8F45150A9F499
:10031000220F0000F9CF4AE503C042ED01C0432F90
:10032000C4E1D0E032E01AB114615C9A1AB90BB1A1
:1003300020E414E15F93012756E00BB9279520F4E0
:10034000515021F4220FF9CF012756E000003B5A0B
:100350000BB9D0F2279528F4515029F4220F000050
:10036000F9CF012756E027950BB920F4515021F41D
:10037000220FF9CF012756E0299133230BB921F63B
:100380000B7E10919C01110FC651D0400BB911F09A
:100390001093960111E01CBB00611AB11B7E402F27
:1003A0004B7E5F9100C000C00BB91AB94BB971CF39
:1003B000CF93C62F20918A0124FF18C030918B0162
:1003C00028E8232720938B01FC01ACE8B1E08C2FB7
:1003D00091919D938150E1F76C2F8CE891E00E9400
:1003E0009A00CC5FC0938A01CF9108952AE52093AB
:1003F0008A01EACFCF93DF9380919B01835087FDE1
:1004000007C0909197019D3209F449C010929B0159
:100410008091010184FF36C0609100016F3F91F12E
:10042000693008F46BC068506093000190917F01BF
:1004300088E8892780937F01CCE068E020919901CA
:1004400030919A0180915C0186FF6CC0A0E8B1E018
:10045000F901862F94919D9331968150D9F78FEFB2
:10046000860F90E00196280F391F30939A01209350
:10047000990180E891E00E949A00CC3009F04EC0CA
:10048000C093010194E189B1847131F49150D9F79D
:1004900010929C0110929601DF91CF9108958830BF
:1004A00009F0B4CF80919801CCE0D0E0C81BD1090D
:1004B000C156DE4F83EC80937F018AE58093010172
:1004C00010925C0188818076B1F59A811092880142
:1004D0008981811137C01092890128E831E082E0DA
:1004E00030939A01209399019F81911104C09E81BC
:1004F000981708F4892F8093000188CF109200018B
:1005000090917F0188E8892780937F01611117C04E
:1005100060E080E891E00E949A00C4E08FEF809351
:100520000001AECFD901E0E8F1E0862F9D919193D3
:100530008150E1F794CFCE010E945C03D5CFC4E097
:10054000C60F7CCF853071F0863039F1883081F06C
:100550008930B1F08A3081F08B30C1F028E831E089
:1005600080E0BECF90939C0128E831E080E0B8CFD6
:100570002EE931E081E0B4CF28E831E081E0B0CF6E
:1005800090939E0128E831E080E0AACF8BE480932D
:100590008B0128E831E080E0A3CF8B81813069F0C6
:1005A000823021F18330B9F0813261F0823229F05A
:1005B00090E480E090935C0197CFCE010E942C03E1
:1005C00090E4F8CF85E891E090939A0180939901A7
:1005D00090E489E0EFCF91110EC080E890E0909315
:1005E0009A018093990190E484E0E4CFCE010E94C7
:1005F0002C0390E0DFCF913069F09230A1F093307E
:10060000B9F686E990E090939A018093990190E47D
:100610008CE0D0CF88E690E090939A018093990186
:1006200090E488E1C7CF84E291E090939A018093AF
:10063000990190E084E2BECFE9E6F0E0808182603B
:100640008083E89AEAE8F1E08BE481838AE580839D
:10065000089582E190E00895FC019081892F8076D1
:10066000B1F49181963009F008959381923089F028
:100670009232B9F09130C1F7809175019091760175
:1006800090939A018093990180917401089580E07C
:10069000089582E091E090939A018093990182E21B
:1006A0000895809178019091790190939A018093B7
:1006B0009901809177010895DC018DE591E0909397
:1006C0009A01809399019C919076903211F080E08C
:1006D000089511968C911197823001F18A3071F052
:1006E0008130A9F7E0917101F09172010088F189E0
:1006F000E02D12966C918DE591E009941296EC91A3
:100700001297E1111AC0E3E6F1E013968C9113976A
:10071000819381E0EB36F807C1F7D9CF12968C911F
:100720009FEF980F983098F690E08E599E4F9093D7
:100730009A018093990181E008958FEF8E0F8830A0
:1007400030F613968C91F0E0EE59FE4F808380E0F6
:100750000895CF93DF93CDB7DEB728970FB6F894FF
:10076000DEBF0FBECDBF88E09E012F5F3F4F590116
:10077000D901E82F1D92EA95E9F7E3E6F1E0DF0100
:100780001D928A95E9F7209A84B1897F84B985B151
:10079000866085B92898EFE2F5E73197F1F700C058
:1007A00000000E94BB05FC019093720180937101CF
:1007B00084819581909379018093780182818093DF
:1007C0007701208531852115310509F41DC130934C
:1007D00076012093750196819093740180931B019B
:1007E00017B88FEF88B988EF8BB985E08AB91AB846
:1007F00085BD87E08093B10084EC8093B40083B71B
:10080000817F83BFE0917101F091720182859385B0
:10081000FC0109950E941C03789411E082E0982E57
:10082000CC24C394D12C88248394A8950E94FA01E7
:10083000111149C0E0917101F09172010288F389B0
:10084000E02D309709F00995A89B46C085BAE09144
:100850007101F091720140815181141615060CF05E
:10086000BDC023E631E0850180E090E0E12C08C0C6
:1008700075507C9301960F5F1F4F84179507C1F049
:10088000D9016D919D016623A9F3D8017C91753042
:1008900078F7D8016C93B601082E01C0660F0A9450
:1008A000EAF7E62A01960F5F1F4F8417950741F775
:1008B000B99915C0E11052C010E0A8950E94FA0144
:1008C000112309F4B7CFE0917101F0917201048412
:1008D000F585E02D0995AECFB99BEECFE12C97BA07
:1008E000E0917101F091720182899389892B09F459
:1008F00079C00484F585E02D0995A0917101B0912E
:1009000072018D919C91119718161906ACF6FF246F
:10091000F39400E010E01E96ED91FC911F978F2D4F
:100920000995882339F0C601002E01C0880F0A946A
:10093000EAF7E82A0F5F1F4FE0917101F091720111
:10094000DF01F394808191810817190724F3EE20C9
:1009500009F4B2CF181619060CF0AECFF12C77249B
:10096000739400E010E009C00F5F1F4F7394808103
:100970009181081719070CF09FCFC701002E02C004
:10098000959587950A94E2F780FFEECF80918A01D2
:1009900084FFEACF0088F189E02D672D8BE691E096
:1009A0000995682F8BE691E00E94D8010CC00E9447
:1009B000FA01A895E0917101F09172010288F38922
:1009C000E02D309749F480918A0184FFF0CFE091C7
:1009D0007101F0917201C8CF0995F5CFB9997ECF19
:1009E00010E06BCF83B7816083BF889583B78E7F1C
:1009F00083BFEBE2F1E03197F1F700C00000E09136
:100A00007101F091720175CF84E890E090937601C6
:100A1000809375010E94290380937401809177016E
:100A2000DDCEFC01892B09F444C090917D018091B9
:100A30007E01282F207F203F09F449C010927A01BF
:100A400060E090FD40C030E891FD30E092FD3DC097
:100A500020E893FD20E030832183492F407450E04B
:100A60009A0135952795359527953595279535958F
:100A7000279535952795392F3072432F50E055959E
:100A800047955595479555954795422B292F221FF8
:100A90002227221F422B9071292F30E03595279570
:100AA000242B611105C030E1839FC0011124282B44
:100AB000228380917D0190917E0190937C018093AF
:100AC0007B0183E008953FEFBFCF2FEFC2CF21E03E
:100AD00020937A0161E0B5CF449A80E38A95F1F7DB
:100AE000449828E030E080E098E19A95F1F7459845
:100AF000880F339B816098E19A95F1F7459A2150D0
:100B0000310991F780937D0128E030E098E19A95D2
:100B1000F1F745988695339B806898E19A95F1F7AF
:100B2000459A2150310991F780937E010895CF9322
:100B3000CFB7F8943C9A3D9A3B98439A459A44988B
:100B40000E946C05CFBF80E0CF910895809146014F
:100B500090914701892B49F442E050E06BE771E046
:100B60008DE791E00E94C40508951092470110920C
:100B7000460181E0089580EA90E090934D018093D2
:100B80004C0188E491E00895FB01DC0104C08D91E3
:100B90000190801921F441505040C8F7881B990BEF
:060BA0000895F894FFCF58
:100BA600FF5A090222000101000032090400000177
:100BB6000300000009210101000122000007058150
:100BC6000308000A22032800530029004E004500AE
:100BD60053002F00410074006100720069005F003D
:100BE600550053004200010001002B0000000000E8
:0C0BF600000097056C05A6051105000025
:00000001FF
