:100000000C9462000C948A000C948A000C948A0070
:100010000C948A000C948A000C948A000C948A0038
:100020000C948A000C948A000C948A000C948A0028
:100030000C948A000C948A000C948A000C948A0018
:100040000C94DD030C948A000C9491020C948A00A9
:100050000C948A000C948A000C948A000C948A00F8
:100060000C948A000C948A000000000024002700F1
:100070002A0000000000250028002B0000000000DE
:1000800023002600290004040404040404040202DA
:100090000202020203030303030301020408102007
:1000A0004080010204081020010204081020000012
:1000B0000007000201000003040600000000000029
:1000C0000000860311241FBECFEFD8E0DEBFCDBFF6
:1000D00011E0A0E0B1E0E2E7FBE002C005900D9284
:1000E000A832B107D9F711E0A8E2B1E001C01D9232
:1000F000AC3CB107E1F710E0C4ECD0E004C02297BB
:10010000FE010E94B305C23CD107C9F70E948A02D2
:100110000C94B7050C940000809128010895EF928B
:10012000FF920F931F93DF93CF93CDB7DEB7EC977A
:100130000FB6F894DEBF0FBECDBF62E370E080E083
:1001400090E00E944D048EEA91E00E9437038C33C8
:1001500048F1109229018EEA91E00E944B038983B5
:100160008EEA91E00E944B038A838EEA91E00E941E
:100170004B038B838EEA91E00E944B038C838E01AC
:100180000B5F1F4F8DE3E82EF12CEC0EFD1E8EEA67
:1001900091E00E944B03F80181938F01EE15FF055A
:1001A000B1F703C081E080932901CE010196EC965E
:1001B0000FB6F894DEBF0FBECDBFCF91DF911F9178
:1001C0000F91FF90EF900895EF92FF920F931F937E
:1001D0007C0162E370E080E090E00E944D040EEA52
:1001E00011E0C80160E071E00E94C503C801F70199
:1001F00060810E94BD03C801F70161810E94BD03B7
:10020000C801F70162810E94BD03C801F701638143
:100210000E94BD0384E090E0E80EF91EC801B7011A
:100220000E94C503C80163E071E00E94C50362E358
:1002300070E080E090E00E944D041F910F91FF90CC
:10024000EF900895EF92FF920F931F93DF93CF9358
:10025000CDB7DEB7C857D0400FB6F894DEBF0FBE9B
:10026000CDBF109228018EEA91E00E9437038823C7
:1002700009F43DC080912901882339F410E07E0102
:100280000894E11CF11C01E02CC00E948F00DE01EB
:100290001196FC018CE301900D928150E1F7809161
:1002A000290191E089278093280121C08EEA91E0FD
:1002B0000E944B03843211F411E013C0112389F022
:1002C0008A3271F40E948F00D701FC018CE3019007
:1002D0000D928150E1F780912901802780932801B8
:1002E00010E08EEA91E00E9437038823F9F68091AE
:1002F0002801882351F18C81813039F5698181E4AD
:10030000FE01EF5BFF4F808383E4FE01EE5BFF4F56
:1003100080838BE4FE01ED5BFF4F8083CE01CD96A1
:10032000FC013796AC019C01245C3F4F1192E2170F
:10033000F307E1F78FEFFE01E05CFF4F80838FAFA3
:100340008EAF6DAFCA010E94E400CE010196C8587D
:10035000DF4F0FB6F894DEBF0FBECDBFCF91DF9158
:100360001F910F91FF90EF900895BF92CF92DF926F
:10037000EF92FF920F931F93CF93DF93B82EC0E0BD
:10038000D0E0C42EDD24E62EFF2400E010E011C0F2
:100390008B2D61E00E94B104C801B7010E944D0499
:1003A0008B2D60E00E94B104C801B7010E944D048A
:1003B0002196CC15DD0564F3DF91CF911F910F914C
:1003C000FF90EF90DF90CF90BF900895DF92EF9273
:1003D000FF920F931F93D82EE62E61E00E94B10486
:1003E000FF2400E010E0C801B7010E944D048D2DEC
:1003F00060E00E94B1041F910F91FF90EF90DF9099
:1004000008950F931F93182F0E94FE04082F6FE08A
:1004100070E080E090E00E944D04812F0E94FE0475
:1004200008130FEF802F1F910F9108958EEA91E02E
:1004300040E855E260E070E00E94CE028DE062E3A9
:1004400043E00E94B5010895FC018281813019F0DA
:10045000823061F406C08DE064E643E00E94B5019D
:1004600008958CE064E645E00E94B5010895FC0122
:100470008181873C19F4CF010E9424020895DF9303
:10048000CF93CDB7DEB7C857D0400FB6F894DEBFD4
:100490000FBECDBF88E00E940102882399F482E656
:1004A0008EAF88E7FE01EF5BFF4F8083FE01EE5BBE
:1004B000FF4F1082CE01CD960E94E4008DE064E6ED
:1004C0000E94E6010E942201DE011196FC018CE3EC
:1004D00001900D928150E1F70E948C00882351F029
:1004E0006AEF70E080E090E00E944D04CE0101963A
:1004F0000E9437026AEF70E080E090E00E944D04B5
:10050000C858DF4F0FB6F894DEBF0FBECDBFCF91F6
:10051000DF9108950E9477040E9416020E943F0214
:10052000FDCF1F920F920FB60F9211242F933F937E
:100530004F935F936F937F938F939F93AF93BF93EB
:10054000EF93FF934091C600E091AA01F091AB01B7
:10055000CF01019660E870E00E944D059C018091FA
:10056000AC019091AD012817390739F0E65DFE4FD7
:1005700040833093AB012093AA01FF91EF91BF918B
:10058000AF919F918F917F916F915F914F913F912B
:100590002F910F900FBE0F901F901895AF92BF92A2
:1005A000CF92DF92EF92FF920F931F93CF93DF933F
:1005B0006C017A018B01DC011496AD90BC9015970B
:1005C000CB01BA0122E030E040E050E00E94820519
:1005D000205C3D4B404F5F4FCA01B901A801970114
:1005E0000E948205C901DA010197A109B109292FE9
:1005F0003A2F4B2F552747FD5A950196A11DB11D46
:10060000E5012883E601EE81FF8181508083EA8540
:10061000FB85208141E050E0CA010E8402C0880FB2
:10062000991F0A94E2F7282B2083EA85FB85208115
:10063000CA010F8402C0880F991F0A94E2F7282B81
:100640002083EA85FB858081088802C0440F551FFE
:100650000A94E2F7842B8083DF91CF911F910F9151
:10066000FF90EF90DF90CF90BF90AF900895DC01A6
:100670001296ED91FC911397E058FF4F8191919163
:1006800080589F4F20813181821B930B60E870E07E
:100690000E944D050895CF93DF93DC011296ED91F2
:1006A000FC911397EF01CE57DF4F48815981E058F5
:1006B000FF4F80819181E058F0408417950719F42D
:1006C0002FEF3FEF0CC0E40FF51F2081CA01019608
:1006D00060E870E00E944D059983888330E0C9018D
:1006E000DF91CF910895FC01A085B18521898C917E
:1006F00090E0022E02C0959587950A94E2F780FF5C
:10070000F6CF0484F585E02D6083089586E291E0BC
:100710009093AF018093AE018AE291E09093B10192
:100720008093B00185EC90E09093B3018093B20187
:1007300084EC90E09093B5018093B40180EC90E05C
:100740009093B7018093B60181EC90E09093B9014A
:100750008093B80186EC90E09093BB018093BA013E
:1007600084E08093BC0183E08093BD0187E08093A7
:10077000BE0185E08093BF010895DC01ED91FC91FD
:100780000190F081E02D099508950F931F93CF9369
:10079000DF938C01EB0109C02196D801ED91FC910A
:1007A0000190F081E02DC801099568816623A1F7C9
:1007B000DF91CF911F910F9108951F920F920FB665
:1007C0000F9211242F938F939F93AF93BF93809198
:1007D000C0019091C101A091C201B091C3010196E5
:1007E000A11DB11D8093C0019093C101A093C201CE
:1007F000B093C3018091C4019091C501A091C6013D
:10080000B091C7018050904CAF4FBF4F8093C4014F
:100810009093C501A093C601B093C70127C08091F2
:10082000C4019091C501A091C601B091C701805843
:100830009E43A040B0408093C4019093C501A09313
:10084000C601B093C7018091C8019091C901A091E0
:10085000CA01B091CB010196A11DB11D8093C801C1
:100860009093C901A093CA01B093CB018091C401B8
:100870009091C501A091C601B091C70181589E43D6
:10088000A040B04060F6BF91AF919F918F912F91A2
:100890000F900FBE0F901F901895EF92FF920F933D
:1008A0001F937B018C018FB7F8944091C801509140
:1008B000C9016091CA017091CB018FBF2FB7F89425
:1008C0008091C8019091C901A091CA01B091CB015A
:1008D0002FBF841B950BA60BB70BE816F9060A076A
:1008E0001B0760F71F910F91FF90EF900895789488
:1008F00084B5826084BD84B5816084BD85B5826025
:1009000085BD85B5816085BDEEE6F0E080818160C2
:100910008083E1E8F0E08081826080838081816073
:100920008083E0E8F0E0808181608083E1EBF0E0AB
:10093000808184608083E0EBF0E08081816080834F
:10094000EAE7F0E080818460808380818260808338
:100950008081816080838081806880831092C10063
:100960000895482F50E0CA0182559F4FFC01249101
:10097000CA0186569F4FFC0194914A575F4FFA0176
:1009800034913323D1F1222331F1233021F48091AA
:1009900080008F7705C0243031F4809180008F7DF6
:1009A0008093800018C0213019F484B58F7704C07B
:1009B000223021F484B58F7D84BD0DC0263021F412
:1009C0008091B0008F7705C0273029F48091B00066
:1009D0008F7D8093B000E32FF0E0EE0FFF1FEE5805
:1009E000FF4FA591B491662329F48C9190958923AA
:1009F0008C9308958C91892B8C930895682F70E0C7
:100A0000CB0182559F4FFC012491CB0186569F4F0D
:100A1000FC0144916A577F4FFB019491992319F48B
:100A200020E030E038C0222331F1233021F48091DE
:100A300080008F7705C0243031F4809180008F7D55
:100A40008093800018C0213019F484B58F7704C0DA
:100A5000223021F484B58F7D84BD0DC0263021F471
:100A60008091B0008F7705C0273029F48091B000C5
:100A70008F7D8093B000892F90E0880F991F845854
:100A80009F4FFC01A591B4918C9120E030E084232C
:100A900011F021E030E0C901089597FB092E0726E7
:100AA0000AD077FD04D049D006D000201AF4709502
:100AB00061957F4F0895F6F7909581959F4F089522
:100AC000A1E21A2EAA1BBB1BFD010DC0AA1FBB1F52
:100AD000EE1FFF1FA217B307E407F50720F0A21BC4
:100AE000B30BE40BF50B661F771F881F991F1A9431
:100AF00069F760957095809590959B01AC01BD015B
:100B0000CF01089597FB092E05260ED057FD04D07E
:100B1000D7DF0AD0001C38F45095409530952195C8
:100B20003F4F4F4F5F4F0895F6F790958095709522
:100B300061957F4F8F4F9F4F0895AA1BBB1B51E1BB
:100B400007C0AA1FBB1FA617B70710F0A61BB70B3D
:100B5000881F991F5A95A9F780959095BC01CD01E2
:100B60000895EE0FFF1F0590F491E02D0994F8947D
:020B7000FFCFB5
:100B7200242A002A240049443A2000547970653A14
:100B82002000537562547970653A200041636B3AD4
:080B92002000000000007303C5
:00000001FF
