:100000000C94E1000C9409010C9409010C94090171
:100010000C9409010C9409010C9409010C94090138
:100020000C9409010C9409010C9409010C94090128
:100030000C9409010C9409010C9409010C94090118
:100040000C94B2320C9409010C942B320C940901DB
:100050000C9409010C9409010C9409010C940901F8
:100060000C943F080C9409010000000024002700B4
:100070002A0000000000250028002B0000000000DE
:1000800023002600290004040404040404040202DA
:100090000202020203030303030301020408102007
:1000A0004080010204081020010204081020000012
:1000B0000007000201000003040600000000000029
:1000C000000000407A10F35A00A0724E1809001088
:1000D000A5D4E80000E87648170000E40B540200BD
:1000E00000CA9A3B000000E1F505000080969800E8
:1000F000000040420F000000A08601000000102711
:1001000000000000E80300000000640000000000A0
:100110000A00000000000100000000002C76D888D2
:10012000DC674F0823DFC1DFAE59E1B1B796E5E3E5
:10013000E453C63AE651997696E8E6C28426EB89FE
:100140008C9B62ED407C6FFCEFBC9C9F40F2BAA59B
:100150006FA5F490055A2AF75C936B6CF9676DC133
:100160001BFCE0E40D47FEF520E6B500D0ED902E37
:100170000300943577050080841E080000204E0A95
:10018000000000C80C333333330F986E12831141D3
:10019000EF8D2114893BE65516CFFEE6DB18D1849E
:1001A0004B381BF77C1D901DA4BBE42420328472C5
:1001B0005E228100C9F124ECA1E53D273807100A31
:1001C0007B3211241FBECFEFD8E0DEBFCDBF15E0DC
:1001D000A0E0B1E0E2EAFBE602C005900D92A43592
:1001E000B107D9F716E0A4E5B5E001C01D92A93426
:1001F000B107E1F711E0C2ECD1E004C02297FE01A3
:100200000E949435CC3BD107C9F70E9424320C944C
:10021000CF350C9400000F931F93CF93DF93689F0B
:100220008001699F100D789F100D1124C8010E9454
:100230004801EC01009729F060E070E0A8010E94FD
:10024000AB02CE01DF91CF911F910F910895EF92F4
:10025000FF920F931F93F22FF02E47FD02C0E4E0B0
:1002600001C0E4E1242F332727FD309537FF03C079
:10027000309521953F4F4F2D512F0F2FEE2E0E947D
:10028000C4028F2D912F1F910F91FF90EF90089531
:10029000CF93DF93BC018230910510F462E070E0EF
:1002A000A0914706B0914806ED01E0E0F0E040E0A3
:1002B00050E021C0888199818617970769F48A8167
:1002C0009B81309719F09383828304C090934806F2
:1002D00080934706FE0134C06817790738F441154A
:1002E000510519F08417950708F4AC01FE018A81C5
:1002F0009B819C01E9012097E9F641155105A9F17F
:10030000CA01861B970B049708F4BA01E0E0F0E0FD
:100310002AC08D919C91119784179507F9F4641761
:10032000750781F412968D919C911397309719F06F
:100330009383828304C09093480680934706FD010F
:1003400032964CC0CA01861B970BFD01E80FF91FBE
:100350006193719302978D939C9340C0FD018281BC
:1003600093819C01D9011097A1F680914506909147
:100370004606892B41F480911404909115049093C2
:100380004606809345064091160450911704411586
:10039000510541F44DB75EB780911204909113045A
:1003A000481B590B2091450630914606CA01821B15
:1003B000930B8617970780F0AB014E5F5F4F841752
:1003C000950750F0420F531F509346064093450641
:1003D000F9016193719302C0E0E0F0E0CF01DF9199
:1003E000CF910895CF93DF93009709F450C0EC01AB
:1003F00022971B821A82A0914706B0914806109757
:1004000009F140E050E0AC17BD0708F1BB83AA83B7
:10041000FE0121913191E20FF31FAE17BF0779F46E
:100420008D919C911197280F391F2E5F3F4F398373
:10043000288312968D919C9113979B838A834115F3
:10044000510571F4D0934806C093470620C0129618
:100450008D919C911397AD01009711F0DC01D3CFE2
:10046000FA01D383C28321913191E20FF31FCE179A
:10047000DF0769F488819981280F391F2E5F3F4F6C
:10048000FA01318320838A819B8193838283DF9168
:10049000CF910895A0E0B0E0E0E5F2E00C94A03543
:1004A000EC01A880B980CA80DB80A114B104C1042A
:1004B000D10441F484E2A82E89EDB82E8BE5C82E34
:1004C00087E0D82EC601B5012DE133EF41E050E0C1
:1004D0000E94633527EA31E440E050E00E94033592
:1004E0007B018C01C601B5012DE133EF41E050E005
:1004F0000E946335CA01B9012CEE34EF4FEF5FEF74
:100500000E9403356E0D7F1D801F911F97FF04C051
:100510006150704080409048688379838A839B83D0
:100520009B01AC015F77B901CA01CDB7DEB7EAE044
:100530000C94BC350E944A02089588E194E00E9420
:100540004A020895609318047093190480931A0462
:1005500090931B040895DC0101C06D9341505040FD
:10056000E0F70895FB01DC010D900020E9F71197F9
:1005700001900D920020E1F70895FB01DC0101904C
:100580000D920020E1F70895A9E0B0E0EAECF2E076
:100590000C949C356A01122FA02EBE2C2BE3201741
:1005A00018F42CE3922E02C0902E9394AE014F5F6C
:1005B0005F4F27E0092D0E942604BC018981E82EA7
:1005C000FF24C70189709070019711F4ADE209C052
:1005D000B1FE02C0ABE205C0B0FC02C0A0E001C0A9
:1005E000A0E2E3FE3BC0AA2311F423E001C024E013
:1005F000211710F020E002C0121B212FEB2CB4FEBB
:1006000002C0322F0AC0F601322F80E202C081936D
:1006100031503323E1F7C20ED11CAA2319F0F601A1
:10062000A1936F01F6013196E2FE05C09EE4D6016A
:100630009C9381E404C09EE6D6019C9381E61196CA
:100640008C9391833296DF01832F90E202C09D93B9
:1006500081508823E1F7E30FF11D40C0E2FE42C064
:10066000AA2311F423E001C024E0211710F020E0B8
:1006700002C0121B212FEB2CB4FE02C0922F0AC025
:10068000F601922F80E202C0819391509923E1F705
:10069000C20ED11CAA2319F0F601A1936F01F60135
:1006A0003196E2FE08C089E4D6018C938EE411965F
:1006B0008C9386E407C089E6D6018C938EE611966A
:1006C0008C9386E681833296DF01892F20E202C077
:1006D0002D9381508823E1F7E90FF11D10822EEF51
:1006E0003FEFAFC0161617061CF041E050E003C004
:1006F000AB014F5F5F4FAA2019F480E090E003C088
:100700008A2D90E0019620E030E0AA2311F021E04C
:1007100030E0240F351F280F391F812F90E0281754
:10072000390714F020E002C0121B212F4B2D50E09E
:10073000CA0180719070B4FC0DC0B3FC0BC0F6010F
:10074000322F40E202C0419331503323E1F7C20E11
:10075000D11C01C0322FAA2319F0F601A1936F0119
:10076000892B11F0132F0AC0F601132F80E302C06A
:10077000819311501123E1F7C30ED11C092D060FEF
:10078000BA8090E1892E912C8E209F20E4FE04C037
:10079000F1E3BF1609F40150101614F001E003C094
:1007A000093008F008E09B0177FF02C020E030E04C
:1007B000CB010196821B930BFE013196E80FF91FC6
:1007C0008EE2F82E3B01601A71088A2D90E04427D2
:1007D0005527481B590B8FEF2F3F380719F4D601C7
:1007E000FD926D01621773072CF06216730614F404
:1007F000808101C080E321503040319624173507B5
:1008000024F0D6018D936D01E6CF2617370749F402
:10081000B5E3BB1528F0BB1621F48114910409F44B
:1008200081E3F6018193D601812F90E202C09C936F
:10083000815011968823D9F7E10FF11D108220E035
:1008400030E0C9012996EEE00C94B835283008F064
:1008500027E03327DA01990F311D87FD916000965B
:100860006105710539F432602E5F3D9330E32A95BE
:10087000E1F708959F3F30F080387105610509F078
:100880003C5F3C5F3D93913008F08068911DDF93A1
:10089000CF931F930F93FF92EF92192F987F969506
:1008A000E92F96959695E90FFF27E45EFE4F99276D
:1008B0003327EE24FF24A701E7010590089407944D
:1008C00028F4360FE71EF81E491F511D660F771FCB
:1008D000881F991F0694A1F70590079428F4E70E46
:1008E000F81E491F561FC11D770F881F991F661FCD
:1008F0000694A1F70590079428F4F80E491F561F97
:10090000C71FD11D880F991F661F771F0694A1F777
:100910000590079420F4490F561FC71FD81F990F41
:10092000661F771F881F0694A9F78491109517708A
:1009300041F0D695C79557954795F794E7941A9542
:10094000C1F7E2ECF0E0689415901591359165914E
:10095000959105907FE27395E118F10A430B560BD0
:10096000C90BD009C0F7E10CF11E431F561FC91F68
:10097000D01D7EF4703311F48A95E6CFE8940150CF
:1009800030F0080F0AF40027021708F4202F2395EF
:10099000022F7A3328F079E37D932A95E9F710C086
:1009A0007D932A9589F606949795679537951795BF
:1009B0001794E118F10A430B560BC90BD00998F0B4
:1009C00023957E9173957A3308F070E37C9320131E
:1009D000B8F77E9170617D9330F0839571E37D93DC
:1009E00070E32A95E1F71124EF90FF900F911F918A
:1009F000CF91DF91992787FD90950895F999FECFC2
:100A000072BD61BDF89A80B50895F999FECF1FBAFD
:100A100072BD61BD40BD0FB6F894FA9AF99A0FBE47
:100A200008950F931F93FB0150931D0440931C04E2
:100A300030931F0420931E0410932104009320047C
:100A400080819181909323048093220482819381F9
:100A500090932504809324048481958190932704A6
:100A6000809326048681978190932904809328049B
:100A70001F910F91089570932B0460932A04615085
:100A800070406230710530F081E090E090932B046B
:100A900080932A0408958091200460E00E943934F4
:100AA00081E090E00E945A338091200461E00E942E
:100AB000393481E090E00E945A338091200460E054
:100AC0000E94393461E070E080E090E00E943033B1
:100AD0000895EF92FF920F931F93CF93DF937C01C2
:100AE0008B010F701070C2E2D4E0602F61708881BA
:100AF0000E94393415950795229684E0CA32D807AA
:100B0000A1F7C7010E944B05DF91CF911F910F9173
:100B1000FF90EF900895EF92FF920F931F938C0137
:100B20007B0194E0759567959A95E1F7C8010E945D
:100B300069058FE0E822FF24C801B7010E9469051A
:100B40001F910F91FF90EF9008950F931F93CF93F4
:100B5000DF93EC018B0180911C0460E00E9439342A
:100B60008091550590915605892B29F080911E049E
:100B700060E00E943934CE01B8010E946905DF911E
:100B8000CF911F910F9108950F931F93CF93DF93F0
:100B9000EC018B0180911C0461E00E94393480914A
:100BA000550590915605892B29F080911E0460E02F
:100BB0000E943934CE01B8010E948B05DF91CF919C
:100BC0001F910F910895CF92DF92FF920F931F9381
:100BD000CF93DF936C018B01FF240AC0C00FD11F9C
:100BE0006881772767FD7095C6010E94C405F3945C
:100BF000CF2DD0E0F80101900020E9F73197E01BFC
:100C0000F10BCE17DF0750F3DF91CF911F910F91BA
:100C1000FF90DF90CF9008950F931F93CF93DF93B2
:100C2000EC018B0180911C0460E00E9439348091BA
:100C3000550590915605892B29F080911E0460E09E
:100C40000E943934CE01B8010E948B05DF91CF910B
:100C50001F910F910895AF92BF92CF92DF92EF92C2
:100C6000FF920F931F93CF93DF935C016B01C0E062
:100C7000D0E07A010027F7FC0095102F0AC0C501CB
:100C800068E170E00E940C06C801B7010E94303391
:100C90002196CC15DD059CF3DF91CF911F910F912B
:100CA000FF90EF90DF90CF90BF90AF900895EF92BC
:100CB000FF920F931F93CF93DF937C01EB018A0187
:100CC00062E070E00E940C0680912A0490912B044F
:100CD000019721F0229711F4085D1F4FC0E0D0E08A
:100CE00006C0C70164E170E00E940C062196C0179F
:100CF000D107BCF3DF91CF911F910F91FF90EF903F
:100D00000895CF93DF93EC018091200461E00E946D
:100D1000193480911C0461E00E94193480915505BA
:100D200090915605892B29F080911E0461E00E9464
:100D300019348091220461E00E94193480912404C6
:100D400061E00E9419348091260461E00E94193408
:100D50008091280461E00E94193462E370E080E031
:100D600090E00E943033CE0163E070E00E94A50560
:100D700065E070E080E090E00E943033CE0163E0F7
:100D800070E00E94A50584E690E00E945A33CE01EF
:100D900063E070E00E94A50565E070E080E090E00F
:100DA0000E943033CE0162E070E00E94A505CE01C2
:100DB00062E070E00E94A50560912A0470912B0406
:100DC0006150704023E0660F771F2A95E1F7CE014E
:100DD0000E94A5058CE390E00E945A33CE016CE09E
:100DE00070E00E940C068CE390E00E945A33CE0122
:100DF00061E070E00E940C0663E070E080E090E04B
:100E00000E943033CE0166E070E00E940C0661E083
:100E100070E080E090E00E943033DF91CF91089540
:100E200061E070E00E940C0661E070E080E090E01C
:100E30000E943033089581E08093600560935B05E4
:100E400010925E0510925F0508959091590580916A
:100E50005A05981710F080E00895E0915705F09139
:100E60005805E90FF11D80819F5F90935905089502
:100E70000895DF93CF930F92CDB7DEB7698380914A
:100E800060058823A9F080915F058032B0F48091DD
:100E90005E05E0915C05F0915D05E80FF11D608352
:100EA00080915E058F5F80935E0580935F0505C02E
:100EB000CE01019661E00E9422080F90CF91DF9150
:100EC00008950E943907089560915C0570915D0551
:100ED00080915B0540915F0521E00E94DD07109243
:100EE0005E0510925F05109260050895862F60914F
:100EF000570570915805413208F040E20E94A7075B
:100F00001092590580935A0508950E947607089516
:100F100080E290E061E070E00E940B018093570551
:100F2000909358051092590510925A0580E290E06E
:100F300061E070E00E940B0180935C0590935D0579
:100F400010925E0510925F050E94C1090895982FC6
:100F5000413210F040E02FC0809162058823E1F714
:100F600081E0809362058FEF8093730510926A058C
:100F700040936B05990F91609093630585EE809384
:100F8000BC00809162058130E1F380916A0584178D
:100F900010F440916A05A0916805B091690520E0C0
:100FA00030E007C0FB01E20FF31F8D9180832F5FBC
:100FB0003F4F2417B8F3842F08951F93582F122FF3
:100FC000413210F081E03CC0809162058823E1F756
:100FD00082E0809362058FEF8093730510926A051B
:100FE00040936B05A0916805B0916905FB0102C0B3
:100FF00081918D938E2F861B8417D0F3852F90E0DF
:10100000880F991F8093630585EE8093BC001123A0
:1010100021F0809162058230E1F3809173058F3F6A
:1010200011F480E00DC080917305803211F482E0EC
:1010300007C080917305803311F084E001C083E024
:101040001F910895482F613210F081E0089580913A
:101050006205843011F082E0089560936F05A091DD
:101060006C05B0916D05842F9C01F90102C081913E
:101070008D938E2F841B8617D0F380E008951F92E6
:101080000F920FB60F9211242F933F934F935F93BC
:101090006F937F938F939F93AF93BF93EF93FF9340
:1010A0008091B90090E0887F90708036910509F4B6
:1010B000E2C081369105CCF58832910509F47BC0F8
:1010C00089329105B4F48031910509F46FC0813102
:1010D00091053CF4009709F438C1089709F040C124
:1010E00065C08831910509F466C0809709F038C160
:1010F0007FC08034910509F4A3C08134910544F484
:101100008033910509F47FC0C89709F029C186C0D2
:101110008035910509F486C08835910509F495C09C
:101120008834910509F01CC19EC08839910509F4E5
:1011300004C189399105ECF48837910509F49BC005
:10114000893791054CF48836910509F494C08037AD
:10115000910509F005C18FC08838910509F4EDC0EB
:101160008039910509F48DC08038910509F0F8C0E7
:1011700088C0803B910509F4B2C0813B91054CF4D5
:10118000803A910509F491C0883A910509F0E8C0C8
:10119000A6C0803C910509F4D4C0883C910509F4AF
:1011A000D0C0883B910509F0DBC0B1C080916305D8
:1011B0008093BB00C0C090916A0580916B05981721
:1011C00078F490916A05E0916805F0916905E90F5E
:1011D000F11D80818093BB009F5F90936A05ABC037
:1011E00085ED8093BC008091BC0084FDFCCFB6C02F
:1011F00080E28093730585ED8093BC008091BC00F4
:1012000084FDFCCFABC080E38093730585ED8093B4
:10121000BC008091BC0084FDFCCFA0C088E380931B
:1012200073058FC080916A059091BB00E0916805BD
:10123000F0916905E80FF11D90838F5F80936A0537
:1012400090916A0580916B0574C080916A059091B8
:10125000BB00E0916805F0916905E80FF11D9083EE
:101260008F5F80936A0585ED8093BC008091BC0000
:1012700084FDFCCF73C083E08093620510927205F9
:101280005AC080917205803208F057C08091720573
:101290009091BB00E0917005F0917105E80FF11D90
:1012A00090838F5F8093720546C080917205803273
:1012B00048F480917205E0917005F0917105E80F96
:1012C000F11D108260917205E0916605F09167054D
:1012D000809170059091710570E0099532C084E0AD
:1012E0008093620510926E0510926F05E09164057F
:1012F000F0916505099580916F05882341F481E09F
:1013000080936F05E0916C05F0916D0510829091CE
:101310006E05E0916C05F0916D05E90FF11D80817E
:101320008093BB009F5F90936E0590916E058091B6
:101330006F05981710F485EC01C085E88093BC0018
:101340000FC085EC8093BC0009C01092730585ED39
:101350008093BC008091BC0084FDFCCF109262059C
:10136000FF91EF91BF91AF919F918F917F916F917D
:101370005F914F913F912F910F900FBE0F901F9053
:10138000189510926205449A459AE9EBF0E0808145
:101390008E7F808380818D7F808388E48093B800F6
:1013A00085E48093BC0080E290E061E070E00E9400
:1013B0000B01809368059093690580E290E061E0FD
:1013C00070E00E940B0180936C0590936D0580E2A4
:1013D00090E061E070E00E940B01809370059093B3
:1013E00071050895FC0122818CE3289F900111244E
:1013F0008181280F311D260F371FC9016CE370E072
:101400000E942E35CB0168E170E00E942E35828368
:10141000C9016CE370E00E942E358183CF010895ED
:1014200084E795E062E070E00E943B050895EF924A
:10143000FF920F931F93282F7B0104E715E0C8014B
:10144000622F70E040E050E00E945706C801B701EB
:101450000E94E3051F910F91FF90EF900895CF93A5
:10146000DF93CFEFD0E00BC08AE0BE010E94C03313
:1014700063E270E080E090E00E9430332F9760914B
:101480007505709176056C177D0774F38AE00E94EC
:10149000C033DF91CF910895CF93DF93C09175054D
:1014A000D09176050BC08AE0BE010E94C03363E292
:1014B00070E080E090E00E9430332F96CF3FD1055E
:1014C00091F38CF3DF91CF9108950F931F9304E56F
:1014D00015E0C80160E070E0409184050E940505B8
:1014E000C80161E070E0409185050E940505C801D2
:1014F00062E070E0409186050E9405051F910F9102
:101500000895EF92FF920F931F937C0104E515E07D
:101510004F2D552747FD5A95C80163E070E00E94A2
:101520000505C80164E070E04E2D0E9405051F917D
:101530000F91FF90EF9008958091890590918A0511
:101540000E94810A089584E595E066E070E040918C
:1015500044050E940505089584E595E067E070E084
:10156000409187050E940505089584E595E065E0B2
:1015700070E0409143050E9405050895EF92FF92A7
:101580000F931F9304E515E0C80160E070E00E942E
:10159000FE0480938405C80161E070E00E94FE04AF
:1015A00080938505C80162E070E00E94FE0480938C
:1015B0008605C80163E070E00E94FE04F82EEE2468
:1015C000F0928A05E0928905C80164E070E00E940B
:1015D000FE0490E0E82AF92AF0928A05E092890553
:1015E000C80165E070E00E94FE0480934305C801D5
:1015F00066E070E00E94FE0480934405C80167E045
:1016000070E00E94FE0480938705109288051F9168
:101610000F91FF90EF9008950F931F9301E615E04F
:10162000C80161E570E00E941B07C80160E070E03E
:101630000E946107C80160E070E00E946107C80174
:101640000E9464071F910F91089581E695E00E9422
:1016500088070E940C0B08956F927F928F929F9241
:10166000AF92BF92CF92DF92EF92FF920F931F93B0
:10167000DF93CF9300D000D00F92CDB7DEB7F82E16
:10168000E92E5B0130E0632E31E0732EB3010E943E
:10169000BD02F501628170E080E090E00E94C634F6
:1016A00042E020E06E010894C11CD11C86010E941A
:1016B0002701BC018F2D9E2D0E94B20225E0822EB3
:1016C00021E0922E8F2D9E2DB4010E94B202F501D1
:1016D000618170E080E090E00E94C63442E020E04A
:1016E0000E942701BC018F2D9E2D0E94B2028F2DDA
:1016F0009E2DB4010E94B202F501608170E080E08D
:1017000090E00E94C63442E020E00E942701BC0124
:101710008F2D9E2D0E94B2028F2D9E2DB3010E940F
:10172000B2028F2D9E2D0F900F900F900F900F9063
:10173000CF91DF911F910F91FF90EF90DF90CF90AD
:10174000BF90AF909F908F907F906F900895DF92A1
:10175000EF92FF920F931F93CF93DF93082FD92E11
:10176000EB017A0181E695E061E570E00E941B07DC
:1017700081E695E062E070E00E94610781E695E015
:101780000E94640781E695E061E570E047E050E083
:101790000E94850781E695E00E942507282F2F7774
:1017A00022952F701AE0219F900111248F70820FD3
:1017B000888381E695E00E942507282F2F772295C0
:1017C0002F70219F900111248F70820F898381E6F1
:1017D00095E00E942507282F2F7322952F70219FB7
:1017E000900111248F70820F8A8381E695E00E9418
:1017F0002507282F2F7322952F70219F90011124E8
:101800008F70820F8C8381E695E00E942507877098
:101810008B8381E695E00E942507282F2F71229562
:101820002F70219F900111248F70820F8D8381E68C
:1018300095E00E942507282F22952F70219F900167
:1018400011248F70820F8E83A7E7B5E0FE0187E039
:1018500001900D928150E1F7CE01B7010E94F2098B
:10186000DE01FC0187E001900D928150E1F781E6F5
:1018700095E00E946407802F9D2DBE010E942C0BD5
:10188000802F9D2DDF91CF911F910F91FF90EF90B1
:10189000DF9008951F93FC01938180914205891781
:1018A00009F461C080914305813001F520918405E0
:1018B00030E0892F90E0019702C0359527958A95F1
:1018C000E2F720FF13C080917E05882379F492818E
:1018D00080918505981751F491818091860598171C
:1018E00029F485E080937E0511E03EC080917E055D
:1018F0008823C9F10E94223320917F053091800511
:101900004091810550918205621B730B840B950BEE
:1019100061567A4E8040904030F10E94223310E0B0
:1019200020917F053091800540918105509182057D
:10193000621B730B840B950B20E63AEE40E050E0FF
:101940000E944135CA01B90125E030E040E050E095
:101950000E944135611571058105910509F011E07D
:1019600081E0182701C010E0812F1F91089584E7BE
:1019700095E061E070E040E050E00E94570684E7A7
:1019800095E067E071E00E94E30584E795E062E09E
:1019900070E040E050E00E94570660E070E080E0B8
:1019A00090E028E030E040E050E00E94A83463304E
:1019B000710541F1643071054CF461307105C1F07D
:1019C00062307105D4F4672B71F0089565307105AC
:1019D00019F165307105DCF06630710511F1673081
:1019E000710561F525C084E795E068E171E01DC0EF
:1019F00084E795E069E271E018C084E795E06AE366
:101A000071E013C084E795E06BE471E00EC084E7F9
:101A100095E06CE571E009C084E795E06DE671E062
:101A200004C084E795E06EE771E00E94E305089545
:101A300084E795E06FE871E00E94E305089583E094
:101A400061E00E94193482E061E00E941934089537
:101A50008FE061E00E94193408950F931F93CF9394
:101A6000DF93C7E0D0E0082F10E0C8010C2E02C0C1
:101A7000959587950A94E2F780FF03C083E061E0C3
:101A800002C083E060E00E94393482E060E00E949E
:101A900039348FE090E00E945A3382E061E00E9486
:101AA00039348FE090E00E945A3321978FEFCF3F77
:101AB000D807D9F6DF91CF911F910F9108950F9319
:101AC0001F93182F062F8DE060E00E9439348CE0C0
:101AD00060E00E9439348BE060E00E943934812F4D
:101AE0000E942D0D8DE061E00E9439348CE061E0B0
:101AF0000E9439348DE060E00E9439348CE060E06F
:101B00000E9439348BE061E00E943934802F0E94BA
:101B10002D0D8DE061E00E9439348CE061E00E947F
:101B200039341F910F9108951F93182F1F7088E06B
:101B3000612F0E945F0D89E0612F0E945F0D8AE096
:101B4000612F0E945F0D1F910895CF93DF9384E76B
:101B500095E00E94100781E062EA71E00E94170A96
:101B60008FEF0E94940DCEE2D5E06881798182E00A
:101B70000E94170AEA81FB810995249685E0C23408
:101B8000D80799F780E00E94940D0E94B70CDF916E
:101B9000CF910895CF92DF92EF92FF920F931F9310
:101BA0008FEF0E94940D60E070E080E090E025E00F
:101BB00030E040E050E00E94A8347B018C016EE2EE
:101BC000C62E65E0D62EEE0CFF1CEE0CFF1CF601B7
:101BD000EE0DFF1D6081718182E00E94170ACE0C1C
:101BE000DF1CD6011296ED91FC911397099580E0C8
:101BF0000E94940D0E94B70C1F910F91FF90EF90DF
:101C0000DF90CF9008958DE061E00E9419348CE060
:101C100061E00E9419348BE061E00E94193486E093
:101C200060E00E945F0D87E068E30E945F0D80E046
:101C30000E94940D0895FF920F931F93F82E8B012D
:101C4000000F111F045D1B4FF80160810E945F0DA2
:101C5000F80160817181672F770F770B6F708F2D7F
:101C60008F5F0E945F0D1F910F91FF90089587E095
:101C700068E30E945F0D80E060E070E00E941B0E50
:101C800082E060E070E00E941B0E84E060E070E0A3
:101C90000E941B0E82E06EE270E00E941B0E82E04A
:101CA0006AE370E00E941B0E84E06EE270E00E9426
:101CB0001B0E63E571E080E090E00E94303380E02D
:101CC00061E470E00E941B0E80E06DE470E00E9411
:101CD0001B0E60E770E080E090E00E94303380E00F
:101CE00060E070E00E941B0E68E370E080E090E02E
:101CF0000E94303380E062E570E00E941B0E80E0BD
:101D000066E470E00E941B0E60E770E080E090E007
:101D10000E94303380E060E070E00E941B0E69E3B7
:101D200070E080E090E00E94303380E064E570E095
:101D30000E941B0E80E068E470E00E941B0E6FE4BE
:101D400071E080E090E00E94303384E060E070E079
:101D50000E941B0E62E070E080E090E00E94303351
:101D600084E06AE370E00E941B0E84E06EE270E0A3
:101D70000E941B0E61E770E080E090E00E9430332B
:101D800084E060E070E00E941B0E68E370E080E099
:101D900090E00E94303384E06AE370E00E941B0E02
:101DA00084E06EE270E00E941B0E68E370E080E069
:101DB00090E00E94303384E060E070E00E941B0EEF
:101DC0006CE170E080E090E00E94303384E06AE3F0
:101DD00070E00E941B0E84E06EE270E00E941B0E19
:101DE00067E370E080E090E00E94303384E060E0E0
:101DF00070E00E941B0E6DE170E080E090E00E94B8
:101E0000303384E06AE370E00E941B0E84E06EE2EF
:101E100070E00E941B0E6FE471E080E090E00E9491
:101E2000303380E060E070E00E941B0E62E070E002
:101E300080E090E00E94303380E062E570E00E9434
:101E40001B0E80E066E470E00E941B0E61E770E00C
:101E500080E090E00E94303380E060E070E00E941B
:101E60001B0E84E060E070E00E941B0E68E370E0EF
:101E700080E090E00E94303380E061E470E00E94F6
:101E80001B0E80E06DE470E00E941B0E61E770E0C5
:101E900080E090E00E94303380E060E070E00E94DB
:101EA0001B0E67E370E080E090E00E94303380E03A
:101EB00062E570E00E941B0E80E066E470E00E9424
:101EC0001B0E84E06AE370E00E941B0E84E06EE269
:101ED00070E00E941B0E62E770E080E090E00E94DC
:101EE000303380E060E070E00E941B0E67E370E03A
:101EF00080E090E00E94303380E064E570E00E9472
:101F00001B0E80E068E470E00E941B0E61E770E049
:101F100080E090E00E94303380E060E070E00E945A
:101F20001B0E69E370E080E090E00E94303380E0B7
:101F300062E570E00E941B0E80E066E470E00E94A3
:101F40001B0E60E770E080E090E00E94303380E09C
:101F500060E070E00E941B0E84E060E070E00E9490
:101F60001B0E69E370E080E090E00E94303380E077
:101F700061E470E00E941B0E80E06DE470E00E945E
:101F80001B0E60E770E080E090E00E94303380E05C
:101F900060E070E00E941B0E65E370E080E090E07E
:101FA0000E94303382E060E070E00E941B0E62E02D
:101FB00070E080E090E00E94303380E062E570E005
:101FC0000E941B0E80E066E470E00E941B0E82E01F
:101FD0006CE270E00E941B0E82E068E370E00E94F9
:101FE0001B0E84E06CE270E00E941B0E60E770E064
:101FF00080E090E00E94303380E060E070E00E947A
:102000001B0E69E370E080E090E00E94303380E0D6
:102010006DE470E00E941B0E80E061E470E00E94BD
:102020001B0E60E770E080E090E00E94303380E0BB
:1020300060E070E00E941B0E69E370E080E090E0D9
:102040000E94303380E062E570E00E941B0E80E069
:1020500066E470E00E941B0E61E770E080E090E0B3
:102060000E94303380E060E070E00E941B0E61EE61
:1020700070E080E090E00E94303380E064E570E042
:102080000E941B0E80E068E470E00E941B0E6FE46B
:1020900071E080E090E00E94303384E060E070E026
:1020A0000E941B0E62E070E080E090E00E943033FE
:1020B00084E068E370E00E941B0E84E06CE270E054
:1020C0000E941B0E61E770E080E090E00E943033D8
:1020D00084E060E070E00E941B0E68E370E080E046
:1020E00090E00E94303384E068E370E00E941B0EB1
:1020F00084E06CE270E00E941B0E69E370E080E017
:1021000090E00E94303384E060E070E00E941B0E9B
:102110006BE170E080E090E00E94303384E068E39F
:1021200070E00E941B0E84E06CE270E00E941B0EC7
:1021300068E370E080E090E00E94303384E060E08B
:1021400070E00E941B0E6CE170E080E090E00E9465
:10215000303384E068E370E00E941B0E84E06CE2A0
:1021600070E00E941B0E6EE471E080E090E00E943F
:10217000303380E060E070E00E941B0E63E070E0AE
:1021800080E090E00E94303380E062E570E00E94E1
:102190001B0E80E066E470E00E941B0E61E770E0B9
:1021A00080E090E00E94303380E060E070E00E94C8
:1021B0001B0E84E060E070E00E941B0E69E370E09B
:1021C00080E090E00E94303380E061E470E00E94A3
:1021D0001B0E80E06DE470E00E941B0E60E770E073
:1021E00080E090E00E94303380E060E070E00E9488
:1021F0001B0E68E370E080E090E00E94303380E0E6
:1022000062E570E00E941B0E80E066E470E00E94D0
:102210001B0E84E068E370E00E941B0E84E06CE219
:1022200070E00E941B0E61E770E080E090E00E9489
:10223000303380E060E070E00E941B0E68E370E0E5
:1022400080E090E00E94303380E064E570E00E941E
:102250001B0E80E068E470E00E941B0E60E770E0F7
:1022600080E090E00E94303380E060E070E00E9407
:102270001B0E69E370E080E090E00E94303380E064
:1022800062E570E00E941B0E80E066E470E00E9450
:102290001B0E60E770E080E090E00E94303380E049
:1022A00060E070E00E941B0E84E060E070E00E943D
:1022B0001B0E68E370E080E090E00E94303380E025
:1022C00061E470E00E941B0E80E06DE470E00E940B
:1022D0001B0E62E770E080E090E00E94303380E007
:1022E00060E070E00E941B0E64E370E080E090E02C
:1022F0000E94303382E060E070E00E941B0E62E0DA
:1023000070E080E090E00E94303380E062E570E0B1
:102310000E941B0E80E066E470E00E941B0E82E0CB
:102320006AE270E00E941B0E82E066E370E00E94A9
:102330001B0E84E06AE270E00E941B0E61E770E011
:1023400080E090E00E94303380E060E070E00E9426
:102350001B0E68E370E080E090E00E94303380E084
:102360006DE470E00E941B0E80E061E470E00E946A
:102370001B0E61E770E080E090E00E94303380E067
:1023800060E070E00E941B0E67E370E080E090E088
:102390000E94303380E062E570E00E941B0E80E016
:1023A00066E470E00E941B0E62E770E080E090E05F
:1023B0000E94303380E060E070E00E941B0E61EE0E
:1023C00070E080E090E00E94303380E064E570E0EF
:1023D0000E941B0E80E068E470E00E941B0E6FE418
:1023E00071E080E090E00E94303384E060E070E0D3
:1023F0000E941B0E62E070E080E090E00E943033AB
:1024000084E066E370E00E941B0E84E06AE270E004
:102410000E941B0E61E770E080E090E00E94303384
:1024200084E060E070E00E941B0E68E370E080E0F2
:1024300090E00E94303384E066E370E00E941B0E5F
:1024400084E06AE270E00E941B0E68E370E080E0C6
:1024500090E00E94303384E060E070E00E941B0E48
:102460006CE170E080E090E00E94303384E066E34D
:1024700070E00E941B0E84E06AE270E00E941B0E76
:1024800068E370E080E090E00E94303384E060E038
:1024900070E00E941B0E6CE170E080E090E00E9412
:1024A000303384E066E370E00E941B0E84E06AE251
:1024B00070E00E941B0E6EE471E080E090E00E94EC
:1024C000303380E060E070E00E941B0E65E770E052
:1024D00080E090E00E94303384E060E070E00E9491
:1024E0001B0E62EE70E080E090E00E94303380E0EE
:1024F00067E570E00E941B0E80E06BE470E00E94D4
:102500001B0E84E066E370E00E941B0E84E06AE22A
:1025100070E00E941B0E64EC71E080E090E00E948D
:10252000303380E060E070E00E941B0E84E060E0E9
:1025300070E00E941B0E6EED70E080E090E00E9463
:10254000303382E060E070E00E941B0E62E070E0D9
:1025500080E090E00E94303380E06BE470E00E9405
:102560001B0E80E067E570E00E941B0E82E06EE2C9
:1025700070E00E941B0E82E06AE370E00E941B0E76
:1025800084E06EE270E00E941B0E62E571E080E084
:1025900090E00E94303380E060E070E00E941B0E0B
:1025A00069EA70E080E090E00E94303380E066E508
:1025B00070E00E941B0E80E06AE470E00E941B0E37
:1025C00069E370E080E090E00E94303380E060E0FA
:1025D00070E00E941B0E6BE170E080E090E00E94D2
:1025E000303380E064E570E00E941B0E80E068E418
:1025F00070E00E941B0E69E370E080E090E00E94B2
:10260000303380E060E070E00E941B0E6BE170E010
:1026100080E090E00E94303380E06AE470E00E9445
:102620001B0E80E066E570E00E941B0E6FE471E017
:1026300080E090E00E94303384E060E070E00E942F
:102640001B0E62E070E080E090E00E94303384E096
:102650006AE370E00E941B0E84E06EE270E00E946C
:102660001B0E61E770E080E090E00E94303384E070
:1026700060E070E00E941B0E69E370E080E090E093
:102680000E94303384E06AE370E00E941B0E84E015
:102690006EE270E00E941B0E67E370E080E090E065
:1026A0000E94303384E060E070E00E941B0E6DE118
:1026B00070E080E090E00E94303384E06AE370E0F4
:1026C0000E941B0E84E06EE270E00E941B0E67E326
:1026D00070E080E090E00E94303384E060E070E0E1
:1026E0000E941B0E6DE170E080E090E00E943033AC
:1026F00084E06AE370E00E941B0E84E06EE270E00A
:102700000E941B0E62EC71E080E090E00E9430338A
:1027100084E060E070E00E941B0E62EE70E080E0FA
:1027200090E00E94303384E06AE370E00E941B0E68
:1027300084E06EE270E00E941B0E65EC71E080E0C8
:1027400090E00E94303384E060E070E00E941B0E55
:102750006DED70E080E090E00E94303380E060E05A
:1027600070E00E941B0E82E060E070E00E941B0E91
:1027700063E070E080E090E00E94303384E06AE340
:1027800070E00E941B0E84E06EE270E00E941B0E5F
:1027900061E770E080E090E00E94303384E060E028
:1027A00070E00E941B0E089587E069E30E945F0DB0
:1027B00080E060E070E00E941B0E82E060E070E06C
:1027C0000E941B0E84E060E070E00E941B0E84E01B
:1027D0006DE470E00E941B0E64E070E080E090E029
:1027E0000E94303382E06DE170E00E941B0E84E0B5
:1027F00061E470E00E941B0E68E470E080E090E00D
:102800000E94303384E06DE470E00E941B0E65E0AE
:1028100070E080E090E00E94303384E061E470E09A
:102820000E941B0E66E170E080E090E00E94303371
:1028300084E06DE470E00E941B0E65E070E080E0D3
:1028400090E00E94303384E061E470E00E941B0E4F
:1028500064E770E080E090E00E94303382E069E25B
:1028600070E00E941B0E84E06DE470E00E941B0E7D
:1028700065E070E080E090E00E94303384E061E445
:1028800070E00E941B0E6DE570E080E090E00E9419
:10289000303384E06DE470E00E941B0E65E070E070
:1028A00080E090E00E94303384E061E470E00E94B8
:1028B0001B0E6DE570E080E090E00E94303384E014
:1028C0006DE470E00E941B0E65E070E080E090E037
:1028D0000E94303384E061E470E00E941B0E69EED8
:1028E00070E080E090E00E94303384E06DE470E0BE
:1028F0000E941B0E65E070E080E090E00E943033A3
:1029000084E061E470E00E941B0E63E570E080E00B
:1029100090E00E94303384E06DE470E00E941B0E72
:1029200065E070E080E090E00E94303384E061E494
:1029300070E00E941B0E60E170E080E090E00E9479
:10294000303384E06DE470E00E941B0E65E070E0BF
:1029500080E090E00E94303384E061E470E00E9407
:102960001B0E63E570E080E090E00E94303384E06D
:102970006DE470E00E941B0E65E070E080E090E086
:102980000E94303384E061E470E00E941B0E66E137
:1029900070E080E090E00E94303382E06DE170E012
:1029A0000E941B0E6EE670E080E090E00E943033E3
:1029B00084E06DE470E00E941B0E65E070E080E052
:1029C00090E00E94303384E061E470E00E941B0ECE
:1029D00069E670E080E090E00E94303382E069E2D6
:1029E00070E00E941B0E84E06DE470E00E941B0EFC
:1029F00065E070E080E090E00E94303384E061E4C4
:102A000070E00E941B0E69E670E080E090E00E949A
:102A1000303382E06DE170E00E941B0E6EE070E0EA
:102A200080E090E00E94303382E069E270E00E9432
:102A30001B0E6EE170E080E090E00E94303382E097
:102A40006DE170E00E941B0E6CE370E080E090E0AE
:102A50000E94303384E06DE470E00E941B0E64E05D
:102A600070E080E090E00E94303384E061E470E048
:102A70000E941B0E6FED70E080E090E00E9430330A
:102A800082E069E270E00E941B0E6AE170E080E083
:102A900090E00E94303384E06DE470E00E941B0EF1
:102AA0006EE470E080E090E00E94303384E061E406
:102AB00070E00E941B0E65E070E080E090E00E94F4
:102AC000303382E06DE170E00E941B0E6DE170E03A
:102AD00080E090E00E94303382E069E270E00E9482
:102AE0001B0E6EE070E080E090E00E94303382E0E8
:102AF0006DE170E00E941B0E63E470E080E090E006
:102B00000E94303384E06DE470E00E941B0E64E0AC
:102B100070E080E090E00E94303384E061E470E097
:102B20000E941B0E60E170E080E090E00E94303374
:102B300082E060E270E00E941B0E68E370E080E0DB
:102B400090E00E94303384E06DE470E00E941B0E40
:102B500064E070E080E090E00E94303384E061E463
:102B600070E00E941B0E65E170E080E090E00E9442
:102B7000303384E06DE470E00E941B0E66E070E08C
:102B800080E090E00E94303384E061E470E00E94D5
:102B90001B0E6EE670E080E090E00E94303382E031
:102BA0006CE270E00E941B0E65E070E080E090E057
:102BB0000E94303384E06DE470E00E941B0E64E0FC
:102BC00070E080E090E00E94303384E061E470E0E7
:102BD0000E941B0E6FE570E080E090E00E943033B1
:102BE00084E06DE470E00E941B0E64E070E080E021
:102BF00090E00E94303384E061E470E00E941B0E9C
:102C00006EE570E080E090E00E94303384E06DE497
:102C100070E00E941B0E64E070E080E090E00E9493
:102C2000303384E061E470E00E941B0E64EE70E0DB
:102C300080E090E00E94303384E06DE470E00E9418
:102C40001B0E65E070E080E090E00E94303384E08D
:102C500061E470E00E941B0E63E570E080E090E0AC
:102C60000E94303384E06DE470E00E941B0E64E04B
:102C700070E080E090E00E94303384E061E470E036
:102C80000E941B0E60E170E080E090E00E94303313
:102C900084E06DE470E00E941B0E66E070E080E06E
:102CA00090E00E94303384E061E470E00E941B0EEB
:102CB00063E570E080E090E00E94303384E06DE4F2
:102CC00070E00E941B0E65E070E080E090E00E94E2
:102CD000303384E061E470E00E941B0E65E170E037
:102CE00080E090E00E94303382E060E270E00E9479
:102CF0001B0E6FE670E080E090E00E94303384E0CD
:102D00006DE470E00E941B0E64E070E080E090E0F3
:102D10000E94303384E061E470E00E941B0E6AE69A
:102D200070E080E090E00E94303382E06CE270E07E
:102D30000E941B0E84E06DE470E00E941B0E65E0B3
:102D400070E080E090E00E94303384E061E470E065
:102D50000E941B0E68E670E080E090E00E94303335
:102D600082E060E270E00E941B0E6AE670E080E0A4
:102D700090E00E94303384E06DE470E00E941B0E0E
:102D800064E070E080E090E00E94303384E061E431
:102D900070E00E941B0E6DED70E080E090E00E94FC
:102DA000303382E06CE270E00E941B0E6CE170E058
:102DB00080E090E00E94303384E06DE470E00E9497
:102DC0001B0E6EE470E080E090E00E94303384E0FF
:102DD00061E470E00E941B0E65E070E080E090E02E
:102DE0000E94303382E060E270E00E941B0E6FE6CA
:102DF00070E080E090E00E94303382E065E270E0B5
:102E00000E941B0E84E06DE470E00E941B0E64E0E3
:102E100070E080E090E00E94303384E061E470E094
:102E20000E941B0E67E470E080E090E00E94303367
:102E300084E06DE470E00E941B0E66E070E080E0CC
:102E400090E00E94303384E061E470E00E941B0E49
:102E500065E170E080E090E00E94303384E06DE452
:102E600070E00E941B0E66E070E080E090E00E943F
:102E7000303384E061E470E00E941B0E6FE670E086
:102E800080E090E00E94303382E061E370E00E94D5
:102E90001B0E64E070E080E090E00E94303384E03C
:102EA0006DE470E00E941B0E65E070E080E090E051
:102EB0000E94303384E061E470E00E941B0E6DE5F7
:102EC00070E080E090E00E94303384E06DE470E0D8
:102ED0000E941B0E66E070E080E090E00E943033BC
:102EE00084E061E470E00E941B0E6DE570E080E01C
:102EF00090E00E94303384E06DE470E00E941B0E8D
:102F000065E070E080E090E00E94303384E061E4AE
:102F100070E00E941B0E63EE70E080E090E00E9483
:102F2000303384E06DE470E00E941B0E65E070E0D9
:102F300080E090E00E94303384E061E470E00E9421
:102F40001B0E64E570E080E090E00E94303384E086
:102F50006DE470E00E941B0E64E070E080E090E0A1
:102F60000E94303384E061E470E00E941B0E60E157
:102F700070E080E090E00E94303384E06DE470E027
:102F80000E941B0E64E070E080E090E00E9430330D
:102F900084E061E470E00E941B0E64E570E080E074
:102FA00090E00E94303384E06DE470E00E941B0EDC
:102FB00064E070E080E090E00E94303384E061E4FF
:102FC00070E00E941B0E67E170E080E090E00E94DC
:102FD000303382E065E270E00E941B0E6FE670E025
:102FE00080E090E00E94303384E06DE470E00E9465
:102FF0001B0E64E070E080E090E00E94303384E0DB
:1030000061E470E00E941B0E69E670E080E090E0F1
:103010000E94303382E061E370E00E941B0E84E086
:103020006DE470E00E941B0E64E070E080E090E0D0
:103030000E94303384E061E470E00E941B0E6AE677
:1030400070E080E090E00E94303382E065E270E062
:103050000E941B0E68E670E080E090E00E94303332
:1030600084E06DE470E00E941B0E66E070E080E09A
:1030700090E00E94303384E061E470E00E941B0E17
:103080006DED70E080E090E00E94303382E061E31B
:1030900070E00E941B0E6CE170E080E090E00E9406
:1030A000303384E06DE470E00E941B0E6DE470E04C
:1030B00080E090E00E94303384E061E470E00E94A0
:1030C0001B0E65E070E080E090E00E94303382E00B
:1030D00065E270E00E941B0E69E670E080E090E01F
:1030E0000E94303384E060E470E00E941B0E64E0D4
:1030F00070E080E090E00E94303382E064E270E0B3
:103100000E941B0E67E070E080E090E00E94303388
:1031100084E06CE470E00E941B0E68ED70E080E0DB
:1031200090E00E94303382E060E370E00E941B0E6A
:103130006EEC70E080E090E00E94303384E060E468
:1031400070E00E941B0E6CEE70E080E090E00E9448
:10315000303384E06CE470E00E941B0E84E060E495
:1031600070E00E941B0E67EE73E080E090E00E942A
:10317000303384E06CE470E00E941B0E6FE670E078
:1031800080E090E00E94303382E06DE170E00E94C8
:103190001B0E84E06DE470E00E941B0E65E070E0A1
:1031A00080E090E00E94303384E061E470E00E94AF
:1031B0001B0E68E470E080E090E00E94303384E011
:1031C0006DE470E00E941B0E65E070E080E090E02E
:1031D0000E94303384E061E470E00E941B0E65E1E0
:1031E00070E080E090E00E94303384E06DE470E0B5
:1031F0000E941B0E65E070E080E090E00E9430339A
:1032000084E061E470E00E941B0E6EE670E080E0F6
:1032100090E00E94303382E069E270E00E941B0E71
:1032200065E070E080E090E00E94303384E06DE47F
:1032300070E00E941B0E65E070E080E090E00E946C
:10324000303384E061E470E00E941B0E6EE570E0B4
:1032500080E090E00E94303384E06DE470E00E94F2
:103260001B0E65E070E080E090E00E94303384E067
:1032700061E470E00E941B0E6DE570E080E090E07C
:103280000E94303384E06DE470E00E941B0E65E024
:1032900070E080E090E00E94303384E061E470E010
:1032A0000E941B0E63EE70E080E090E00E943033DD
:1032B00084E06DE470E00E941B0E65E070E080E049
:1032C00090E00E94303384E061E470E00E941B0EC5
:1032D00063E570E080E090E00E94303384E06DE4CC
:1032E00070E00E941B0E65E070E080E090E00E94BC
:1032F000303384E061E470E00E941B0E6FE070E008
:1033000080E090E00E94303384E06DE470E00E9441
:103310001B0E66E070E080E090E00E94303384E0B5
:1033200061E470E00E941B0E63E570E080E090E0D5
:103330000E94303384E06DE470E00E941B0E65E073
:1033400070E080E090E00E94303384E061E470E05F
:103350000E941B0E65E170E080E090E00E94303337
:1033600082E06DE170E00E941B0E6FE670E080E08D
:1033700090E00E94303384E06DE470E00E941B0E08
:1033800065E070E080E090E00E94303384E061E42A
:1033900070E00E941B0E69E670E080E090E00E9401
:1033A000303382E069E270E00E941B0E84E06DE43D
:1033B00070E00E941B0E65E070E080E090E00E94EB
:1033C000303384E061E470E00E941B0E68E670E038
:1033D00080E090E00E94303382E06DE170E00E9476
:1033E0001B0E6FE070E080E090E00E94303382E0DE
:1033F00069E270E00E941B0E6DE170E080E090E0F9
:103400000E94303382E06DE170E00E941B0E6DE39C
:1034100070E080E090E00E94303384E06DE470E082
:103420000E941B0E65E070E080E090E00E94303367
:1034300084E061E470E00E941B0E6DED70E080E0BE
:1034400090E00E94303382E069E270E00E941B0E3F
:103450006CE170E080E090E00E94303384E06DE445
:1034600070E00E941B0E62E570E080E090E00E9438
:10347000303382E06DE170E00E941B0E6EE170E07F
:1034800080E090E00E94303382E069E270E00E94C8
:103490001B0E6DE070E080E090E00E94303382E02F
:1034A0006DE170E00E941B0E69E470E080E090E046
:1034B0000E94303384E061E470E00E941B0E6FE0F4
:1034C00070E080E090E00E94303382E060E270E0E3
:1034D0000E941B0E67E370E080E090E00E943033B2
:1034E00084E06DE470E00E941B0E65E070E080E017
:1034F00090E00E94303384E061E470E00E941B0E93
:1035000066E170E080E090E00E94303384E06DE49A
:1035100070E00E941B0E64E070E080E090E00E948A
:10352000303384E061E470E00E941B0E6FE670E0CF
:1035300080E090E00E94303382E06CE270E00E9414
:103540001B0E65E070E080E090E00E94303384E084
:103550006DE470E00E941B0E64E070E080E090E09B
:103560000E94303384E061E470E00E941B0E6EE53F
:1035700070E080E090E00E94303384E06DE470E021
:103580000E941B0E65E070E080E090E00E94303306
:1035900084E061E470E00E941B0E6EE570E080E064
:1035A00090E00E94303384E06DE470E00E941B0ED6
:1035B00064E070E080E090E00E94303384E061E4F9
:1035C00070E00E941B0E63EE70E080E090E00E94CD
:1035D000303384E06DE470E00E941B0E66E070E022
:1035E00080E090E00E94303384E061E470E00E946B
:1035F0001B0E63E570E080E090E00E94303384E0D1
:103600006DE470E00E941B0E65E070E080E090E0E9
:103610000E94303384E061E470E00E941B0E6FE092
:1036200070E080E090E00E94303384E06DE470E070
:103630000E941B0E65E070E080E090E00E94303355
:1036400084E061E470E00E941B0E63E570E080E0BE
:1036500090E00E94303384E06DE470E00E941B0E25
:1036600065E070E080E090E00E94303384E061E447
:1036700070E00E941B0E66E170E080E090E00E9426
:10368000303382E060E270E00E941B0E6FE670E073
:1036900080E090E00E94303384E06DE470E00E94AE
:1036A0001B0E65E070E080E090E00E94303384E023
:1036B00061E470E00E941B0E68E670E080E090E03C
:1036C0000E94303382E06CE270E00E941B0E84E0C6
:1036D0006DE470E00E941B0E65E070E080E090E019
:1036E0000E94303384E061E470E00E941B0E69E6C2
:1036F00070E080E090E00E94303382E060E270E0B1
:103700000E941B0E69E670E080E090E00E9430337A
:1037100084E06DE470E00E941B0E65E070E080E0E4
:1037200090E00E94303384E061E470E00E941B0E60
:103730006EED70E080E090E00E94303382E06CE259
:1037400070E00E941B0E6BE170E080E090E00E9450
:10375000303384E06DE470E00E941B0E6DE470E095
:1037600080E090E00E94303384E061E470E00E94E9
:103770001B0E66E070E080E090E00E94303382E053
:1037800060E270E00E941B0E6EE670E080E090E068
:103790000E94303382E065E270E00E941B0E84E0FC
:1037A0006DE470E00E941B0E64E070E080E090E049
:1037B0000E94303384E061E470E00E941B0E69E4F3
:1037C00070E080E090E00E94303384E06DE470E0CF
:1037D0000E941B0E64E070E080E090E00E943033B5
:1037E00084E061E470E00E941B0E66E170E080E01E
:1037F00090E00E94303384E06DE470E00E941B0E84
:1038000065E070E080E090E00E94303384E061E4A5
:1038100070E00E941B0E6FE670E080E090E00E9476
:10382000303382E061E370E00E941B0E65E070E0DF
:1038300080E090E00E94303384E06DE470E00E940C
:103840001B0E64E070E080E090E00E94303384E082
:1038500061E470E00E941B0E63E670E080E090E09F
:103860000E94303384E06DE470E00E941B0E6DE432
:1038700071E080E090E00E94303384E061E470E029
:103880000E941B0E63E570E080E090E00E94303300
:1038900084E06DE470E00E941B0E64E070E080E064
:1038A00090E00E94303384E061E470E00E941B0EDF
:1038B00061E170E080E090E00E94303384E06DE4EC
:1038C00070E00E941B0E66E070E080E090E00E94D5
:1038D000303384E061E470E00E941B0E62E570E02A
:1038E00080E090E00E94303384E06DE470E00E945C
:1038F0001B0E64E070E080E090E00E94303384E0D2
:1039000061E470E00E941B0E67E170E080E090E0EF
:103910000E94303382E065E270E00E941B0E6EE68A
:1039200070E080E090E00E94303384E06DE470E06D
:103930000E941B0E64E070E080E090E00E94303353
:1039400084E061E470E00E941B0E6AE670E080E0B3
:1039500090E00E94303382E061E370E00E941B0E31
:1039600084E06DE470E00E941B0E64E070E080E093
:1039700090E00E94303384E061E470E00E941B0E0E
:103980006AE670E080E090E00E94303382E065E219
:1039900070E00E941B0E69E670E080E090E00E94FB
:1039A000303384E06DE470E00E941B0E64E070E050
:1039B00080E090E00E94303384E061E470E00E9497
:1039C0001B0E6EED70E080E090E00E94303382E0EC
:1039D00061E370E00E941B0E6BE170E080E090E01C
:1039E0000E94303384E06DE470E00E941B0E62E5BB
:1039F00070E080E090E00E94303382E065E270E0A9
:103A00000E941B0E60E770E080E090E00E9430337F
:103A100082E064E270E00E941B0E66E070E080E0ED
:103A200090E00E94303384E06CE370E00E941B0E53
:103A300084E061E470E00E941B0E62EC71E080E0C3
:103A400090E00E94303384E06CE370E00E941B0E33
:103A500061ED70E080E090E00E94303384E060E44B
:103A600070E00E941B0E68E070E080E090E00E9431
:103A7000303384E06CE370E00E941B0E6FE673E06D
:103A800080E090E00E94303384E060E470E00E94C7
:103A90001B0E6EED70E080E090E00E94303382E01B
:103AA0006DE170E00E941B0E089587E06EE30E94B6
:103AB0005F0D80E060E070E00E941B0E82E060E03D
:103AC00070E00E941B0E84E060E070E00E941B0E1C
:103AD00080E068E470E00E941B0E80E060E470E02B
:103AE0000E941B0E63E670E080E090E00E9430339D
:103AF00080E060E070E00E941B0E6DE770E080E007
:103B000090E00E94303380E06CE370E00E941B0E76
:103B100061E370E080E090E00E94303380E060E09C
:103B200070E00E941B0E69E170E080E090E00E946E
:103B3000303380E068E470E00E941B0E80E060E4B7
:103B400070E00E941B0E64E670E080E090E00E944E
:103B5000303380E060E070E00E941B0E68EC70E0A3
:103B600080E090E00E94303380E06AE470E00E94E0
:103B70001B0E80E060E470E00E941B0E64E670E0C3
:103B800080E090E00E94303380E060E070E00E94CE
:103B90001B0E6CE770E080E090E00E94303380E024
:103BA0006CE370E00E941B0E63E370E080E090E045
:103BB0000E94303380E060E070E00E941B0E68E1FC
:103BC00070E080E090E00E94303380E06AE470E0D2
:103BD0000E941B0E80E060E470E00E941B0E64E611
:103BE00070E080E090E00E94303380E060E070E0C0
:103BF0000E941B0E68EC70E080E090E00E94303381
:103C000080E06CE470E00E941B0E80E060E470E0F5
:103C10000E941B0E64E670E080E090E00E9430336A
:103C200080E060E070E00E941B0E6DE770E080E0D5
:103C300090E00E94303380E06CE370E00E941B0E45
:103C400061E370E080E090E00E94303380E060E06B
:103C500070E00E941B0E69E170E080E090E00E943D
:103C6000303380E06CE470E00E941B0E80E060E482
:103C700070E00E941B0E63E670E080E090E00E941E
:103C8000303380E060E070E00E941B0E6DE770E072
:103C900080E090E00E94303380E06AE470E00E94AF
:103CA0001B0E80E060E470E00E941B0E64E670E092
:103CB00080E090E00E94303380E060E070E00E949D
:103CC0001B0E68EC70E080E090E00E94303380E0F2
:103CD0006FE370E00E941B0E62E370E080E090E012
:103CE0000E94303380E060E070E00E941B0E68E1CB
:103CF00070E080E090E00E94303380E06AE470E0A1
:103D00000E941B0E80E060E470E00E941B0E65E6DE
:103D100070E080E090E00E94303380E060E070E08E
:103D20000E941B0E68EC70E080E090E00E9430334F
:103D300080E068E470E00E941B0E80E060E470E0C8
:103D40000E941B0E64E670E080E090E00E94303339
:103D500080E060E070E00E941B0E6EE770E080E0A3
:103D600090E00E94303380E06CE370E00E941B0E14
:103D700061E370E080E090E00E94303380E060E03A
:103D800070E00E941B0E69E170E080E090E00E940C
:103D9000303380E068E470E00E941B0E80E060E455
:103DA00070E00E941B0E63E670E080E090E00E94ED
:103DB000303380E060E070E00E941B0E69EC70E040
:103DC00080E090E00E94303380E06AE470E00E947E
:103DD0001B0E80E060E470E00E941B0E64E670E061
:103DE00080E090E00E94303380E060E070E00E946C
:103DF0001B0E6CE770E080E090E00E94303380E0C2
:103E00006CE370E00E941B0E61E370E080E090E0E4
:103E10000E94303380E060E070E00E941B0E69E198
:103E200070E080E090E00E94303380E06AE470E06F
:103E30000E941B0E80E060E470E00E941B0E64E6AE
:103E400070E080E090E00E94303380E060E070E05D
:103E50000E941B0E6CE770E080E090E00E9430331F
:103E600080E06CE470E00E941B0E80E060E470E093
:103E70000E941B0E62E370E080E090E00E9430330D
:103E800080E060E070E00E941B0E089587E06CE324
:103E90000E945F0D80E060E070E00E941B0E82E0F7
:103EA00060E070E00E941B0E84E060E070E00E9421
:103EB0001B0E80E064E270E00E941B0E6DE771E073
:103EC00080E090E00E94303382E06FE470E00E9476
:103ED0001B0E61E570E080E090E00E94303382E0EC
:103EE00060E070E00E941B0E69E470E080E090E00A
:103EF0000E94303380E060E070E00E941B0E82E0A0
:103F00006EE470E00E941B0E80E06BE270E00E94A5
:103F10001B0E69E470E080E090E00E94303382E0A4
:103F200060E070E00E941B0E64E670E080E090E0CC
:103F30000E94303382E06DE470E00E941B0E67E661
:103F400070E080E090E00E94303382E060E070E05A
:103F50000E941B0E66E570E080E090E00E94303326
:103F600082E06BE470E00E941B0E60E870E080E08D
:103F700090E00E94303380E060E370E00E941B0E0E
:103F800080E060E070E00E941B0E82E060E070E084
:103F90000E941B0E6CEC70E080E090E00E943033D9
:103FA00082E06CE470E00E941B0E67EB70E080E042
:103FB00090E00E94303380E069E270E00E941B0EC6
:103FC00080E060E070E00E941B0E82E060E070E044
:103FD0000E941B0E63EA70E080E090E00E943033A4
:103FE00082E064E470E00E941B0E67E870E080E00D
:103FF00090E00E94303382E060E070E00E941B0E8F
:1040000062E270E080E090E00E94303382E065E49C
:1040100070E00E941B0E68EA70E080E090E00E9471
:10402000303382E060E070E00E941B0E64E170E0DB
:1040300080E090E00E94303382E068E470E00E940B
:104040001B0E62E170E080E090E00E94303380E07F
:1040500060E370E00E941B0E60E170E080E090E0A1
:104060000E94303380E060E070E00E941B0E66E545
:1040700071E080E090E00E94303382E065E470E01F
:104080000E941B0E82E060E070E00E941B0E66E959
:1040900070E080E090E00E94303380E069E270E000
:1040A0000E941B0E80E060E070E00E941B0E82E028
:1040B00068E470E00E941B0E69E170E080E090E02F
:1040C0000E94303382E060E070E00E941B0E64E8E2
:1040D00070E080E090E00E94303382E06AE470E0BB
:1040E0000E941B0E6FEC70E080E090E00E94303385
:1040F00080E064E270E00E941B0E67E170E080E007
:1041000090E00E94303380E060E070E00E941B0E7F
:1041100082E060E070E00E941B0E6EE471E080E0DF
:1041200090E00E94303382E06FE470E00E941B0E4A
:1041300062E670E080E090E00E94303382E060E070
:1041400070E00E941B0E6EE370E080E090E00E9441
:10415000303382E06EE470E00E941B0E80E068E283
:1041600070E00E941B0E80E060E070E00E941B0E79
:1041700069E470E080E090E00E94303382E060E02B
:1041800070E00E941B0E6BE570E080E090E00E9402
:10419000303382E06DE470E00E941B0E6EE570E04B
:1041A00080E090E00E94303382E060E070E00E94A6
:1041B0001B0E6DE470E080E090E00E94303382E0FE
:1041C0006BE470E00E941B0E63EA70E080E090E018
:1041D0000E94303380E06BE270E00E941B0E6CE1C5
:1041E00070E080E090E00E94303380E060E070E0BA
:1041F0000E941B0E6FE870E080E090E00E94303378
:1042000080E060E370E00E941B0E82E060E070E0FE
:104210000E941B0E63E270E080E090E00E94303369
:1042200082E06CE470E00E941B0E6CEE70E080E0B7
:1042300090E00E94303382E060E070E00E941B0E4C
:1042400068E470E080E090E00E94303382E064E552
:1042500070E00E941B0E65E271E080E090E00E9439
:10426000303382E060E070E00E941B0E67E570E092
:1042700080E090E00E94303382E064E570E00E94CC
:104280001B0E60E870E080E090E00E94303382E036
:1042900060E070E00E941B0E6EE270E080E090E053
:1042A0000E94303382E064E570E00E941B0E69E6F4
:1042B00071E080E090E00E94303380E060E070E0E8
:1042C0000E941B0E80E06BE270E00E941B0E6DE509
:1042D00071E080E090E00E94303382E060E070E0C6
:1042E0000E941B0E60E270E080E090E00E9430339C
:1042F00080E060E070E00E941B0E80E064E270E00D
:104300000E941B0E61E671E080E090E00E94303375
:1043100082E06FE470E00E941B0E6BE570E080E0CD
:1043200090E00E94303382E060E070E00E941B0E5B
:104330006CE470E080E090E00E94303382E06EE454
:1043400070E00E941B0E67E170E080E090E00E9448
:10435000303380E06BE270E00E941B0E80E060E092
:1043600070E00E941B0E69E270E080E090E00E9425
:10437000303382E060E070E00E941B0E66E670E081
:1043800080E090E00E94303382E06DE470E00E94B3
:104390001B0E66E670E080E090E00E94303382E021
:1043A00060E070E00E941B0E61E570E080E090E04C
:1043B0000E94303382E06BE470E00E941B0E6CE5DB
:1043C00070E080E090E00E94303382E060E070E0D6
:1043D0000E941B0E67E670E080E090E00E943033A0
:1043E00080E060E370E00E941B0E68E170E080E016
:1043F00090E00E94303380E060E070E00E941B0E8D
:1044000060EB70E080E090E00E94303382E06CE48A
:1044100070E00E941B0E6AE770E080E090E00E946E
:10442000303382E060E070E00E941B0E67E270E0D3
:1044300080E090E00E94303380E069E270E00E940A
:104440001B0E6AEB70E080E090E00E94303382E067
:1044500064E470E00E941B0E64EA70E080E090E08B
:104460000E94303382E065E470E00E941B0E82E01F
:1044700060E070E00E941B0E63EA70E080E090E074
:104480000E94303380E060E070E00E941B0E80E00C
:1044900060E370E00E941B0E82E068E470E00E941E
:1044A0001B0E67E671E080E090E00E94303382E00E
:1044B00065E470E00E941B0E82E060E070E00E9404
:1044C0001B0E6BE770E080E090E00E94303380E0EC
:1044D00060E070E00E941B0E80E069E270E00E94E4
:1044E0001B0E65E270E080E090E00E94303382E0D5
:1044F00068E470E00E941B0E82E060E070E00E94C1
:104500001B0E60E970E080E090E00E94303382E0B2
:104510006AE470E00E941B0E63EB70E080E090E0C4
:104520000E94303380E064E270E00E941B0E80E065
:1045300060E070E00E941B0E6FEE70E080E090E0A3
:104540000E94303382E060E070E00E941B0E66E85B
:1045500070E080E090E00E94303382E06BE470E035
:104560000E941B0E80E06CE270E00E941B0E80E057
:1045700060E070E00E941B0E63ED71E080E090E06F
:104580000E94303382E060E070E00E941B0E65E321
:1045900070E080E090E00E94303382E06AE470E0F6
:1045A0000E941B0E80E06EE270E00E941B0E64EE23
:1045B00071E080E090E00E94303382E060E070E0E3
:1045C0000E941B0E80E060E370E00E941B0E80E002
:1045D00060E070E00E941B0E82E068E470E00E94E0
:1045E0001B0E6CE172E080E090E00E94303380E0CE
:1045F0006BE270E00E941B0E80E060E070E00E94C1
:104600001B0E66EA70E080E090E00E94303380E0AC
:104610006BE270E00E941B0E089587E068E30E9441
:104620005F0D80E060E070E00E941B0E82E060E0C1
:1046300070E00E941B0E84E060E070E00E941B0EA0
:1046400082E069E370E00E941B0E84E061E270E0AA
:104650000E941B0E6BE570E080E090E00E9430331A
:1046600082E06CE370E00E941B0E6BE670E080E07D
:1046700090E00E94303382E060E470E00E941B0E04
:104680006AE670E080E090E00E94303382E065E40A
:1046900070E00E941B0E6BE670E080E090E00E94EC
:1046A000303382E067E370E00E941B0E84E061E239
:1046B00070E00E941B0E6AE670E080E090E00E94CD
:1046C000303382E06BE370E00E941B0E6BE670E01B
:1046D00080E090E00E94303382E06EE370E00E9460
:1046E0001B0E6CE670E080E090E00E94303382E0C8
:1046F00063E470E00E941B0E6AE670E080E090E0E8
:104700000E94303382E069E370E00E941B0E84E077
:1047100061E270E00E941B0E6BE670E080E090E0CA
:104720000E94303382E06CE370E00E941B0E6AE668
:1047300070E080E090E00E94303382E060E470E05E
:104740000E941B0E6BE670E080E090E00E94303328
:1047500082E065E470E00E941B0E6AE670E080E093
:1047600090E00E94303382E06BE370E00E941B0E09
:1047700084E061E270E00E941B0E6BE670E080E076
:1047800090E00E94303382E06EE370E00E941B0EE6
:104790006CE670E080E090E00E94303382E063E4F9
:1047A00070E00E941B0E6AE670E080E090E00E94DC
:1047B000303382E067E470E00E941B0E6BE670E02D
:1047C00080E090E00E94303382E06CE370E00E9471
:1047D0001B0E84E061E270E00E941B0E6AE670E04E
:1047E00080E090E00E94303382E060E470E00E945C
:1047F0001B0E6BE670E080E090E00E94303382E0B8
:1048000065E470E00E941B0E6AE670E080E090E0D4
:104810000E94303382E068E470E00E941B0E6BE679
:1048200070E080E090E00E94303382E06BE370E063
:104830000E941B0E84E061E270E00E941B0E6CE699
:1048400070E080E090E00E94303382E06EE370E040
:104850000E941B0E6AE670E080E090E00E94303318
:1048600082E063E470E00E941B0E6BE670E080E083
:1048700090E00E94303382E067E470E00E941B0EFB
:104880006AE670E080E090E00E94303382E06CE302
:1048900070E00E941B0E84E061E270E00E941B0E3B
:1048A0006BE670E080E090E00E94303382E060E4EC
:1048B00070E00E941B0E6AE670E080E090E00E94CB
:1048C000303382E065E470E00E941B0E6BE670E01E
:1048D00080E090E00E94303382E068E470E00E9463
:1048E0001B0E6CE670E080E090E00E94303382E0C6
:1048F0006EE370E00E941B0E84E061E270E00E94B3
:104900001B0E6AE670E080E090E00E94303382E0A7
:1049100063E470E00E941B0E6BE670E080E090E0C4
:104920000E94303382E067E470E00E941B0E6AE66A
:1049300070E080E090E00E94303382E06AE470E052
:104940000E941B0E6BE670E080E090E00E94303326
:1049500080E065E470E00E941B0E82E069E370E095
:104960000E941B0E84E061E270E00E941B0E6AE66A
:1049700070E080E090E00E94303382E06CE370E011
:104980000E941B0E6BE670E080E090E00E943033E6
:1049900082E060E470E00E941B0E6CE670E080E054
:1049A00090E00E94303382E065E470E00E941B0ECC
:1049B0006AE670E080E090E00E94303382E069E3D4
:1049C00070E00E941B0E84E061E270E00E941B0E0A
:1049D0006BE670E080E090E00E94303382E06CE3B0
:1049E00070E00E941B0E6AE670E080E090E00E949A
:1049F000303382E060E470E00E941B0E6BE670E0F2
:104A000080E090E00E94303382E065E470E00E9434
:104A10001B0E6AE670E080E090E00E94303380E098
:104A200068E470E00E941B0E82E069E370E00E947F
:104A30001B0E84E061E270E00E941B0E6BE670E0EA
:104A400080E090E00E94303382E06CE370E00E94EE
:104A50001B0E6CE670E080E090E00E94303382E054
:104A600060E470E00E941B0E6AE670E080E090E077
:104A70000E94303382E065E470E00E941B0E6BE61A
:104A800070E080E090E00E94303382E069E370E003
:104A90000E941B0E84E061E270E00E941B0E6AE639
:104AA00070E080E090E00E94303382E06CE370E0E0
:104AB0000E941B0E6BE670E080E090E00E943033B5
:104AC00082E060E470E00E941B0E6AE670E080E025
:104AD00090E00E94303382E065E470E00E941B0E9B
:104AE0006BE670E080E090E00E94303380E06CE4A0
:104AF00070E00E941B0E82E069E370E00E941B0ED2
:104B000084E061E270E00E941B0E6CE670E080E0E1
:104B100090E00E94303382E06CE370E00E941B0E54
:104B20006AE670E080E090E00E94303382E060E46A
:104B300070E00E941B0E6BE670E080E090E00E9447
:104B4000303382E065E470E00E941B0E6AE670E09C
:104B500080E090E00E94303382E069E370E00E94E0
:104B60001B0E84E061E270E00E941B0E6BE670E0B9
:104B700080E090E00E94303382E06CE370E00E94BD
:104B80001B0E6AE670E080E090E00E94303382E025
:104B900060E470E00E941B0E6BE670E080E090E045
:104BA0000E94303382E065E470E00E941B0E6CE6E8
:104BB00070E080E090E00E94303380E06FE470E0CD
:104BC0000E941B0E82E069E370E00E941B0E84E0ED
:104BD00061E270E00E941B0E69E670E080E090E008
:104BE0000E94303382E06CE370E00E941B0E6BE6A3
:104BF00070E080E090E00E94303382E060E470E09A
:104C00000E941B0E6AE670E080E090E00E94303364
:104C100082E065E470E00E941B0E6BE670E080E0CD
:104C200090E00E94303382E069E370E00E941B0E46
:104C300084E061E270E00E941B0E6AE670E080E0B2
:104C400090E00E94303382E06CE370E00E941B0E23
:104C50006BE670E080E090E00E94303382E060E438
:104C600070E00E941B0E6CE670E080E090E00E9415
:104C7000303382E065E470E00E941B0E6AE670E06B
:104C800080E090E00E94303380E06EE470E00E94AB
:104C90001B0E82E069E370E00E941B0E84E066E276
:104CA00070E00E941B0E6BE670E080E090E00E94D6
:104CB000303382E06EE370E00E941B0E6AE670E023
:104CC00080E090E00E94303382E062E470E00E9475
:104CD0001B0E6BE670E080E090E00E94303382E0D3
:104CE00065E470E00E941B0E6AE670E080E090E0F0
:104CF0000E94303382E069E370E00E941B0E84E082
:104D000066E270E00E941B0E6BE670E080E090E0CF
:104D10000E94303382E06EE370E00E941B0E6BE66F
:104D200070E080E090E00E94303382E062E470E066
:104D30000E941B0E6AE670E080E090E00E94303333
:104D400082E065E470E00E941B0E6BE670E080E09C
:104D500090E00E94303382E069E370E00E941B0E15
:104D600084E066E270E00E941B0E6AE670E080E07C
:104D700090E00E94303382E06EE370E00E941B0EF0
:104D80006BE670E080E090E00E94303382E062E405
:104D900070E00E941B0E6AE670E080E090E00E94E6
:104DA000303382E065E470E00E941B0E6BE670E039
:104DB00080E090E00E94303382E069E370E00E947E
:104DC0001B0E84E066E270E00E941B0E6CE670E051
:104DD00080E090E00E94303382E06EE370E00E9459
:104DE0001B0E6AE670E080E090E00E94303382E0C3
:104DF00062E470E00E941B0E6BE670E080E090E0E1
:104E00000E94303382E065E470E00E941B0E6AE687
:104E100070E080E090E00E94303380E06AE470E06F
:104E20000E941B0E82E069E370E00E941B0E84E08A
:104E300066E270E00E941B0E6BE670E080E090E09E
:104E40000E94303382E06EE370E00E941B0E6AE63F
:104E500070E080E090E00E94303382E062E470E035
:104E60000E941B0E6BE670E080E090E00E94303301
:104E700082E065E470E00E941B0E6CE670E080E06A
:104E800090E00E94303382E069E370E00E941B0EE4
:104E900084E066E270E00E941B0E6AE670E080E04B
:104EA00090E00E94303382E06EE370E00E941B0EBF
:104EB0006BE670E080E090E00E94303382E062E4D4
:104EC00070E00E941B0E6AE670E080E090E00E94B5
:104ED000303382E065E470E00E941B0E6BE670E008
:104EE00080E090E00E94303382E069E370E00E944D
:104EF0001B0E84E066E270E00E941B0E69E670E023
:104F000080E090E00E94303382E06EE370E00E9427
:104F10001B0E6BE670E080E090E00E94303380E092
:104F20006AE470E00E941B0E82E062E470E00E947E
:104F30001B0E6CE670E080E090E00E94303382E06F
:104F400065E470E00E941B0E6AE670E080E090E08D
:104F50000E94303380E06AE470E00E941B0E82E021
:104F600069E370E00E941B0E84E066E270E00E943C
:104F70001B0E6BE670E080E090E00E94303382E030
:104F80006EE370E00E941B0E6AE670E080E090E045
:104F90000E94303380E06CE470E00E941B0E82E0DF
:104FA00062E470E00E941B0E6BE670E080E090E02F
:104FB0000E94303382E065E470E00E941B0E6AE6D6
:104FC00070E080E090E00E94303380E06DE470E0BB
:104FD0000E941B0E82E069E370E00E941B0E84E0D9
:104FE0006DE170E00E941B0E6BE670E080E090E0E7
:104FF0000E94303382E06CE370E00E941B0E6CE68E
:1050000070E080E090E00E94303382E061E470E084
:105010000E941B0E6AE670E080E090E00E94303350
:1050200082E065E470E00E941B0E6BE670E080E0B9
:1050300090E00E94303382E069E370E00E941B0E32
:1050400084E06DE170E00E941B0E6AE670E080E093
:1050500090E00E94303382E06CE370E00E941B0E0F
:105060006BE670E080E090E00E94303382E061E423
:1050700070E00E941B0E6AE670E080E090E00E9403
:10508000303382E065E470E00E941B0E6BE670E056
:1050900080E090E00E94303380E06FE470E00E9496
:1050A0001B0E82E069E370E00E941B0E84E06DE15C
:1050B00070E00E941B0E6CE670E080E090E00E94C1
:1050C000303382E06CE370E00E941B0E6AE670E011
:1050D00080E090E00E94303382E061E470E00E9462
:1050E0001B0E6BE670E080E090E00E94303382E0BF
:1050F00065E470E00E941B0E6AE670E080E090E0DC
:105100000E94303380E06DE470E00E941B0E82E06C
:1051100069E370E00E941B0E84E06FE170E00E9482
:105120001B0E6BE670E080E090E00E94303382E07E
:105130006CE370E00E941B0E6AE670E080E090E095
:105140000E94303382E061E470E00E941B0E6BE647
:1051500070E080E090E00E94303382E065E470E02F
:105160000E941B0E6CE670E080E090E00E943033FD
:1051700080E06CE470E00E941B0E82E067E370E068
:105180000E941B0E84E061E270E00E941B0E6AE642
:1051900070E080E090E00E94303382E06CE370E0E9
:1051A0000E941B0E6BE670E080E090E00E943033BE
:1051B00082E060E470E00E941B0E6AE670E080E02E
:1051C00090E00E94303382E063E470E00E941B0EA6
:1051D0006BE670E080E090E00E94303380E068E4AD
:1051E00070E00E941B0E82E067E370E00E941B0EDD
:1051F00084E061E270E00E941B0E6AE670E080E0ED
:1052000090E00E94303382E06CE370E00E941B0E5D
:105210006BE670E080E090E00E94303382E060E472
:1052200070E00E941B0E6CE670E080E090E00E944F
:10523000303382E063E470E00E941B0E6AE670E0A7
:1052400080E090E00E94303380E065E470E00E94EE
:105250001B0E82E067E370E00E941B0E84E061E2B7
:1052600070E00E941B0E6BE670E080E090E00E9410
:10527000303382E06CE370E00E941B0E6AE670E05F
:1052800080E090E00E94303382E060E470E00E94B1
:105290001B0E6BE670E080E090E00E94303382E00D
:1052A00063E470E00E941B0E6AE670E080E090E02C
:1052B0000E94303380E068E470E00E941B0E82E0C0
:1052C00067E370E00E941B0E84E061E270E00E94E0
:1052D0001B0E6BE670E080E090E00E94303382E0CD
:1052E0006CE370E00E941B0E6CE670E080E090E0E2
:1052F0000E94303382E060E470E00E941B0E6AE698
:1053000070E080E090E00E94303382E063E470E07F
:105310000E941B0E6CE670E080E090E00E9430334B
:1053200080E06AE470E00E941B0E82E067E370E0B8
:105330000E941B0E84E06FE170E00E941B0E69E684
:1053400070E080E090E00E94303382E06AE370E039
:105350000E941B0E6BE670E080E090E00E9430330C
:1053600082E06EE370E00E941B0E6AE670E080E06F
:1053700090E00E94303382E063E470E00E941B0EF4
:105380006BE670E080E090E00E94303382E067E3FB
:1053900070E00E941B0E84E06FE170E00E941B0E23
:1053A0006CE670E080E090E00E94303382E06AE3D7
:1053B00070E00E941B0E6AE670E080E090E00E94C0
:1053C000303382E06EE370E00E941B0E6BE670E00B
:1053D00080E090E00E94303382E063E470E00E945D
:1053E0001B0E6AE670E080E090E00E94303382E0BD
:1053F00067E370E00E941B0E84E06FE170E00E94A2
:105400001B0E6BE670E080E090E00E94303382E09B
:105410006AE370E00E941B0E6AE670E080E090E0B4
:105420000E94303382E06EE370E00E941B0E6BE658
:1054300070E080E090E00E94303382E063E470E04E
:105440000E941B0E6CE670E080E090E00E9430331A
:1054500082E067E370E00E941B0E84E06FE170E081
:105460000E941B0E6AE670E080E090E00E943033FC
:1054700082E06AE370E00E941B0E6BE670E080E061
:1054800090E00E94303382E06EE370E00E941B0ED9
:105490006AE670E080E090E00E94303382E063E4EE
:1054A00070E00E941B0E6BE670E080E090E00E94CE
:1054B000303382E067E370E00E941B0E84E06FE10E
:1054C00070E00E941B0E6AE670E080E090E00E94AF
:1054D000303382E06AE370E00E941B0E6BE670E0FE
:1054E00080E090E00E94303382E06EE370E00E9442
:1054F0001B0E6CE670E080E090E00E94303382E0AA
:1055000063E470E00E941B0E6AE670E080E090E0C9
:105510000E94303382E067E370E00E941B0E84E05B
:105520006FE170E00E941B0E6BE670E080E090E09F
:105530000E94303382E06AE370E00E941B0E6AE64C
:1055400070E080E090E00E94303382E06EE370E033
:105550000E941B0E6BE670E080E090E00E9430330A
:1055600082E063E470E00E941B0E6AE670E080E077
:1055700090E00E94303382E067E370E00E941B0EEF
:1055800084E06FE170E00E941B0E6BE670E080E04B
:1055900090E00E94303382E06AE370E00E941B0ECC
:1055A0006CE670E080E090E00E94303382E06EE3D1
:1055B00070E00E941B0E6AE670E080E090E00E94BE
:1055C000303382E063E470E00E941B0E6BE670E013
:1055D00080E090E00E94303380E068E470E00E9458
:1055E0001B0E82E067E370E00E941B0E84E06FE117
:1055F00070E00E941B0E6AE670E080E090E00E947E
:10560000303382E06AE370E00E941B0E6BE670E0CC
:1056100080E090E00E94303382E06EE370E00E9410
:105620001B0E6AE670E080E090E00E94303382E07A
:1056300063E470E00E941B0E6BE670E080E090E097
:105640000E94303380E06AE470E00E941B0E82E02A
:1056500065E370E00E941B0E84E06DE170E00E9443
:105660001B0E6CE670E080E090E00E94303382E038
:1056700068E370E00E941B0E6AE670E080E090E054
:105680000E94303382E06CE370E00E941B0E6BE6F8
:1056900070E080E090E00E94303382E061E470E0EE
:1056A0000E941B0E6AE670E080E090E00E943033BA
:1056B00082E065E370E00E941B0E84E06DE170E023
:1056C0000E941B0E6BE670E080E090E00E94303399
:1056D00082E068E370E00E941B0E6AE670E080E002
:1056E00090E00E94303382E06CE370E00E941B0E79
:1056F0006BE670E080E090E00E94303382E061E48D
:1057000070E00E941B0E6CE670E080E090E00E946A
:10571000303382E065E370E00E941B0E84E06DE1AF
:1057200070E00E941B0E6AE670E080E090E00E944C
:10573000303382E068E370E00E941B0E6BE670E09D
:1057400080E090E00E94303382E06CE370E00E94E1
:105750001B0E6AE670E080E090E00E94303382E049
:1057600061E470E00E941B0E6BE670E080E090E068
:105770000E94303382E065E370E00E941B0E84E0FB
:105780006DE170E00E941B0E6AE670E080E090E040
:105790000E94303382E068E370E00E941B0E6BE6EB
:1057A00070E080E090E00E94303382E06CE370E0D3
:1057B0000E941B0E6CE670E080E090E00E943033A7
:1057C00082E061E470E00E941B0E089560E08111A8
:1057D00061E08FE00E9439340895EF92FF920F93B9
:1057E0001F937C018FE061E00E94393400E010E0FB
:1057F000C801B7010E9430338FE060E00E94393465
:105800001F910F91FF90EF900895AF92BF92CF92AA
:10581000DF92EF92FF920F931F93CF93DF935C0180
:105820006B01C0E0D0E07B010027F7FC0095102F52
:1058300008C0C6010E94ED2BC801B7010E94303399
:105840002196CA15DB05ACF3DF91CF911F910F9123
:10585000FF90EF90DF90CF90BF90AF9008950E949F
:10586000A23320E0815293400CF021E0822F089572
:10587000CF92DF92EF92FF920F931F93DF93CF931C
:105880000F92CDB7DEB76C0184E795E061E070E080
:1058900040E050E00E94570684E795E063EB71E03A
:1058A0000E94E30584E795E062E070E040E050E0AC
:1058B0000E94570684E795E064EC71E00E94E305DE
:1058C0000E9422337B018C0119822BC084E795E072
:1058D00061E070E040E050E00E94570684E795E008
:1058E00065ED71E00E94E30584E795E062E070E019
:1058F00040E050E00E94570684E795E066EE71E0D4
:105900000E94E30568EE73E080E090E00E9430338F
:105910000E9422337B018C012981213099F081E0A2
:1059200089830E9422336E197F09800B910B68587E
:1059300073418040904070F580E00E942F2C8823B6
:1059400081F3C4CF10927E05F601838180934205D6
:1059500084E795E061E070E040E050E00E94570687
:1059600084E795E067EF71E00E94E30584E795E046
:1059700062E070E040E050E00E94570684E795E066
:1059800068E072E00E94E3056CED75E080E090E075
:105990000E9430330F90CF91DF911F910F91FF90B4
:1059A000EF90DF90CF90089580E00E942F2C882305
:1059B00011F080E0089582E00E942F2C882311F0DE
:1059C00082E0089583E00E942F2C882311F48FE752
:1059D000089583E008955F926F927F928F929F92D5
:1059E000AF92BF92CF92DF92EF92FF920F931F93ED
:1059F000DF93CF93CDB7DEB76E970FB6F894DEBFC7
:105A00000FBECDBFA82E84E795E00E94100784E763
:105A100095E061E070E040E050E00E945706AA2067
:105A200029F084E795E069E172E004C084E795E03D
:105A30006AE272E00E94E3052091850540918605A7
:105A4000AA2039F48CE3289F80011124040F111D32
:105A500004C00091890510918A051B821A8219825F
:105A6000BB2483E0582E3E010894611C711CB8E0F1
:105A7000CB2ED12CCC0EDD1EAFE08A2E912C8C0EBD
:105A80009D1EB59C7001112484E090E0E80EF91E83
:105A9000AA2019F087E795E001C0C301D601FC01F7
:105AA00087E001900D928150E1F7C601B8010E9494
:105AB000F209D601FC0187E001900D928150E1F7D7
:105AC000C401B6010E942C0B84E795E062E070E00F
:105AD00040E050E00E94570684E795E0B4010E9440
