:100000000C9463000C948B000C948B000C948B006C
:100010000C948B000C948B000C948B000C948B0034
:100020000C948B000C948B000C948B000C948B0024
:100030000C948B000C948B000C948B000C948B0014
:100040000C941D0A0C948B000C9414080C948B00D7
:100050000C948B000C948B000C948B000C948B00F4
:100060000C94E3020C948B00000000002400270095
:100070002A0000000000250028002B0000000000DE
:1000800023002600290004040404040404040202DA
:100090000202020203030303030301020408102007
:1000A0004080010204081020010204081020000012
:1000B0000007000201000003040600000000000029
:1000C0000000DF01CD0811241FBECFEFD8E0DEBF56
:1000D000CDBF11E0A0E0B1E0E6E2FAE102C0059098
:1000E0000D92A438B107D9F712E0A4E8B1E001C03D
:1000F0001D92A734B107E1F710E0C6ECD0E004C0D0
:100100002297FE010E940D0DC23CD107C9F70E9443
:100110000D080C94110D0C9400000F931F93CF93B6
:10012000DF93689F8001699F100D789F100D112447
:10013000C8010E94A900EC01009729F060E070E07E
:10014000A8010E94AB01CE01DF91CF911F910F91C9
:100150000895CF93DF93BC018230910510F462E0E3
:1001600070E0A0914502B0914602ED01E0E0F0E0C0
:1001700040E050E021C0888199818617970769F493
:100180008A819B81309719F09383828304C0909376
:10019000460280934502FE0134C06817790738F49F
:1001A0004115510519F08417950708F4AC01FE01BB
:1001B0008A819B819C01E9012097E9F6411551054F
:1001C000A9F1CA01861B970B049708F4BA01E0E075
:1001D000F0E02AC08D919C91119784179507F9F44E
:1001E0006417750781F412968D919C91139730973F
:1001F00019F09383828304C0909346028093450252
:10020000FD0132964CC0CA01861B970BFD01E80F19
:10021000F91F6193719302978D939C9340C0FD01E8
:10022000828193819C01D9011097A1F680914302AC
:1002300090914402892B41F480916E0190916F015D
:100240009093440280934302409170015091710158
:100250004115510541F44DB75EB780916C01909105
:100260006D01481B590B2091430230914402CA0191
:10027000821B930B8617970780F0AB014E5F5F4F91
:100280008417950750F0420F531F50934402409338
:100290004302F9016193719302C0E0E0F0E0CF0105
:1002A000DF91CF910895CF93DF93009709F450C069
:1002B000EC0122971B821A82A0914502B09146025E
:1002C000109709F140E050E0AC17BD0708F1BB837F
:1002D000AA83FE0121913191E20FF31FAE17BF07F0
:1002E00079F48D919C911197280F391F2E5F3F4F04
:1002F0003983288312968D919C9113979B838A83CF
:100300004115510571F4D0934602C093450220C0B7
:1003100012968D919C911397AD01009711F0DC011D
:10032000D3CFFA01D383C28321913191E20FF31F1E
:10033000CE17DF0769F488819981280F391F2E5F56
:100340003F4FFA01318320838A819B81938382838B
:10035000DF91CF910895DC0101C06D934150504071
:10036000E0F7089581E080938D01609388011092F9
:100370008B0110928C01089581E080938D01609330
:10038000880110928B0110928C0108958091870151
:1003900090918601891B0895909186018091870133
:1003A000981710F080E00895E0918401F0918501A4
:1003B000E90FF11D80819F5F909386010895089554
:1003C000DF93CF930F92CDB7DEB7698380918D0114
:1003D0008823A9F080918C018032B0F480918B0148
:1003E000E0918901F0918A01E80FF11D608380910D
:1003F0008B018F5F80938B0180938C0105C0CE01B0
:10040000019661E00E94C6020F90CF91DF9108959E
:100410000E94E00108956091890170918A018091A4
:10042000880140918C0121E00E94810210928B0191
:1004300010928C0110928D010895862F6091840195
:1004400070918501413208F040E20E944B02109207
:10045000860180938701089580E290E061E070E07A
:100460000E948D00809384019093850110928601F3
:100470001092870180E290E061E070E00E948D00C0
:100480008093890190938A0110928B0110928C01C4
:100490000E9465040895982F413210F040E02FC06B
:1004A00080918F018823E1F781E080938F018FEFA6
:1004B0008093A0011092970140939801990F916049
:1004C0009093900185EE8093BC0080918F018130E4
:1004D000E1F380919701841710F440919701A09166
:1004E0009501B091960120E030E007C0FB01E20FDA
:1004F000F31F8D9180832F5F3F4F2417B8F3842F14
:1005000008951F93582F122F413210F081E03CC004
:1005100080918F018823E1F782E080938F018FEF34
:100520008093A0011092970140939801A0919501AA
:10053000B0919601FB0102C081918D938E2F861B95
:100540008417D0F3852F90E0880F991F8093900136
:1005500085EE8093BC00112321F080918F018230C1
:10056000E1F38091A0018F3F11F480E00DC08091F4
:10057000A001803211F482E007C08091A001803395
:1005800011F084E001C083E01F910895482F61328B
:1005900010F081E0089580918F01843011F082E0A5
:1005A000089560939C01A0919901B0919A01842FC4
:1005B0009C01F90102C081918D938E2F841B8617B7
:1005C000D0F380E008951F920F920FB60F9211247E
:1005D0002F933F934F935F936F937F938F939F934B
:1005E000AF93BF93EF93FF938091B90090E0887F22
:1005F00090708036910509F4E2C081369105CCF502
:100600008832910509F47BC089329105B4F48031B8
:10061000910509F46FC0813191053CF4009709F40C
:1006200038C1089709F040C165C08831910509F4C7
:1006300066C0809709F038C17FC08034910509F405
:10064000A3C08134910544F48033910509F47FC03F
:10065000C89709F029C186C08035910509F486C084
:100660008835910509F495C08834910509F01CC1BD
:100670009EC08839910509F404C189399105ECF4CB
:100680008837910509F49BC0893791054CF4883669
:10069000910509F494C08037910509F005C18FC018
:1006A0008838910509F4EDC08039910509F48DC0B1
:1006B0008038910509F0F8C088C0803B910509F4A5
:1006C000B2C0813B91054CF4803A910509F491C088
:1006D000883A910509F0E8C0A6C0803C910509F46C
:1006E000D4C0883C910509F4D0C0883B910509F03D
:1006F000DBC0B1C0809190018093BB00C0C09091DD
:10070000970180919801981778F490919701E09162
:100710009501F0919601E90FF11D80818093BB0056
:100720009F5F90939701ABC085ED8093BC00809153
:10073000BC0084FDFCCFB6C080E28093A00185EDB3
:100740008093BC008091BC0084FDFCCFABC080E3F3
:100750008093A00185ED8093BC008091BC0084FD56
:10076000FCCFA0C088E38093A0018FC08091970147
:100770009091BB00E0919501F0919601E80FF11D79
:1007800090838F5F8093970190919701809198015A
:1007900074C0809197019091BB00E0919501F09118
:1007A0009601E80FF11D90838F5F8093970185ED8F
:1007B0008093BC008091BC0084FDFCCF73C083E0BB
:1007C00080938F0110929F015AC080919F018032C7
:1007D00008F057C080919F019091BB00E0919D016E
:1007E000F0919E01E80FF11D90838F5F80939F0130
:1007F00046C080919F01803248F480919F01E09132
:100800009D01F0919E01E80FF11D108260919F0102
:10081000E0919301F091940180919D0190919E014E
:1008200070E0099532C084E080938F0110929B01A3
:1008300010929C01E0919101F091920109958091B3
:100840009C01882341F481E080939C01E09199010F
:10085000F0919A01108290919B01E0919901F091A1
:100860009A01E90FF11D80818093BB009F5F9093F7
:100870009B0190919B0180919C01981710F485EC4D
:1008800001C085E88093BC000FC085EC8093BC005C
:1008900009C01092A00185ED8093BC008091BC003E
:1008A00084FDFCCF10928F01FF91EF91BF91AF912A
:1008B0009F918F917F916F915F914F913F912F9178
:1008C0000F900FBE0F901F90189510928F01449AB1
:1008D000459AE9EBF0E080818E7F808380818D7F77
:1008E000808388E48093B80085E48093BC0080E234
:1008F00090E061E070E00E948D00809395019093FC
:10090000960180E290E061E070E00E948D008093AB
:10091000990190939A0180E290E061E070E00E947A
:100920008D0080939D0190939E0108951F93182F31
:100930008EE891E0612F0E94B2018EE891E061E6BD
:1009400070E00E9408028EE891E00E940B028EE89F
:1009500091E0612F41E00E941D028EE891E00E942B
:10096000C601882319F42FEF3FEF06C08EE891E00F
:100970000E94CC01282F30E0C9011F9108950F93E8
:100980001F930EE811E06091720170917301C8012C
:100990000E94BC01C8016EE670E00E940802C80116
:1009A0006FEF70E00E940802C80160E070E00E94F2
:1009B0000802C80160E070E00E940802C8010E94BD
:1009C0000B026AEF70E080E090E00E948D0A609177
:1009D000720170917301C8010E94BC01C8016EE6EA
:1009E00070E00E940802C80160E070E00E94080206
:1009F000C8016FEF70E00E940802C80160E070E07B
:100A00000E940802C8010E940B026AEF70E080E0B9
:100A100090E00E948D0A6091720170917301C8018B
:100A20000E94BC01C8016EE670E00E940802C80185
:100A300060E070E00E940802C80160E070E00E947F
:100A40000802C8016FEF70E00E940802C8010E940E
:100A50000B026AEF70E080E090E00E948D0A6091E6
:100A6000720170917301C8010E94BC01C80163E664
:100A700070E00E940802C80160E070E00E94080275
:100A8000C80160E070E00E940802C80160E070E008
:100A90000E940802C8010E940B026AEF70E080E029
:100AA00090E00E948D0A1F910F910895EF92FF929E
:100AB0000F931F93CF93DF9385E292E060E071E0A4
:100AC0000E94330987B18C6087B94298439A64E6E3
:100AD00070E080E090E00E948D0A8EE891E00E9434
:100AE0002C02E09072018E2D0E9496049C018FEFE3
:100AF0002F3F380719F4CFEFDFEF09C0C0E0D0E097
:100B00008E2D90E02817390711F0C1E0D0E0EC2ECF
:100B100085E292E06DE171E00E940409FF2400E0AB
:100B200010E085E292E0B801A7012AE030E00E94DF
:100B3000120ACC2319F560917201709173018EE84D
:100B400091E00E94BC018EE891E06FE670E00E94A7
:100B500008028EE891E066E670E00E9408028EE8E6
:100B600091E060E50E94E0018EE891E00E940B02B6
:100B700062E370E080E090E00E948D0ADF91CF9107
:100B80001F910F91FF90EF9008950F931F9305E22F
:100B900012E0C80140E855E260E070E00E945108B0
:100BA000C80161E271E00E9433098EE891E00E9481
:100BB0002C02C80169E271E00E94040980E00E94F1
:100BC0009604482F50E060E070E0C8012AE030E071
:100BD0000E94120A0E9456050E94BF041F910F91A5
:100BE0000895DF92EF92FF920F931F93F82EE62E57
:100BF000D42E0EE811E06091720170917301C8016A
:100C00000E94BC01C80168E670E00E940802C801A9
:100C10006F2D0E94E001C8016E2D0E94E001C80105
:100C20006D2D0E94E001C8010E940B021F910F91DF
:100C3000FF90EF90DF9008952F923F924F925F9236
:100C40006F927F928F929F92AF92BF92CF92DF92DC
:100C5000EF92FF920F931F93DF93CF9300D0CDB706
:100C6000DEB71B012C0139014A0120E030E04FE2E0
:100C700054E40E94C50B88237CF4C201B10120E03A
:100C800030E04CE553E40E94840C181694F02CEDEF
:100C900030E040E050E013C0C201B10120E030E09C
:100CA0004FE254E40E94C50B2CEB32E040E050E0F0
:100CB00006C0C201B1010E94C90B9B01AC0100D06A
:100CC00000D08FEF90E0A0E0B0E0EDB7FEB78183F9
:100CD0009283A383B483CA01B9012CED30E040E0D4
:100CE00050E0BCEBEB2EB2E0FB2E012D112DAA241F
:100CF000BB2465010E947C0B6A830F900F900F90BC
:100D00000F90C401B30120E030E04FE254E40E94B0
:100D1000C50B88237CF4C401B30120E030E048EC2B
:100D200052E40E94840C181694F024E630E040E06F
:100D300050E013C0C401B30120E030E04FE254E4BE
:100D40000E94C50B2CEB32E040E050E006C0C4012D
:100D5000B3010E94C90B9B01AC0100D000D08FEF02
:100D600090E0A0E0B0E0EDB7FEB781839283A3836B
:100D7000B483CA01B90124E630E040E050E0ACEBB6
:100D8000EA2EA2E0FA2E012D112DAA24BB24650122
:100D90000E947C0B6983609078010F900F900F90F8
:100DA0000F90C201B10120E030E04CE553E40E9415
:100DB000C50B882374F4E090750180917601482E6C
:100DC00085E292E063E371E00E9404095980E982C0
:100DD00008C04A80562C85E292E06EE471E00E94E1
:100DE0000409E42CFF2400E010E0F981AF2EBB24BD
:100DF000CC24DD24652C772488249924D7019927D5
:100E000088275C2D4B2D3A2D2227822B932BA42B48
:100E1000B52B86299729A829B92980937401909325
:100E20007501A0937601B093770180937801909338
:100E30007901A0937A01B0937B0185E292E060E6AC
:100E400071E00E94040985E292E0B801A7012AE05E
:100E500030E00E94FD0985E292E066E671E00E94C2
:100E6000040985E292E0B601A5012AE030E00E9483
:100E7000FD0985E292E066E671E00E94040985E2E0
:100E800092E0B401A3012AE030E00E94FD0985E26E
:100E900092E068E671E00E943309842D6981452D56
:100EA0000E94F1050F900F90CF91DF911F910F914C
:100EB000FF90EF90DF90CF90BF90AF909F908F907A
:100EC0007F906F905F904F903F902F900895AF92DA
:100ED000BF92CF92DF92EF92FF920F931F93CF9327
:100EE000DF9381E161E00E940F0B8FE061E00E94DF
:100EF0000F0B81E160E00E942F0B8FE061E00E9408
:100F00002F0B80E160E00E942F0B8EE060E00E94DA
:100F10002F0B80E160E00E940F0B8EE060E00E94EA
:100F20000F0B6AE070E080E090E00E948D0A82E0A2
:100F30000E94F10A6C0180E161E00E940F0B8EE0DB
:100F400061E00E940F0B80E160E00E942F0B8EE0B9
:100F500061E00E942F0B81E160E00E942F0B8FE087
:100F600060E00E942F0B81E160E00E940F0B8FE098
:100F700060E00E940F0B6AE070E080E090E00E9469
:100F80008D0A83E00E94F10AEC018BE0C816D104BF
:100F90009CF1CB30D10584F176010027F7FC009558
:100FA000102F85E292E0B801A7012AE030E00E940C
:100FB000FD0985E292E06AE671E00E9404095E01A3
:100FC000CC24B7FCC094DC2C85E292E0B601A501EC
:100FD0002AE030E00E94120AC801B7010E94FC0B0F
:100FE0007B018C01C601B5010E94FC0B9B01AC0189
:100FF000C801B7010E941C0664E670E080E090E042
:101000000E948D0ADF91CF911F910F91FF90EF9079
:10101000DF90CF90BF90AF9008950E94B70A0E94D2
:10102000C5050E946707FDCF1F920F920FB60F9262
:1010300011242F933F934F935F936F937F938F93DD
:101040009F93AF93BF93EF93FF934091C600E091BE
:101050002102F0912202CF01019660E870E00E9427
:10106000A70C9C0180912302909124022817390734
:1010700039F0EF55FE4F4083309322022093210236
:10108000FF91EF91BF91AF919F918F917F916F9160
:101090005F914F913F912F910F900FBE0F901F9036
:1010A0001895AF92BF92CF92DF92EF92FF920F937B
:1010B0001F93CF93DF936C017A018B01DC011496AF
:1010C000AD90BC901597CB01BA0122E030E040E032
:1010D00050E00E94DC0C205C3D4B404F5F4FCA014A
:1010E000B901A80197010E94DC0CC901DA0101973E
:1010F000A109B109292F3A2F4B2F552747FD5A95A2
:101100000196A11DB11DE5012883E601EE81FF8155
:1011100081508083EA85FB85208141E050E0CA014F
:101120000E8402C0880F991F0A94E2F7282B2083AF
:10113000EA85FB852081CA010F8402C0880F991FB0
:101140000A94E2F7282B2083EA85FB8580810888B2
:1011500002C0440F551F0A94E2F7842B8083DF916D
:10116000CF911F910F91FF90EF90DF90CF90BF90A4
:10117000AF900895FC01A085B18521898C9190E004
:10118000022E02C0959587950A94E2F780FFF6CF6C
:101190000484F585E02D6083089581E891E09093C3
:1011A00026028093250281EA91E0909328028093A1
:1011B000270285EC90E090932A028093290284EC28
:1011C00090E090932C0280932B0280EC90E090931F
:1011D0002E0280932D0281EC90E090933002809358
:1011E0002F0286EC90E0909332028093310284E0EB
:1011F0008093330283E08093340287E0809335024A
:1012000085E08093360208950F931F93CF93DF9369
:101210008C01EB0109C02196D801ED91FC91019060
:10122000F081E02DC801099568816623A1F7DF915F
:10123000CF911F910F9108950F931F938C01DC01A3
:10124000ED91FC910190F081E02D6DE00995D801C0
:10125000ED91FC910190F081E02DC8016AE00995C3
:101260001F910F9108950F931F938C010E94040901
:10127000C8010E941C091F910F9108952F923F925F
:101280004F925F926F927F928F929F92AF92BF9296
:10129000CF92DF92EF92FF920F931F93DF93CF9342
:1012A000CDB7DEB7A0970FB6F894DEBF0FBECDBFA7
:1012B0001C016A017B01411551056105710549F465
:1012C000DC01ED91FC910190F081E02D60E3099546
:1012D00054C0882499245401422E5524662477242E
:1012E00001E010E00C0F1D1F080D191DC701B6010C
:1012F000A30192010E94BA0CF80160830894811C3A
:10130000911CA11CB11CC701B601A30192010E944E
:10131000BA0CC901DA016C017D01C114D104E104E8
:10132000F104F1F681E0E82EF12CEC0EFD1EE80C44
:10133000F91C3E010894611C711CD501C401019780
:10134000A109B1096C01C818D90814C0F601EE0D45
:10135000FF1D60816A3010F4605D01C0695CD101DD
:10136000ED91FC910190F081E02DC1010995089467
:10137000E108F1086E147F0449F7A0960FB6F894BF
:10138000DEBF0FBECDBFCF91DF911F910F91FF90B8
:10139000EF90DF90CF90BF90AF909F908F907F9015
:1013A0006F905F904F903F902F900895EF92FF9233
:1013B0000F931F93CF93DF93EC017A018B0177FF9B
:1013C0000FC0E881F9810190F081E02D6DE209956F
:1013D00010950095F094E094E11CF11C011D111D85
:1013E000CE01B801A7012AE00E943E09DF91CF910A
:1013F0001F910F91FF90EF900895DC0121153105A9
:1014000041F4ED91FC910190F081E02D642F09955C
:1014100008952A30310519F40E94D60908950E94D2
:101420003E0908950F931F938C010E94FD09C80186
:101430000E941C091F910F9108951F920F920FB6E1
:101440000F9211242F938F939F93AF93BF9380910B
:10145000370290913802A0913902B0913A02019678
:10146000A11DB11D8093370290933802A0933902D9
:10147000B0933A0280913B0290913C02A0913D02D0
:10148000B0913E028050904CAF4FBF4F80933B02D3
:1014900090933C02A0933D02B0933E0227C08091FE
:1014A0003B0290913C02A0913D02B0913E028058D7
:1014B0009E43A040B04080933B0290933C02A09397
:1014C0003D02B0933E0280913F0290914002A09174
:1014D0004102B09142020196A11DB11D80933F02CD
:1014E00090934002A0934102B093420280913B024C
:1014F00090913C02A0913D02B0913E0281589E43E2
:10150000A040B04060F6BF91AF919F918F912F9115
:101510000F900FBE0F901F901895EF92FF920F93B0
:101520001F937B018C018FB7F89440913F0250913B
:10153000400260914102709142028FBF2FB7F89430
:1015400080913F0290914002A0914102B0914202ED
:101550002FBF841B950BA60BB70BE816F9060A07DD
:101560001B0760F71F910F91FF90EF9008957894FB
:1015700084B5826084BD84B5816084BD85B5826098
:1015800085BD85B5816085BDEEE6F0E08081816036
:101590008083E1E8F0E080818260808380818160E7
:1015A0008083E0E8F0E0808181608083E1EBF0E01F
:1015B000808184608083E0EBF0E0808181608083C3
:1015C000EAE7F0E0808184608083808182608083AC
:1015D0008081816080838081806880831092C100D7
:1015E0000895877090917C019295990F990F907C46
:1015F000982B90937C0080917A00806480937A008D
:1016000080917A0086FDFCCF20917800409179008E
:10161000942F80E030E0282B392BC9010895282F22
:1016200030E0C90186569F4FFC0194912A573F4FE5
:10163000F9018491882391F0E82FF0E0EE0FFF1F6D
:10164000E859FF4FA591B491662329F48C919095A8
:1016500089238C9308958C91892B8C930895482F1E
:1016600050E0CA0182559F4FFC012491CA01865661
:101670009F4FFC0194914A575F4FFA0134913323F5
:10168000D1F1222331F1233021F4809180008F7732
:1016900005C0243031F4809180008F7D80938000DC
:1016A00018C0213019F484B58F7704C0223021F49A
:1016B00084B58F7D84BD0DC0263021F48091B000AB
:1016C0008F7705C0273029F48091B0008F7D8093FB
:1016D000B000E32FF0E0EE0FFF1FEE58FF4FA59193
:1016E000B491662329F48C91909589238C93089565
:1016F0008C91892B8C9308952F923F924F925F92F9
:101700006F927F928F929F92AF92BF92CF92DF9211
:10171000EF92FF920F931F93DF93CF93CDB7DEB776
:101720003B014C0119012A016D897E898F89988DB1
:101730006A197B098C099D09621A730A840A950A41
:10174000A40193010E94880CE218F308040915090A
:10175000A80197010E94DC0C2A0D3B1D4C1D5D1D4C
:10176000B901CA01CF91DF911F910F91FF90EF90C6
:10177000DF90CF90BF90AF909F908F907F906F90B1
:101780005F904F903F902F90089571D008F481E0C2
:10179000089504D06894B111B1C0089594D088F030
:1017A0009F5790F0B92F9927B751A0F0D1F0660F4D
:1017B000771F881F991F1AF0BA95C9F712C0B13068
:1017C00081F09BD0B1E0089598C0672F782F8827CB
:1017D000B85F39F0B93FCCF3869577956795B395A7
:1017E000D9F73EF490958095709561957F4F8F4F16
:1017F0009F4F0895E89409C097FB3EF4909580951B
:10180000709561957F4F8F4F9F4F9923A9F0F92FC6
:1018100096E9BB279395F695879577956795B79544
:10182000F111F8CFFAF4BB0F11F460FF1BC06F5F2A
:101830007F4F8F4F9F4F16C0882311F096E911C03C
:10184000772321F09EE8872F762F05C0662371F05D
:1018500096E8862F70E060E02AF09A95660F771F71
:10186000881FDAF7880F9695879597F90895990F4D
:101870000008550FAA0BE0E8FEEF16161706E8075A
:10188000F907C0F012161306E407F50798F0621B7B
:10189000730B840B950B39F40A2661F0232B242B50
:1018A000252B21F408950A2609F4A140A6958FEF6F
:1018B000811D811D089557FD9058440F551F59F003
:1018C0005F3F71F04795880F97FB991F61F09F3F2D
:1018D00079F087950895121613061406551FF2CF56
:1018E0004695F1DF08C0161617061806991FF1CFA6
:1018F00086957105610508940895E894BB276627CD
:101900007727CB0197F90895B2DF08F48FEF089598
:10191000629FD001739FF001829FE00DF11D649FD3
:10192000E00DF11D929FF00D839FF00D749FF00D5F
:10193000659FF00D9927729FB00DE11DF91F639F00
:10194000B00DE11DF91FBD01CF011124089597FBD2
:10195000092E07260AD077FD04D049D006D00020F2
:101960001AF4709561957F4F0895F6F790958195DB
:101970009F4F0895A1E21A2EAA1BBB1BFD010DC0AB
:10198000AA1FBB1FEE1FFF1FA217B307E407F5072F
:1019900020F0A21BB30BE40BF50B661F771F881F0B
:1019A000991F1A9469F760957095809590959B01A1
:1019B000AC01BD01CF01089597FB092E05260ED07D
:1019C00057FD04D0D7DF0AD0001C38F4509540955D
:1019D000309521953F4F4F4F5F4F0895F6F7909503
:1019E0008095709561957F4F8F4F9F4F0895AA1BEB
:1019F000BB1B51E107C0AA1FBB1FA617B70710F0FA
:101A0000A61BB70B881F991F5A95A9F7809590952B
:101A1000BC01CD010895EE0FFF1F0590F491E02D5C
:061A20000994F894FFCFC9
:101A260043616C6C20426C696E6B4D5F62656769E1
:101A36006E57697468506F77657228290072633D26
:101A46000053544152545550004164647265737397
:101A56003A20004368616E67652042726967746860
:101A66006E657373206F6E6C7920746F20005365FA
:101A7600742048756520262053617420746F2000F9
:101A8600485342207B0020007D002C0020004702A6
:101A960000000900FF000000FF0000000100000038
:041AA60000BA08007A
:00000001FF
