:100000000C94E0000C9408010C9408010C94080175
:100010000C9408010C9408010C9408010C9408013C
:100020000C9408010C9408010C9408010C9408012C
:100030000C9408010C9408010C9408010C9408011C
:100040000C9484120C9408010C9408010C9408017F
:100050000C9408010C9408010C9408010C940801FC
:100060000C9414080C9408010000000024002700E0
:100070002A0000000000250028002B0000000000DE
:1000800023002600290004040404040404040202DA
:100090000202020203030303030301020408102007
:1000A0004080010204081020010204081020000012
:1000B0000007000201000003040600000000000029
:1000C000000000407A10F35A00A0724E1809001088
:1000D000A5D4E80000E87648170000E40B540200BD
:1000E00000CA9A3B000000E1F505000080969800E8
:1000F000000040420F000000A08601000000102711
:1001000000000000E80300000000640000000000A0
:100110000A00000000000100000000002C76D888D2
:10012000DC674F0823DFC1DFAE59E1B1B796E5E3E5
:10013000E453C63AE651997696E8E6C28426EB89FE
:100140008C9B62ED407C6FFCEFBC9C9F40F2BAA59B
:100150006FA5F490055A2AF75C936B6CF9676DC133
:100160001BFCE0E40D47FEF520E6B500D0ED902E37
:100170000300943577050080841E080000204E0A95
:10018000000000C80C333333330F986E12831141D3
:10019000EF8D2114893BE65516CFFEE6DB18D1849E
:1001A0004B381BF77C1D901DA4BBE42420328472C5
:1001B0005E228100C9F124ECA1E53D270D07C709A6
:1001C00011241FBECFEFD8E0DEBFCDBF14E0A0E00A
:1001D000B1E0E8E1FEE202C005900D92A437B1075C
:1001E000D9F714E0A4E7B4E001C01D92A73BB10722
:1001F000E1F711E0C0ECD1E004C02297FE010E94BB
:10020000CF16CC3BD107C9F70E947D120C940A1778
:100210000C9400000F931F93CF93DF93689F80018E
:10022000699F100D789F100D1124C8010E9447018D
:10023000EC01009729F060E070E0A8010E94AA029A
:10024000CE01DF91CF911F910F910895EF92FF9210
:100250000F931F93F22FF02E47FD02C0E4E001C080
:10026000E4E1242F332727FD309537FF03C0309575
:1002700021953F4F4F2D512F0F2FEE2E0E94C3027D
:100280008F2D912F1F910F91FF90EF900895CF9395
:10029000DF93BC018230910510F462E070E0A09120
:1002A000B504B091B604ED01E0E0F0E040E050E0CC
:1002B00021C0888199818617970769F48A819B817B
:1002C000309719F09383828304C09093B60480938F
:1002D000B504FE0134C06817790738F4411551059B
:1002E00019F08417950708F4AC01FE018A819B81FF
:1002F0009C01E9012097E9F641155105A9F1CA01D0
:10030000861B970B049708F4BA01E0E0F0E02AC0DE
:100310008D919C91119784179507F9F464177507CF
:1003200081F412968D919C911397309719F09383D5
:10033000828304C09093B6048093B504FD01329685
:100340004CC0CA01861B970BFD01E80FF91F619392
:10035000719302978D939C9340C0FD01828193819C
:100360009C01D9011097A1F68091B3049091B40437
:10037000892B41F48091590290915A029093B404D0
:100380008093B30440915B0250915C02411551058A
:1003900041F44DB75EB78091570290915802481BC7
:1003A000590B2091B3043091B404CA01821B930B02
:1003B0008617970780F0AB014E5F5F4F8417950754
:1003C00050F0420F531F5093B4044093B304F9010B
:1003D0006193719302C0E0E0F0E0CF01DF91CF9133
:1003E0000895CF93DF93009709F450C0EC01229752
:1003F0001B821A82A091B504B091B604109709F13E
:1004000040E050E0AC17BD0708F1BB83AA83FE01B2
:1004100021913191E20FF31FAE17BF0779F48D914F
:100420009C911197280F391F2E5F3F4F39832883E6
:1004300012968D919C9113979B838A834115510548
:1004400071F4D093B604C093B50420C012968D9178
:100450009C911397AD01009711F0DC01D3CFFA0105
:10046000D383C28321913191E20FF31FCE17DF07AF
:1004700069F488819981280F391F2E5F3F4FFA0157
:10048000318320838A819B8193838283DF91CF9103
:100490000895A0E0B0E0EFE4F2E00C94DB16EC018C
:1004A000A880B980CA80DB80A114B104C104D10442
:1004B00041F484E2A82E89EDB82E8BE5C82E87E0A2
:1004C000D82EC601B5012DE133EF41E050E00E9486
:1004D0009E1627EA31E440E050E00E944A167B0174
:1004E0008C01C601B5012DE133EF41E050E00E94DF
:1004F0009E16CA01B9012CEE34EF4FEF5FEF0E9458
:100500004A166E0D7F1D801F911F97FF04C061501A
:10051000704080409048688379838A839B839B01E5
:10052000AC015F77B901CA01CDB7DEB7EAE00C9440
:10053000F7160E94490208958DE592E00E94490253
:10054000089560935D0270935E0280935F029093C2
:1005500060020895DC0101C06D9341505040E0F706
:100560000895FB01DC010D900020E9F7119701903F
:100570000D920020E1F70895FB01DC0101900D923E
:100580000020E1F70895A9E0B0E0E9ECF2E00C9476
:10059000D7166A01122FA02EBE2C2BE3201718F4B9
:1005A0002CE3922E02C0902E9394AE014F5F5F4FCA
:1005B00027E0092D0E942504BC018981E82EFF2433
:1005C000C70189709070019711F4ADE209C0B1FEC6
:1005D00002C0ABE205C0B0FC02C0A0E001C0A0E2D6
:1005E000E3FE3BC0AA2311F423E001C024E021175D
:1005F00010F020E002C0121B212FEB2CB4FE02C031
:10060000322F0AC0F601322F80E202C081933150AE
:100610003323E1F7C20ED11CAA2319F0F601A193EE
:100620006F01F6013196E2FE05C09EE4D6019C936F
:1006300081E404C09EE6D6019C9381E611968C93DA
:1006400091833296DF01832F90E202C09D93815007
:100650008823E1F7E30FF11D40C0E2FE42C0AA2368
:1006600011F423E001C024E0211710F020E002C0C3
:10067000121B212FEB2CB4FE02C0922F0AC0F601F0
:10068000922F80E202C0819391509923E1F7C20E2C
:10069000D11CAA2319F0F601A1936F01F60131963E
:1006A000E2FE08C089E4D6018C938EE411968C9307
:1006B00086E407C089E6D6018C938EE611968C936A
:1006C00086E681833296DF01892F20E202C02D93D6
:1006D00081508823E1F7E90FF11D10822EEF3FEFE3
:1006E000AFC0161617061CF041E050E003C0AB0186
:1006F0004F5F5F4FAA2019F480E090E003C08A2D7D
:1007000090E0019620E030E0AA2311F021E030E0F3
:10071000240F351F280F391F812F90E02817390724
:1007200014F020E002C0121B212F4B2D50E0CA0113
:1007300080719070B4FC0DC0B3FC0BC0F601322F79
:1007400040E202C0419331503323E1F7C20ED11C85
:1007500001C0322FAA2319F0F601A1936F01892B52
:1007600011F0132F0AC0F601132F80E302C081930A
:1007700011501123E1F7C30ED11C092D060FBA80C9
:1007800090E1892E912C8E209F20E4FE04C0F1E39D
:10079000BF1609F40150101614F001E003C009302F
:1007A00008F008E09B0177FF02C020E030E0CB01B9
:1007B0000196821B930BFE013196E80FF91F8EE222
:1007C000F82E3B01601A71088A2D90E044275527C6
:1007D000481B590B8FEF2F3F380719F4D601FD92B4
:1007E0006D01621773072CF06216730614F4808192
:1007F00001C080E32150304031962417350724F0A2
:10080000D6018D936D01E6CF2617370749F4B5E37E
:10081000BB1528F0BB1621F48114910409F481E37F
:10082000F6018193D601812F90E202C09C93815002
:1008300011968823D9F7E10FF11D108220E030E0F6
:10084000C9012996EEE00C94F316283008F027E051
:100850003327DA01990F311D87FD916000966105FC
:10086000710539F432602E5F3D9330E32A95E1F74C
:1008700008959F3F30F080387105610509F03C5FB5
:100880003C5F3D93913008F08068911DDF93CF93DA
:100890001F930F93FF92EF92192F987F9695E92F50
:1008A00096959695E90FFF27E45EFE4F992733272B
:1008B000EE24FF24A701E70105900894079428F48B
:1008C000360FE71EF81E491F511D660F771F881F40
:1008D000991F0694A1F70590079428F4E70EF81ED7
:1008E000491F561FC11D770F881F991F661F069449
:1008F000A1F70590079428F4F80E491F561FC71F4B
:10090000D11D880F991F661F771F0694A1F70590C8
:10091000079420F4490F561FC71FD81F990F661F51
:10092000771F881F0694A9F784911095177041F0DE
:10093000D695C79557954795F794E7941A95C1F7BB
:10094000E2ECF0E0689415901591359165919591E0
:1009500005907FE27395E118F10A430B560BC90B22
:10096000D009C0F7E10CF11E431F561FC91FD01D4F
:100970007EF4703311F48A95E6CFE894015030F09C
:10098000080F0AF40027021708F4202F2395022FDE
:100990007A3328F079E37D932A95E9F710C07D93A7
:1009A0002A9589F606949795679537951795179424
:1009B000E118F10A430B560BC90BD00998F02395A7
:1009C0007E9173957A3308F070E37C932013B8F727
:1009D0007E9170617D9330F0839571E37D9370E338
:1009E0002A95E1F71124EF90FF900F911F91CF917D
:1009F000DF91992787FD90950895F999FECF72BDF3
:100A000061BDF89A80B50895F999FECF1FBA72BDFD
:100A100061BD40BD0FB6F894FA9AF99A0FBE0895D9
:100A20007093700260936F02615070406230710584
:100A300030F081E090E09093700280936F0208950F
:100A40008091650260E00E940B1481E090E00E94BA
:100A50002C138091650261E00E940B1481E090E00C
:100A60000E942C138091650260E00E940B1461E0EB
:100A700070E080E090E00E9402130895EF92FF92F0
:100A80000F931F93CF93DF937C018B010F70107036
:100A9000C7E6D2E0602F617088810E940B14159523
:100AA0000795229682E0CF36D807A1F7C7010E94AA
:100AB0002005DF91CF911F910F91FF90EF90089546
:100AC000EF92FF920F931F938C017B0194E0759539
:100AD00067959A95E1F7C8010E943E058FE0E822EC
:100AE000FF24C801B7010E943E051F910F91FF909E
:100AF000EF9008950F931F93CF93DF93EC018B0139
:100B00008091610260E00E940B14809175049091C5
:100B10007604892B29F08091630260E00E940B1417
:100B2000CE01B8010E943E05DF91CF911F910F9138
:100B300008950F931F93CF93DF93EC018B01809166
:100B4000610261E00E940B1480917504909176041B
:100B5000892B29F08091630260E00E940B14CE0182
:100B6000B8010E946005DF91CF911F910F91089508
:100B7000CF92DF92FF920F931F93CF93DF936C017D
:100B80008B01FF240AC0C00FD11F6881772767FD42
:100B90007095C6010E949905F394CF2DD0E0F8011D
:100BA00001900020E9F73197E01BF10BCE17DF072A
:100BB00050F3DF91CF911F910F91FF90DF90CF9075
:100BC00008950F931F93CF93DF93EC018B018091D6
:100BD000610260E00E940B1480917504909176048C
:100BE000892B29F08091630260E00E940B14CE01F2
:100BF000B8010E946005DF91CF911F910F91089578
:100C0000AF92BF92CF92DF92EF92FF920F931F931A
:100C1000CF93DF935C016B01C0E0D0E07A01002745
:100C2000F7FC0095102F0AC0C50168E170E00E9432
:100C3000E105C801B7010E9402132196CC15DD051C
:100C40009CF3DF91CF911F910F91FF90EF90DF9078
:100C5000CF90BF90AF900895EF92FF920F931F93A4
:100C6000CF93DF937C01EB018A0162E070E00E9488
:100C7000E10580916F0290917002019721F0229717
:100C800011F4085D1F4FC0E0D0E006C0C70164E169
:100C900070E00E94E1052196C017D107BCF3DF91F7
:100CA000CF911F910F91FF90EF900895CF93DF9315
:100CB000EC018091650261E00E94EB13809161027A
:100CC00061E00E94EB138091750490917604892B6A
:100CD00029F08091630261E00E94EB13809167022A
:100CE00061E00E94EB138091690261E00E94EB13C6
:100CF00080916B0261E00E94EB1380916D0261E0D4
:100D00000E94EB1362E370E080E090E00E94021327
:100D1000CE0163E070E00E947A0565E070E080E05B
:100D200090E00E940213CE0163E070E00E947A0519
:100D300084E690E00E942C13CE0163E070E00E94F4
:100D40007A0565E070E080E090E00E940213CE0139
:100D500062E070E00E947A05CE0162E070E00E94DD
:100D60007A0560916F02709170026150704023E0CB
:100D7000660F771F2A95E1F7CE010E947A058CE372
:100D800090E00E942C13CE016CE070E00E94E1051F
:100D90008CE390E00E942C13CE0161E070E00E9491
:100DA000E10563E070E080E090E00E940213CE0174
:100DB00066E070E00E94E10561E070E080E090E0B4
:100DC0000E940213DF91CF91089561E070E00E94CC
:100DD000E10561E070E080E090E00E940213089578
:100DE00081E08093800460937B0410927E041092D3
:100DF0007F0408959091790480917A04981710F0F7
:100E000080E00895E0917704F0917804E90FF11DF6
:100E100080819F5F9093790408950895DF93CF9325
:100E20000F92CDB7DEB76983809180048823A9F043
:100E300080917F048032B0F480917E04E0917C0444
:100E4000F0917D04E80FF11D608380917E048F5F37
:100E500080937E0480937F0405C0CE01019661E0FB
:100E60000E94F7070F90CF91DF9108950E940E071F
:100E7000089560917C0470917D0480917B04409181
:100E80007F0421E00E94B20710927E0410927F043A
:100E9000109280040895862F6091770470917804F1
:100EA000413208F040E20E947C071092790480935E
:100EB0007A0408950E944B07089580E290E061E073
:100EC00070E00E940A018093770490937804109256
:100ED000790410927A0480E290E061E070E00E9470
:100EE0000A0180937C0490937D0410927E041092FA
:100EF0007F040E9496090895982F413210F040E037
:100F00002FC0809182048823E1F781E080938204DE
:100F10008FEF8093930410928A0440938B04990F6F
:100F200091609093830485EE8093BC00809182044D
:100F30008130E1F380918A04841710F440918A048F
:100F4000A0918804B091890420E030E007C0FB0143
:100F5000E20FF31F8D9180832F5F3F4F2417B8F36B
:100F6000842F08951F93582F122F413210F081E0E3
:100F70003CC0809182048823E1F782E08093820460
:100F80008FEF8093930410928A0440938B04A09176
:100F90008804B0918904FB0102C081918D938E2F4A
:100FA000861B8417D0F3852F90E0880F991F8093BC
:100FB000830485EE8093BC00112321F0809182048C
:100FC0008230E1F3809193048F3F11F480E00DC0F3
:100FD00080919304803211F482E007C080919304E1
:100FE000803311F084E001C083E01F910895482F01
:100FF000613210F081E0089580918204843011F014
:1010000082E0089560938F04A0918C04B0918D04C8
:10101000842F9C01F90102C081918D938E2F841B36
:101020008617D0F380E008951F920F920FB60F92AB
:1010300011242F933F934F935F936F937F938F93DD
:101040009F93AF93BF93EF93FF938091B90090E08C
:10105000887F90708036910509F4E2C08136910551
:10106000CCF58832910509F47BC089329105B4F43E
:101070008031910509F46FC0813191053CF40097EE
:1010800009F438C1089709F040C165C0883191055D
:1010900009F466C0809709F038C17FC0803491059B
:1010A00009F4A3C08134910544F48033910509F417
:1010B0007FC0C89709F029C186C08035910509F421
:1010C00086C08835910509F495C08834910509F0EA
:1010D0001CC19EC08839910509F404C18939910564
:1010E000ECF48837910509F49BC0893791054CF4DD
:1010F0008836910509F494C08037910509F005C13F
:101100008FC08838910509F4EDC08039910509F444
:101110008DC08038910509F0F8C088C0803B9105EA
:1011200009F4B2C0813B91054CF4803A910509F471
:1011300091C0883A910509F0E8C0A6C0803C9105AD
:1011400009F4D4C0883C910509F4D0C0883B9105CE
:1011500009F0DBC0B1C0809183048093BB00C0C0A4
:1011600090918A0480918B04981778F490918A0466
:10117000E0918804F0918904E90FF11D808180934A
:10118000BB009F5F90938A04ABC085ED8093BC0049
:101190008091BC0084FDFCCFB6C080E280939304B4
:1011A00085ED8093BC008091BC0084FDFCCFABC07A
:1011B00080E38093930485ED8093BC008091BC0014
:1011C00084FDFCCFA0C088E3809393048FC08091FE
:1011D0008A049091BB00E0918804F0918904E80FA3
:1011E000F11D90838F5F80938A0490918A0480918F
:1011F0008B0474C080918A049091BB00E0918804B4
:10120000F0918904E80FF11D90838F5F80938A0429
:1012100085ED8093BC008091BC0084FDFCCF73C041
:1012200083E080938204109292045AC080919204C9
:10123000803208F057C0809192049091BB00E091F9
:101240009004F0919104E80FF11D90838F5F8093DB
:10125000920446C080919204803248F480919204B6
:10126000E0919004F0919104E80FF11D10826091DB
:101270009204E0918604F09187048091900490910B
:10128000910470E0099532C084E08093820410924A
:101290008E0410928F04E0918404F09185040995E6
:1012A00080918F04882341F481E080938F04E09142
:1012B0008C04F0918D04108290918E04E0918C0446
:1012C000F0918D04E90FF11D80818093BB009F5F39
:1012D00090938E0490918E0480918F04981710F44F
:1012E00085EC01C085E88093BC000FC085EC80933D
:1012F000BC0009C01092930485ED8093BC008091DE
:10130000BC0084FDFCCF10928204FF91EF91BF914D
:10131000AF919F918F917F916F915F914F913F918D
:101320002F910F900FBE0F901F901895109282046E
:10133000449A459AE9EBF0E080818E7F808380813A
:101340008D7F808388E48093B80085E48093BC001F
:1013500080E290E061E070E00E940A0180938804DE
:101360009093890480E290E061E070E00E940A01BD
:1013700080938C0490938D0480E290E061E070E0B3
:101380000E940A018093900490939104089586E945
:1013900094E062E070E00E94100508950F931F939F
:1013A00006E914E0C80161E070E040E050E00E940E
:1013B0002C06C80160E071E00E94B805C80162E037
:1013C00070E040E050E00E942C06C80161E171E04D
:1013D0000E94B8051F910F9108950F931F9306E97E
:1013E00014E0C80161E070E040E050E00E942C068B
:1013F000C80162E271E00E94B805C80162E070E0D5
:1014000040E050E00E942C06C80163E371E00E94B6
:10141000B8051F910F9108951F93FC01938180914E
:101420007104891709F461C080917204813001F55B
:1014300020919C0430E0892F90E0019702C03595FF
:1014400027958A95E2F720FF13C08091970488239F
:1014500079F4928180919D04981751F49181809143
:101460009E04981729F485E08093970411E03EC00C
:10147000809197048823C9F10E94F4122091980466
:101480003091990440919A0450919B04621B730B14
:10149000840B950B61567A4E8040904030F10E944B
:1014A000F41210E0209198043091990440919A042C
:1014B00050919B04621B730B840B950B20E63AEE54
:1014C00040E050E00E947C16CA01B90125E030E0FE
:1014D00040E050E00E947C16611571058105910580
:1014E00009F011E081E0182701C010E0812F1F9161
:1014F0000895CF93DF93CFEFD0E089E0BE010E9443
:10150000921369E170E080E090E00E9402132F974F
:10151000A1F789E060E070E00E949213DF91CF9123
:10152000089510929F040E94790A81E08093A40498
:101530000895CF93DF93C0E0D0E089E0BE010E9420
:10154000921369E170E080E090E00E9402132F9610
:1015500081E0CE30D80789F7DF91CF910895EF92DF
:10156000FF920F931F93CF93DF93C0E0D0E09FEFE4
:10157000E92EF12CCE01817090708E9D80018F9D9F
:10158000100D9E9D100D11248AE0B8010E94921347
:101590008BE0B8010E94921362E370E080E090E07B
:1015A0000E9402132196C131D10521F78AE060E043
:1015B00070E00E9492138BE060E070E00E94921352
:1015C000DF91CF911F910F91FF90EF900895EF92CF
:1015D000FF920F931F937C0104E714E0492F5527D6
:1015E00047FD5A95C80163E070E00E940405C801F8
:1015F00064E070E04E2D0E9404051F910F91FF9052
:10160000EF9008958091A5049091A6040E94E70AA6
:10161000089584E794E065E070E0409172040E94D0
:1016200004050895EF92FF920F931F9304E714E0CF
:10163000C80160E070E00E94FD0480939C04C80132
:1016400061E070E00E94FD0480939D04C80162E0A7
:1016500070E00E94FD0480939E04C80163E070E086
:101660000E94FD04F82EEE24F092A604E092A50458
:10167000C80164E070E00E94FD0490E0E82AF92AC5
:10168000F092A604E092A504C80165E070E00E9413
:10169000FD04809372041F910F91FF90EF900895C5
:1016A0008F929F92AF92BF92CF92DF92EF92FF9272
:1016B0000F931F93DF93CF9300D000D00F92CDB73D
:1016C000DEB7982E892E7B015A0101E814E0C8018B
:1016D00068E670E00E94F006C80160E070E00E94D9
:1016E0003607C8010E943907C80168E670E047E084
:1016F00050E00E945A07C8010E94FA06282F2F774F
:1017000022952F704AE0D42E2D9D900111248F70C8
:10171000820FF7018083C8010E94FA06282F2295C4
:101720002F702D9D900111248F70820FF7018183FE
:10173000C8010E94FA06282F2F7322952F702D9D25
:10174000900111248F70820FF7018283C8010E94DB
:10175000FA06282F22952F702D9D900111248F704D
:10176000820FF7018383C8010E94FA06282F229571
:101770002F702D9D900111248F70820FF7018483AB
:10178000C8010E94FA06282F22952F702D9D9001E6
:1017900011248F70820FF7018583C8010E94FA0619
:1017A000282F22952F702D9D900111248F70820F6C
:1017B000F70186838181A80EB11CC5016CE370E03E
:1017C0000E946916CB012281820F911D68E170E0B1
:1017D0000E9469168283C5016CE370E00E9469165D
:1017E0008183892D982D64E471E00E94BC02F70189
:1017F000628170E080E090E00E94351542E020E0D8
:101800006E010894C11CD11C86010E942601BC01F6
:10181000892D982D0E94B10239E4A32E31E0B32E18
:10182000892D982DB5010E94B102F701618170E008
:1018300080E090E00E94351542E020E00E94260101
:10184000BC01892D982D0E94B102892D982DB501DA
:101850000E94B102F701608170E080E090E00E9498
:10186000351542E020E00E942601BC01892D982D0B
:101870000E94B102892D982D0F900F900F900F901C
:101880000F90CF91DF911F910F91FF90EF90DF901C
:10189000CF90BF90AF909F908F900895AF92BF92DE
:1018A000CF92DF92EF92FF920F931F93DF93CF932C
:1018B000CDB7DEB765970FB6F894DEBF0FBECDBFCC
:1018C00066E9C62E64E0D62EC6010E94E50668EEE3
:1018D00073E080E090E00E9402130E94990A0E9447
:1018E000ED0968EE73E080E090E00E940213C6010B
:1018F00060E170E042E350E00E94000656E0E52E11
:10190000F12CEC0EFD1EC7016BE471E00E94BC02DD
:1019100060919D0470E080E090E00E94351542E007
:1019200020E05E010894A11CB11C85010E942601E3
:10193000BC01C7010E94B102C70169E471E00E94C5
:10194000B10260919E0470E080E090E00E94351545
:1019500042E020E00E942601BC01C7010E94B102C2
:10196000C60162E571E00E94B805C60162E070E060
:1019700040E050E00E942C06C601B7010E94B80565
:1019800068EE73E080E090E00E940213C60160E11F
:1019900070E042E350E00E9400060E94CE090E94DF
:1019A000790A65960FB6F894DEBF0FBECDBFCF9112
:1019B000DF911F910F91FF90EF90DF90CF90BF903C
:1019C000AF9008952F923F925F926F927F928F9285
:1019D0009F92AF92BF92CF92DF92EF92FF920F93BE
:1019E0001F93CF93DF936B017C018A01522E20E07D
:1019F00030E040E050E00E9498143801882477FCE1
:101A00008094982C882329F4C401B3010E94021306
:101A100051C0852D61E00E94EB1360E070E080E82A
:101A20009FE3A70196010E949C1420E034E244E762
:101A300059E40E94E7155B016C0120E030E040E0D2
:101A40005FE30E94E7150E9404157B018C0179EF8A
:101A5000272E7FEF372E2E0C3F1CC401B3010E94AE
:101A6000371520E030E04AE754E40E94E715A6016C
:101A700095010E949C140E9404156B01C0E0D0E007
:101A80008701085010400FC0852D61E00E940B14A3
:101A9000C1010E942C13852D60E00E940B14C80127
:101AA0000E942C132196CC15DD0574F3852D60E082
:101AB0000E94EB13DF91CF911F910F91FF90EF9058
:101AC000DF90CF90BF90AF909F908F907F906F905E
:101AD0005F903F902F900895EF92FF920F931F9386
:101AE000CF93DF938C017B0181E161E00E94EB13D6
:101AF0008FE061E00E94EB1381E160E00E940B1433
:101B00008FE061E00E940B1480E160E00E940B1402
:101B10008EE060E00E940B1480E160E00E94EB1315
:101B20008EE060E00E94EB136AE070E080E090E0FD
:101B30000E94021382E00E947413EC0180E161E0D4
:101B40000E94EB138EE061E00E94EB1380E160E005
:101B50000E940B148EE061E00E940B1481E160E0B2
:101B60000E940B148FE060E00E940B1481E160E0A2
:101B70000E94EB138FE060E00E94EB136AE070E0DC
:101B800080E090E00E94021383E00E9474139C01A5
:101B9000C630D1058CF08630910574F080919504A3
:101BA000882361F4F801D183C083F7013183208356
:101BB00081E08093950403C01092950480E0DF914A
:101BC000CF911F910F91FF90EF9008953F924F9208
:101BD0005F926F927F928F929F92AF92BF92CF92BD
:101BE000DF92EF92FF920F931F93DF93CF9300D07A
:101BF00000D0CDB7DEB74B01DC010D900020E9F736
:101C00006D010894C108D108C81AD90A7C01AA2418
:101C1000BB2487E0382EB3E04B2E512C4C0E5D1EBA
:101C20003E010894611C711C89C0F70180818032DB
:101C300049F1843671F085362CF48136A1F0823674
:101C400051F413C0863659F086363CF0873619F4C5
:101C500008C091E00BC090E009C092E007C093E09B
:101C600005C094E003C095E001C096E0D70111964D
:101C70008C918153839DF0011124E90FF11DEC3209
:101C8000F1052CF0E0E070E080E060E00EC0EE0FC7
:101C9000FF1FEF58FD4F60817181882777FD809588
:101CA000982F0E943715E62F692FD70112962C9195
:101CB0002433C9F025333CF4223379F0233384F400
:101CC0002133E1F407C02833A1F02337A9F02633EC
:101CD000A9F40CC008EE13E011C004EF11E00EC02F
:101CE0000DE411E00BC00AEF10E008C006EA10E0B6
:101CF00005C00DE710E002C00EE310E02E2F372FD5
:101D0000482F562FB901CA01A80194010E94E20C84
:101D100061E070E080E090E00E940213C301B20134
:101D20000E946C0DE3E0F0E0EE0EFF1E882311F040
:101D300081E009C023E030E0A20EB31EAC14BD0464
:101D40000CF473CF80E00F900F900F900F90CF9115
:101D5000DF911F910F91FF90EF90DF90CF90BF9098
:101D6000AF909F908F907F906F905F904F903F903B
:101D700008950F931F9381E894E00E945D0706E9A0
:101D800014E0C8010E945606C8010E94E50689E0D9
:101D900060E070E00E94921388E061E00E94EB1323
:101DA0000E94120B0E94AF0A0E944E0C89EC92E036
:101DB00068E070E00E94E60D0E94CE091F910F912D
:101DC00008958F929F92AF92BF92CF92DF92EF923F
:101DD000FF920F931F93DF93CF9300D000D00F9209
:101DE000CDB7DEB76C0189E06FEF70E00E9492130F
:101DF00086E994E061E070E040E050E00E942C064B
:101E000086E994E063E671E00E94B80586E994E013
:101E100062E070E040E050E00E942C0686E994E029
:101E200064E771E00E94B8050E94F4127B018C0106
:101E30001D8293E0892E912C8C0E9D1E5E010894CC
:101E4000A11CB11C2BC086E994E061E070E040E089
:101E500050E00E942C0686E994E065E871E00E945B
:101E6000B80586E994E062E070E040E050E00E944E
:101E70002C0686E994E066E971E00E94B80568EEF8
:101E800073E080E090E00E9402130E94F4127B0154
:101E90008C012D812130A1F081E08D830E94F4120C
:101EA0006E197F09800B910B6858734180409040F8
:101EB000A8F5C501B4010E946C0D882379F3C3CF46
:101EC00010929704F60183818093710486E994E06F
:101ED00061E070E040E050E00E942C0686E994E06A
:101EE00067EA71E00E94B80586E994E062E070E07C
:101EF00040E050E00E942C0686E994E068EB71E037
:101F00000E94B80589EC92E068E070E00E94E60D5E
:101F10006CED75E080E090E00E9402130F900F904E
:101F20000F900F900F90CF91DF911F910F91FF9025
:101F3000EF90DF90CF90BF90AF909F908F900895DB
:101F4000CF92DF92EF92FF920F931F93CF93DF9385
:101F50007C010E94F412609398047093990480931A
:101F60009A0490939B0486E994E062E070E040E07C
:101F700050E00E942C0686E994E069EC71E00E9432
:101F8000B8050E94990A0E94AF0A8AE06FEF70E0DC
:101F90000E9492138BE06FEF70E00E94921332E088
:101FA000C32ED12C3EC00E94AF0A8AE06FEF70E0D2
:101FB0000E9492138BE06FEF70E00E949213C0E0DA
:101FC000D0E08E0101701070B601601B710B86E9C4
:101FD00094E040E050E00E942C0686E994E060E046
:101FE00071E00E94B8050F5F1F4F86E994E0B801C9
:101FF00040E050E00E942C0686E994E069EC71E034
:102000000E94B80562E370E080E090E00E94021355
:102010002196C530D105A9F604C0C7010E94E10E82
:1020200040C00E94F412209198043091990440918C
:102030009A0450919B04205A35414F4F5F4F6217CD
:1020400073078407950768F560E070E080E090E032
:1020500024E030E040E050E00E947A14DC01CB0143
:10206000880F991F87599B4FFC018081918168E0FF
:1020700070E00E94E60D882309F495CFCECF815001
:10208000809397040E94790A86E994E00E94E5060D
:10209000DF91CF911F910F91FF90EF90DF90CF9044
:1020A00008958AE060E070E00E9492138BE060E0A7
:1020B00070E00E94921380919704882301F7E0CF8B
:1020C000DF93CF9300D000D0CDB7DEB7CE0101961D
:1020D000BE016D5F7F4F0E946C0D8823A1F0898146
:1020E0009A812B813C81825C91403CF4225C31409E
:1020F00014F08CE308C08EE306C0225C314014F07B
:102100008DE201C08BE20F900F900F900F90CF9156
:10211000DF910895CF92DF92EF92FF920F931F937A
:10212000DF93CF93CDB7DEB765970FB6F894DEBFD8
:102130000FBECDBF86E994E00E94E50686E994E0F3
:1021400061E070E040E050E00E942C0686E994E0F7
:102150006AED71E00E94B80546E0E42EF12CEC0E29
:10216000FD1E6E010894C11CD11CC7016BEE71E00D
:102170000E94BC026091A5047091A604882777FD97
:102180008095982F0E94371543E020E086010E9439
:102190002601BC01C7010E94B10286E994E062E019
:1021A00070E040E050E00E942C0686E994E0B70120
:1021B0000E94B80506C06AE070E080E090E00E94EE
:1021C00002130E9460108823B1F38D3251F08E33D8
:1021D00061F28B3291F48091A5049091A60401964E
:1021E00005C08091A5049091A60401979093A60440
:1021F0008093A5040E94020BB8CF65960FB6F894A1
:10220000DEBF0FBECDBFCF91DF911F910F91FF9029
:10221000EF90DF90CF90089586E994E00E94E50664
:1022200086E994E061E070E040E050E00E942C0616
:1022300086E994E061EF71E00E94B80586E994E0D8
:1022400062E070E040E050E00E942C068091720451
:10225000813029F486E994E062E072E004C086E906
:1022600094E063E172E00E94B80506C06AE070E0A5
:1022700080E090E00E9402130E9460108823B1F376
:102280008D3221F08E33D1F28B3259F490E080916F
:102290007204813009F091E0909372040E94090B5E
:1022A000CDCF0895CF93DF9386E994E00E94E506B1
:1022B0000E94990AC0E0D0E086E994E061E070E015
:1022C00040E050E00E942C0686E994E064E272E06F
:1022D0000E94B805C130D10591F0C230D105E1F0BE
:1022E000209739F586E994E062E070E040E050E044
:1022F0000E942C0686E994E06AED71E026C086E92A
:1023000094E062E070E040E050E00E942C0686E934
:1023100094E065E372E019C086E994E062E070E061
:1023200040E050E00E942C0686E994E061EF71E005
:102330000CC086E994E062E070E040E050E00E946A
:102340002C0686E994E066E472E00E94B80506C0B7
:102350006AE070E080E090E00E9402130E9460104A
:102360008823B1F38D3271F18E3319F08B32B9F5C8
:1023700026C0C130D10541F0C230D10571F020979F
:1023800079F40E948A1098CF0E94ED0960ED77E001
:1023900080E090E00E9402138FCF0E940C118CCF3E
:1023A00086E994E062E070E040E050E00E942C0694
:1023B00086E994E066E472E00E94B80513C0CE019D
:1023C000019607C0209719F480E090E002C0CE018A
:1023D000019763E070E00E946916EC0103C0CD2B09
:1023E00019F068CFD7FF68CF0E94CE09DF91CF9157
:1023F00008950F931F93DF93CF93CDB7DEB76B97FD
:102400000FB6F894DEBF0FBECDBF80919404833128
:1024100018F186E994E061E070E040E050E00E944D
:102420002C064091A5045091A604CE0108968E0179
:102430000F5F1F4FB8010E94500BBC0186E994E06A
:102440000E94B80510929404C8010E940C0A8823C7
:1024500019F0C8010E94A00F80919F048823A9F061
:102460000E94F4122091A0043091A1044091A20492
:102470005091A304621B730B840B950B695B7B402B
:102480008040904010F00E94910A0E9460108823C2
:10249000F1F080919F04882311F40E94990A81E051
:1024A00080939F040E94F4126093A0047093A1048F
:1024B0008093A2049093A3048091A4048F5F8093DF
:1024C000A404843020F00E9452110E94910A80914D
:1024D00094048F5F8093940462E370E080E090E066
:1024E0000E9402136B960FB6F894DEBF0FBECDBFED
:1024F000CF91DF911F910F9108950E943A130E948E
:10250000B90E0E94F911FDCF1F920F920FB60F92D4
:1025100011242F938F939F93AF93BF938091A70420
:102520009091A804A091A904B091AA040196A11DBC
:10253000B11D8093A7049093A804A093A904B0931D
:10254000AA048091AB049091AC04A091AD04B09129
:10255000AE048050904CAF4FBF4F8093AB0490932C
:10256000AC04A093AD04B093AE0427C08091AB043B
:102570009091AC04A091AD04B091AE0480589E43FC
:10258000A040B0408093AB049093AC04A093AD0402
:10259000B093AE048091AF049091B004A091B104C7
:1025A000B091B2040196A11DB11D8093AF04909328
:1025B000B004A093B104B093B2048091AB049091A5
:1025C000AC04A091AD04B091AE0481589E43A040EC
:1025D000B04060F6BF91AF919F918F912F910F9076
:1025E0000FBE0F901F9018958FB7F8942091AF04ED
:1025F0003091B0044091B1045091B2048FBFB90141
:10260000CA010895EF92FF920F931F937B018C01F3
:102610008FB7F8944091AF045091B0046091B10429
:102620007091B2048FBF2FB7F8948091AF0490914E
:10263000B004A091B104B091B2042FBF841B950BDC
:10264000A60BB70BE816F9060A071B0760F71F91E0
:102650000F91FF90EF900895019759F0FC01EE0F54
:10266000FF1FEE0FFF1F32978FB7F8943197F1F7E6
:102670008FBF0895789484B5826084BD84B58160ED
:1026800084BD85B5826085BD85B5816085BDEEE67A
:10269000F0E0808181608083E1E8F0E08081826009
:1026A0008083808181608083E0E8F0E080818160C8
:1026B0008083E1EBF0E0808184608083E0EBF0E0F8
:1026C000808181608083EAE7F0E08081846080839C
:1026D0008081826080838081816080838081806846
:1026E00080831092C1000895877090917304929531
:1026F000990F990F907C982B90937C0080917A0091
:10270000806480937A0080917A0086FDFCCF2091CE
:10271000780040917900942F80E030E0282B392B0D
:10272000C90108951F93CF93DF93182FEB0161E048
:102730000E94EB13E12FF0E0E255FF4F84918330CC
:1027400051F480918000806880938000D09389004C
:10275000C09388003CC0843051F480918000806236
:1027600080938000D0938B00C0938A0030C081306A
:1027700039F4209729F184B5806884BDC7BD27C08E
:10278000823039F42097E1F084B5806284BDC8BD01
:102790001EC0863041F48091B00080688093B00004
:1027A000C093B30014C0873041F48091B0008062C0
:1027B0008093B000C093B4000AC0C038D1051CF4A7
:1027C000812F60E002C0812F61E00E940B14DF9135
:1027D000CF911F910895282F30E0C90186569F4F51
:1027E000FC0194912A573F4FF9018491882391F07D
:1027F000E82FF0E0EE0FFF1FE859FF4FA591B491CD
:10280000662329F48C91909589238C9308958C915B
:10281000892B8C930895482F50E0CA0182559F4F11
:10282000FC012491CA0186569F4FFC0194914A579E
:102830005F4FFA0134913323D1F1222331F1233058
:1028400021F4809180008F7705C0243031F480918D
:1028500080008F7D8093800018C0213019F484B5EA
:102860008F7704C0223021F484B58F7D84BD0DC0E4
:10287000263021F48091B0008F7705C0273029F4ED
:102880008091B0008F7D8093B000E32FF0E0EE0FD9
:10289000FF1FEE58FF4FA591B491662329F48C9148
:1028A000909589238C9308958C91892B8C9308950E
:1028B000EF92FF920F931F937B018C0161157105BD
:1028C0008105910529F420E030E040E050E00BC0A4
:1028D0000E949C02A80197010E949E16AC01CB01A8
:1028E000DA019C01AD01B901CA011F910F91FF905E
:1028F000EF900895EF92FF920F931F937B018C014D
:10290000621773078407950764F4261B370B480B7F
:10291000590BCA01B9010E945814E60EF71E081F90
:10292000191FB701C8011F910F91FF90EF900895F3
:10293000D9D008F481E008950CD00FC107D140F040
:10294000FED030F021F45F3F19F0F0C0511139C1D1
:10295000F3C014D198F39923C9F35523B1F3951B10
:10296000550BBB27AA2762177307840738F09F5FB0
:102970005F4F220F331F441FAA1FA9F333D00E2E1F
:102980003AF0E0E830D091505040E695001CCAF78C
:1029900029D0FE2F27D0660F771F881FBB1F261751
:1029A00037074807AB07B0E809F0BB0B802DBF0124
:1029B000FF2793585F4F2AF09E3F510568F0B6C03D
:1029C00000C15F3FECF3983EDCF386957795679501
:1029D000B795F7959F5FC9F7880F911D96958795D5
:1029E00097F90895E1E0660F771F881FBB1F6217F4
:1029F00073078407BA0720F0621B730B840BBA0BB2
:102A0000EE1F88F7E095089504D06894B111D9C0FD
:102A10000895BCD088F09F5790F0B92F9927B751EF
:102A2000A0F0D1F0660F771F881F991F1AF0BA9592
:102A3000C9F712C0B13081F0C3D0B1E00895C0C071
:102A4000672F782F8827B85F39F0B93FCCF3869588
:102A500077956795B395D9F73EF4909580957095E5
:102A600061957F4F8F4F9F4F0895E89409C097FB62
:102A70003EF490958095709561957F4F8F4F9F4F55
:102A80009923A9F0F92F96E9BB279395F695879599
:102A900077956795B795F111F8CFFAF4BB0F11F45C
:102AA00060FF1BC06F5F7F4F8F4F9F4F16C0882303
:102AB00011F096E911C0772321F09EE8872F762F39
:102AC00005C0662371F096E8862F70E060E02AF07A
:102AD0009A95660F771F881FDAF7880F9695879566
:102AE00097F90895990F0008550FAA0BE0E8FEEF3B
:102AF00016161706E807F907C0F012161306E407C2
:102B0000F50798F0621B730B840B950B39F40A26BA
:102B100061F0232B242B252B21F408950A2609F498
:102B2000A140A6958FEF811D811D089597F99F679C
:102B300080E870E060E008959FEF80EC0895002445
:102B40000A941616170618060906089500240A9412
:102B500012161306140605060895092E0394000C98
:102B600011F4882352F0BB0F40F4BF2B11F460FF27
:102B700004C06F5F7F4F8F4F9F4F089557FD905850
:102B8000440F551F59F05F3F71F04795880F97FB31
:102B9000991F61F09F3F79F08795089512161306EB
:102BA0001406551FF2CF4695F1DF08C0161617061A
:102BB0001806991FF1CF869571056105089408954F
:102BC000E894BB2766277727CB0197F908950BD0A8
:102BD000C4CFB5DF28F0BADF18F0952309F0A6CFEF
:102BE000ABCF1124EECFCADFA0F3959FD1F3950FA1
:102BF00050E0551F629FF001729FBB27F00DB11D81
:102C0000639FAA27F00DB11DAA1F649F6627B00D10
:102C1000A11D661F829F2227B00DA11D621F739FF9
:102C2000B00DA11D621F839FA00D611D221F749F07
:102C30003327A00D611D231F849F600D211D822F4E
:102C4000762F6A2F11249F5750408AF0E1F0882395
:102C50004AF0EE0FFF1FBB1F661F771F881F9150A2
:102C60005040A9F79E3F510570F060CFAACF5F3F5B
:102C7000ECF3983EDCF3869577956795B795F795D5
:102C8000E7959F5FC1F7FE2B880F911D969587955D
:102C900097F90895629FD001739FF001829FE00D24
:102CA000F11D649FE00DF11D929FF00D839FF00DCB
:102CB000749FF00D659FF00D9927729FB00DE11D77
:102CC000F91F639FB00DE11DF91FBD01CF01112454
:102CD000089597FB092E07260AD077FD04D049D026
:102CE00006D000201AF4709561957F4F0895F6F78D
:102CF000909581959F4F0895A1E21A2EAA1BBB1BA8
:102D0000FD010DC0AA1FBB1FEE1FFF1FA217B307B7
:102D1000E407F50720F0A21BB30BE40BF50B661FCD
:102D2000771F881F991F1A9469F760957095809591
:102D300090959B01AC01BD01CF01089597FB092E31
:102D400005260ED057FD04D0D7DF0AD0001C38F47A
:102D500050954095309521953F4F4F4F5F4F0895C7
:102D6000F6F790958095709561957F4F8F4F9F4FA7
:102D70000895AA1BBB1B51E107C0AA1FBB1FA617C2
:102D8000B70710F0A61BB70B881F991F5A95A9F714
:102D900080959095BC01CD010895EE0FFF1F059021
:102DA000F491E02D09942F923F924F925F926F928F
:102DB0007F928F929F92AF92BF92CF92DF92EF92CB
:102DC000FF920F931F93CF93DF93CDB7DEB7CA1B4C
:102DD000DB0B0FB6F894DEBF0FBECDBF09942A8877
:102DE000398848885F846E847D848C849B84AA841F
:102DF000B984C884DF80EE80FD800C811B81AA81AC
:102E0000B981CE0FD11D0FB6F894DEBF0FBECDBF76
:082E1000ED010895F894FFCFD5
:102E180020202020202020202020202020202020AA
:102E2800002020202020285E5F7E2962202020208C
:102E380020002020202061726452657665696C202C
:102E4800202000202020207620302E332E322020F3
:102E58002020200020202020003A002020202020B0
:102E6800200020202057616B652D7570206174202B
:102E7800202000202057616E7420746F2073746FB7
:102E88007020200020202074686520616C61726DBC
:102E9800203F20200020546F7563682061676169B6
:102EA8006E20746F2000202020636F6E6669726D3B
:102EB800202E2E2E20200048617665206120676F25
:102EC8006F642064617921002020202020285E5F23
:102ED8007E292F202020202000202A2A2057414BFD
:102EE8004520555020212A2A2000202061646A7537
:102EF80073742074696D65202020006D696E3A2016
:102F0800002020616C61726D206F6E2F6F666620E5
:102F180020002020616C61726D206973204F4E2063
:102F28002020002020616C61726D206973204F465B
:102F3800462020002020204D454E5520204D4F444E
:102F48004520202000202073686F772076657273F3
:102F5800696F6E202000203F3F3F756E6B6E6F7764
:102F68006E3F3F3F2020002000B704000001000012
:102F78000002000B00030004000500060007000221
:102F880000410049005200570062006E007B008338
:102F9800009300A500AF00C400DC00F7000601267E
:102FA800014A015D018801B801EE010B024B029351
:102FB80002BA0210037003DC03170497042705758F
:102FC800052006E006B8072D082D094D0AEA0A4033
:102FD8000CC00D6F0F5A105B1265353866353867AF
:102FE8003538202034673538006534386534346521
:102FF80034346334386534346734342020326333EE
:103008003220203867323420203865323220203888
:1030180065323420207361333220207362333220CA
:103028002073623334202073613332633334653460
:103038003467343461353466343867353865343448
:103048006334386434386234336334336733342058
:103058002034653232006733326733346233346286
:103068003334613334623334623334673332673331
:10307800346233346233346133346233326233322C
:1030880062333461333467333462333463343462E3
:103098003334633432633434623334673334623301
:1030A80034613332673332673334623334623334F2
:1030B80061333867333862333467333462333262AA
:1030C80033346133386733386233346133346733C8
:1030D80032006534346434346534346434346534EB
:1030E800346233346434346334346133322020320C
:1030F80061333462333220203267333462333463CD
:1031080034320065333267333262333265343262C7
:103118003332673332653332673332623332653480
:103128003262333267333265333267333262333275
:10313800653432623432623534623531623538652D
:10314800343162353463363462353461353462354E
:103158003461353465343162333220203862333299
:10316800653432623332663438202038653432654B
:103178003432623332653331004603C203F303D974
:0431880002FF010140
:00000001FF
