:100000001EC197C237C136C135C134C133C132C1F7
:1000100031C130C12FC12EC12DC12CC12BC12AC16C
:1000200029C128C127C10403090418037200610013
:10003000700068006E00650074002E006E006500A0
:1000400074000A033100300030003000050109055A
:10005000A1010901A10009300931150026FF007531
:100060000895028102C0050919012908150025011A
:10007000750195088102C005010902A1010901A1CC
:100080000005091901290215002501950275018154
:100090000295017506810305010930093115812595
:1000A0007F750895028106C0C012010101000000A1
:1000B000088117970A09010002030105010905A13A
:1000C000010901A10009300931150026FF0075085A
:1000D00095028102C0050919012904150025017541
:1000E0000195048102750195048103C0120101018B
:1000F000000000088117990A0901000203010501A7
:100100000905A1010901A10009300931150026FFE7
:1001100000750895028102C005091901290815001A
:100120002501750195088102C0120101010000003E
:10013000088117960A090101020301120101010059
:1001400000000840177A05090100020301050109B2
:1001500005A1010901A10009300931150026FF00A0
:10016000750895028102C0050919012908150025A5
:1001700001750195088102C005010904A101090169
:10018000A100850109300931150026FF0075089589
:10019000028102050919012908150025017501953B
:1001A000088102C0C005010904A1010901A100855F
:1001B0000209300931150026FF00750895028102F9
:1001C0000509190129081500250175019508810205
:1001D000C0C005010904A1010901A100850309307E
:1001E0000931150026FF00750895028102050919DD
:1001F00001290815002501750195088102C0C00577
:10020000010904A1010901A1008504093009311582
:100210000026FF00750895028102050919012908C9
:1002200015002501750195088102C0C01201010168
:100230000000000881179D0A090100020301112432
:100240001FBECFE5D4E0DEBFCDBF11E0A0E6B0E039
:10025000E4EDFCE102C005900D92A039B107D9F799
:1002600012E0A0E9B1E001C01D92A332B107E1F7AD
:1002700040D32ECDC5CE85B7836085BF8BB7806454
:100280008BBF83EC8093F90108950F931F93CF9355
:10029000DF939091090219160CF0AFC0209106026D
:1002A000809105028D3209F09EC08AE5809361003D
:1002B0009B3009F098C0CCE0D0E0C21BD109C35FED
:1002C000DD4F8881807609F080C01092F701898126
:1002D000882359F41092F80187EF91E09093080277
:1002E0008093070230E822E077C0853021F48A81CC
:1002F00080930A0268C0863009F04AC08B81813041
:1003000009F441C0823019F4CE0176D260C0833046
:1003100069F58A81882349F486E290E09093080287
:100320008093070230EC24E057C0813049F48AE220
:1003300090E0909308028093070230EC28E14CC0D3
:10034000823049F483E690E090930802809307029C
:1003500030E824E241C08330E9F582E490E09093F4
:1003600008028093070230EC2CE036C0813249F459
:1003700083EA91E0909308028093070230EC29E031
:100380002BC0823239F5CE0137D2282F30EC24C071
:10039000883019F48CE092E00AC0893021F48A8117
:1003A00080930C0210C08A3049F487EF91E090935B
:1003B00008028093070230E821E00EC08B3019F468
:1003C00083EC8093F90130E806C0CE0143D2282F98
:1003D00030E802C030EC20E08F81882339F48E8130
:1003E000821728F003C030E880E001C0822F3093EC
:1003F000900180936000109209028091610084FF57
:1004000049C0809160008F3F09F444C0182F8930A3
:1004100008F018E0811B809360008091900180FDBE
:1004200002C00BE401C003EC8F5F80939001209128
:1004300007023091080286FD05C0D901912FEFEE29
:10044000F1E011C0AFEEB1E080E090E006C0F9014C
:10045000E80FF91FE491ED9301961817C1F705C055
:100460008D91819391509923D9F7F901E10FF11DF5
:10047000F0930802E09307028FEE91E0612F55D0D0
:10048000183019F08FEF809360000093EE011C5F2D
:10049000109361009AE080B3857031F49150D9F7E0
:1004A00010920A0210920402DF91CF911F910F91D6
:1004B00008951F93DC01162F8091620084FF0AC00B
:1004C0008091F90198E889278093F901912FEAEF4B
:1004D000F1E007C08AE580936200F8CF8D918193A7
:1004E00091509923D9F78AEF91E0612F1ED01C5FBC
:1004F000109362001F910895A82FB92F8FEF9FEFDF
:1005000041E050EA615070F02D9138E0722F782769
:1005100096958795269570FF02C0842795273A9572
:10052000A9F7F0CF809590950895E6DF8D939D9380
:100530000895CF93CFB7CF93809BFECF809B09C008
:10054000809B07C0809B05C0809B03C0809B01C02F
:100550009EC0DF93C0910602DD27C35FDD4F809B05
:1005600002C0DF91EBCF2F930F931F9300B32FEFB8
:1005700000FB20F94F933F9310B34FEF012700FB8F
:1005800021F93BE031C04E7F012F10B3216028C01C
:10059000102F4D7F2260000000B329C04B7F2460E4
:1005A000012F000010B32BC010B3477F28602AC072
:1005B0004F7E00B320612CC04F7D10B320622FC04E
:1005C0004F7B00B3206432C0422700B349934FEF02
:1005D0000000102710FB20F910B31570A9F1297F36
:1005E00091F2012700FB21F900B3237F89F23150FA
:1005F000F0F1102710FB22F910B3277E79F20127C2
:1006000000FB23F92F7C81F200B3102710FB24F9A3
:100610002F7971F200C010B3012700FB25F92F7369
:1006200059F200C000B3102710FB26F9223040F227
:1006300000C010B3012700FB27F9243028F64F77BC
:10064000206810B30000F9CF3B503195333010E4EF
:100650001ABFB8F0C31BD0400881033C41F10B34F2
:1006600031F11981412F1F7720910402121731F4C3
:10067000093691F10D3279F0013E69F0222720937D
:100680000B023F914F911F910F912F91DF91CF91CD
:10069000CFBFCF91189500930B023F914F911F91BF
:1006A0000F912F91DF91CAB7C6FD46CFF0CF0091D1
:1006B0000B02002331F3109109021123A1F534300C
:1006C000A2F13093090200930502109106023BE06B
:1006D000311B3093060229C00091090201301CF53C
:1006E0000AE547FD09C03091610034FD20C0009348
:1006F0006100CEEED1E01FC03091620034FD17C022
:1007000000936200C9EFD1E016C0052710E002BBDC
:100710001FC0052722C0052727C005272CC0052795
:1007200010E002BB33C04AE503C042ED01C0432FD5
:10073000C4E1D0E032E011B31560909A02B311BB6E
:100740005F9355E020E820FF052702BB279517950A
:100750001C3FD8F620FF0527279502BB17951C3FA5
:10076000C0F620FF05272795179502BB1C3F98F67A
:1007700020FF0527279517951C3F02BB70F600C088
:10078000499120FF052702BB279517951C3F38F696
:1007900020FF0527279502BB17951C3F38F520FF42
:1007A00005272795179502BB1C3F10F520FF05274D
:1007B000279517951C3F02BBE8F4242F3A9519F6AC
:1007C0000A7F5F9102BB00C010910A02C651D0405F
:1007D00011F01093040210E41ABF016011B31A7FE4
:1007E000402F4A7F02BB11BB42BB4BCF0527D3CF63
:1007F0000527D8CF0527DDCFFC018081807641F524
:100800008181863029F583818230D1F0823269F08E
:100810008130F1F4809195019091960190930802B6
:1008200080930702809197010895809192019091A1
:100830009301909308028093070280919401089598
:1008400085E890E0909308028093070282E2089581
:1008500080E00895DC0128EA31E03093080220931B
:1008600007028C918076803209F041C011968C91FC
:100870001197823081F08A30F1F08130C1F5E0913A
:100880009801F09199010088F189E02DC901129633
:100890006C910995089512969C91892F815088300A
:1008A00030F5892F90E081569E4F909308028093F7
:1008B000070281E008951296EC911297EE2359F405
:1008C000E0EAF1E013968C911397819381E0E83A86
:1008D000F807C1F70CC08E2F8150883040F4F0E04B
:1008E000E156FE4F13968C91808380E0089580E05E
:1008F00008956F927F928F929F92AF92BF92CF9204
:10090000DF92EF92FF920F931F93DF93CF93CDB7B8
:10091000DEB7AA970FB6F894DEBF0FBECDBF88E052
:10092000FE013196DF01982F1D929A95E9F7E0EAD2
:10093000F1E0DF011D928A95E9F7B89A87B3897FC4
:1009400087BB88B3866088BBC09880E395E7019732
:10095000F1F786B390E08670907095958795823018
:10096000910509F43FC08330910509F43DC001971A
:1009700009F182D7FC019093990180939801028438
:10098000F385E02D0995882309F452C0DE011996FC
:10099000EBEEF0E082E201900D928150E1F7A3E6E8
:1009A000B0E0FE01399682E201900D928150E1F7AC
:1009B00004D93AC004D89093990180939801DE013C
:1009C0001996E9ECF0E082E201900D928150E1F796
:1009D000A3E6B0E0FE01399682E201900D928150CB
:1009E000E1F726C0E9D420C06AD1FC0190939901B7
:1009F000809398010284F385E02D099504D2882321
:100A0000B9F0DE011996E7EAF0E082E201900D927A
:100A10008150E1F7A3E6B0E0FE01399682E2019051
:100A20000D928150E1F7B0D3909399018093980192
:100A3000E0919801F09199018481958190939301BF
:100A400080939201828180939401808591850097A3
:100A500031F09093960180939501868107C089E2D9
:100A600091E0909396018093950138D780939701F8
:100A70008091940180939E0014BA8FEF85BB88EF1C
:100A800082BB85E081BB11BA83BF8FE085BD84EC5A
:100A900083BD85B78F7885BFE0919801F09199016A
:100AA0000284F385E02D0995E6DB7894FF2411E0BC
:100AB000662463944E010894811C911C21E0C22E8F
:100AC000D12C90E8792E8CE2A82E81E0B82E02C0BD
:100AD000FF2410E0A895D9DB112341F0E0919801A3
:100AE000F09199010484F585E02D0995E091980134
:100AF000F09199010288F389E02D309709F009956A
:100B000008B600FE27C068BE409198015091990137
:100B1000D40120E030E018C0F901E056FE4FE0813A
:100B2000EE2379F08C91853018F085508C9309C0B4
:100B3000EC93C601022E02C0880F991F0A94E2F7B7
:100B4000F82A2F5F3F4F1196FA0180819181281773
:100B5000390714F308B607FE35C078BEE091980156
:100B6000F091990182899389892B51F485B7806826
:100B700085BF889585B78F7785BFC5010197F1F748
:100B80000484F585E02D099500E010E012C006848C
:100B9000F785E02D802F8F5F0995882341F0C601EE
:100BA000002E02C0880F991F0A94E2F7F82A0F5FFF
:100BB0001F4FE0919801F091990180819181081770
:100BC00019072CF3FF2009F484CF00E010E0EF2C8C
:100BD000FF24E7FCF0942CC0C701002E02C09595BD
:100BE00087950A94E2F780FF21C08091620084FF1C
:100BF0001DC0602F6F5F0088F189E02D8AE991E0C8
:100C00000995682F8AE991E054DC0CC03EDBA89579
:100C1000E0919801F09199010288F389E02D3097D5
:100C200009F009958091620084FFF0CF0F5F1F4F9C
:100C3000E0919801F091990180819181081719073D
:100C40005CF246CFAC9A80E38A95F1F7AC9880E0ED
:100C500090E030E048E1242F2A95F1F7AD98330F6A
:100C60009B9B3160242F2A95F1F7AD9A019688302D
:100C7000910589F73093AF0180E090E048E1242F9F
:100C80002A95F1F7AD9836959B9B3068242F2A95CD
:100C9000F1F7AD9A01968830910589F73093B0014C
:100CA00008951F931FB7F894A49AA59AA398AB9A96
:100CB000AD9AAC98C7DF1FBF80E01F9108958CE408
:100CC00090E090931201809311018DE091E00895DE
:100CD000FC01009709F453C0A091AF018091B001CD
:100CE000682F70E0CB01807F9070803F910521F4E8
:100CF00081E08093AE0102C01092AE014A2F50E015
:100D0000A0FD03C020E830E002C02FEF30E041FF3B
:100D100002C020E030E042FD03C080E890E002C065
:100D20008FEF90E043FF02C080E090E0208381835A
:100D3000CA018074907025E0959587952A95E1F712
:100D40009A0120723070B3E035952795BA95E1F796
:100D5000982F922BAA1FAA27AA1F9A2B4071507076
:100D600055954795942B92838091AE01882339F451
:100D700084E0660F771F8A95E1F7962B9283809126
:100D8000AF019091B0019093B2018093B10183E0E3
:100D900008958091210190912201892B31F01092C8
:100DA00022011092210181E008958FEA91E061EB28
:100DB00071E042E050E07FD70895FC01AC9A80E3F7
:100DC0008A95F1F7AC9890E028E1822F8A95F1F7A7
:100DD000AD98822F8A95F1F7AD9A9F5F9830A9F769
:100DE000908120E038E1832F8A95F1F7AD98990F33
:100DF0009B9B9160832F8A95F1F7AD9A2F5F2830E6
:100E000091F790830895DF93CF930F92CDB7DEB71C
:100E1000CE010196D2DF90E089818F70813009F494
:100E200091E0892F0F90CF91DF9108956F927F927B
:100E30008F929F92AF92BF92CF92DF92EF92FF92EA
:100E40000F931F93DF93CF930F92CDB7DEB773E06D
:100E5000E72EF12CE822F92206E010E04E0108947A
:100E6000811C911C68EBA62E6BE0B62E54E0752E0B
:100E700040E3642E30E8C32E3BEBD32EC4019DDF4C
:100E8000898190E08073907024E0959587952A95EC
:100E9000E1F78E159F0529F4F092BC01E092BB01A9
:100EA0001CC0C5010197F1F780E090E0AC9A272DB6
:100EB0002A95F1F7AD98AD9A272D2A95F1F7AC98C0
:100EC000262D2A95F1F701968F31910579F7C60104
:100ED0000197F1F70150104089F60F90CF91DF9103
:100EE0001F910F91FF90EF90DF90CF90BF90AF9048
:100EF0009F908F907F906F900895DF93CF930F9284
:100F0000CDB7DEB7CE01019658DF2981822F8F70D1
:100F1000813079F58091B9019091BA01892B71F5F1
:100F20002295269526952370822F90E08130910599
:100F300071F0823091051CF4892B79F013C0823056
:100F4000910541F0039771F480E090E00AC081E0E0
:100F500090E007C082E090E069DF8091BB01909152
:100F6000BC0164DFCE01019628DF89818F7081305A
:100F700029F01092BA011092B90156C081E090E0B8
:100F80009093BA018093B90189818093BD0180E774
:100F900097E10197F1F78CED95E00197F1F780E08B
:100FA00090E050E030E2232F2A95F1F7AD98550FED
:100FB0009B9B51600000AD9A01968830910599F78E
:100FC00080E090E030E040E2242F2A95F1F7AD98E0
:100FD000330F9B9B31600000AD9A019688309105DC
:100FE00099F7232F2F77452F4F7737FD219557FD01
:100FF0004195332727FD30958091B3019091B4013D
:10100000820F931F9093B4018093B301242F332751
:1010100027FD30958091B5019091B601820F931F05
:101020009093B6018093B5010F90CF91DF91089511
:10103000A49AA59AA398AB9AAD9AAC985EDF8091DA
:10104000BD01829586958695837090E081309105EB
:1010500071F0823091051CF4892B31F00EC0823082
:10106000910541F0039749F480E090E005C081E0EC
:1010700090E002C082E090E0D9DE80E008958091A7
:10108000370190913801892B29F010923801109284
:1010900037011DC09091BD018091BE019817B9F430
:1010A0002091B3013091B4018091BF019091C001B2
:1010B0002817390761F440E02091B5013091B6015D
:1010C0008091C1019091C2012817390709F041E0D0
:1010D000842F0895FC01009709F454C08091B70152
:1010E0009091B801892B41F01082118212821092E6
:1010F000B8011092B70146C0A091BD018A2F829518
:1011000086958695837080836091B3017091B40158
:101110008FEF6138780714F481E806C060387105F4
:1011200014F08FE701C0862F4091B5015091B601B0
:101130009FEF4138590714F421E806C040385105A3
:1011400014F02FE701C0242F81832283992787FD84
:1011500090959093C0018093BF01332727FD309570
:101160003093C2012093C101A093BE01681B790B8B
:101170007093B4016093B301421B530B5093B601BB
:101180004093B50183E0089587E790E090932801AC
:101190008093270189EA90E090932C0180932B01A2
:1011A00083E291E008959A9905C081E08093C3019C
:1011B0008093C4010895AC9A80E38A95F1F7AC98C6
:1011C00080E090E030E048E1242F2A95F1F7AD98D7
:1011D000330F9B9B3160242F2A95F1F7AD9A01962E
:1011E0008830910589F73093C6010895A49AA59A8D
:1011F000A398AB9AAD9AAC98A298AA9A84B38C7F24
:1012000084BBA89AA998A19A88EB9BE00197F1F773
:1012100098990EC0D0DF8091C60187FF02C082E09E
:1012200005C086FF02C083E001C081E08093C50154
:1012300080E008958091C401882341F420E030E0EB
:101240009091C6018091C701981711F021E030E01C
:10125000822F0895FC017091C6017093C701009719
:1012600009F4A8C0472F50E070FD03C020E830E02B
:1012700002C02FEF30E041FF02C020E030E042FD2D
:1012800003C080E890E002C08FEF90E043FF02C00F
:1012900080E090E02083818312828091C5018823C1
:1012A00009F46DC0823031F1833009F447C0CA01BE
:1012B0008074907035E0959587953A95E1F7972F72
:1012C000991F9927991F982B9283407C5070403C1E
:1012D000510511F4946092838091C301882309F42D
:1012E00069C08281886082831092C30181E080930B
:1012F000C40160C08091C301882331F081E0828302
:101300001092C3018093C401CA01807C90706281F5
:10131000803C910529F1CA018078907024E0959570
:1013200087952A95E1F740745070B5E0559547953B
:10133000BA95E1F7842B682B62833CC08091C3018E
:10134000882339F082E082831092C30181E0809388
:10135000C401CA01807C90706281803C910511F4C7
:101360006460EACF40745070A3E055954795AA9504
:10137000E1F7771F7727771F742B672BDDCF9A0153
:101380002074307065E0359527956A95E1F7CA01BC
:101390008072907033E0959587953A95E1F7282B08
:1013A000771F7727771F272B4071507055954795EA
:1013B000242B228383E008958BEB90E090933E01F1
:1013C00080933D018CEE90E0909342018093410127
:1013D00089E391E0089523B366B330E0A901407139
:1013E0005070A3E055954795AA95E1F7C90188701B
:1013F000907095958795482B862F8072482BC90150
:1014000084709070880F991F482BC901827090706A
:1014100073E0880F991F7A95E1F7482B207230709E
:1014200055E0359527955A95E1F7422B8091630158
:10143000843011F0842F0895862F90E08071907091
:10144000880F991F880F991F842B0895DF92EF92C0
:10145000FF920F931F93CF93DF93EC01A89A00E5BF
:10146000802F8A95F1F7B7DFD82E80916301823003
:1014700028F4D8828FEF89838A8329C0A898802F87
:101480008A95F1F7A8DFF82EA89A802F8A95F1F7B0
:10149000A898802F8A95F1F79EDFE82EA89A802FD2
:1014A0008A95F1F7A898802F8A95F1F794DF182F85
:1014B000A89A802F8A95F1F78EDFA898902F9A9599
:1014C000F1F7A89AD882F9828A83EB821C83DF9194
:1014D000CF911F910F91FF90EF90DF900895DF92D1
:1014E000EF92FF920F931F93CF93DF9300E010E0F2
:1014F000C0E0D0E0EE24FF24B8E2DB2E6CDF85FFF5
:1015000004C00894E11CF11C01C021968D2D8A9520
:10151000F1F70F5F1F4F0436110581F7A2971CF4F6
:1015200020E030E009C080E090E022E2E216F10421
:1015300014F081E090E09C01C901DF91CF911F91EF
:101540000F91FF90EF90DF9008957F928F929F927E
:10155000AF92BF92CF92DF92EF92FF920F931F93C1
:10156000DF93CF9300D000D00F92CDB7DEB71091AC
:101570006301143009F07FC01091C80110FD07C04D
:10158000CC24DD24E1E0F0E0AA24BB2408C021E063
:10159000C22ED12CE0E0F0E091E0A92EB12CE65370
:1015A000FE4F80E880831092CC0115DF282F30E0B9
:1015B00084FD05C08091CC0181608093CC01C9017C
:1015C0008074907011FF10C0892B29F48091CC0198
:1015D00082608093CC01EE24FF2484E0782E08EF13
:1015E000802E18E0912E44C0892BA9F78091CC0160
:1015F0008160EFCFF0DE85FD08C0972D9A95F1F759
:101600000F5F1F4F04361105A9F785FF26C0E3DEE3
:10161000182F892D8A95F1F7DEDE85FF21C0882DF0
:101620008A95F1F7D8DE85FD1BC0012F0295007F5A
:10163000D2DE182F1F70892D8A95F1F7CCDE85FD3B
:101640000FC0802F812BAB2809F080952AEC31E068
:10165000C20ED31EF60180837CC0882D8A95F1F7D7
:101660000894E11CF11CF4E0EF16F10409F471C0D8
:1016700000E010E0BFCFCE010196E8DE99819095A1
:101680008A8180958A836B81609590FD03C040E8D4
:1016900050E002C040E050E091FF02C04FEF50E048
:1016A00092FD03C020E830E002C020E030E093FF6C
:1016B00002C02FEF30E02093CA014093CB0110927B
:1016C000CC011230D0F18A81282F84FF03C081E041
:1016D0008093CC0194FF05C08091CC0182608093FF
:1016E000CC0195FF05C08091CC0184608093CC0132
:1016F00025FF05C08091CC0188608093CC01133018
:1017000041F5962F62FF05C08091CC0180618093E6
:10171000CC0191FF05C08091CC0180628093CC0107
:1017200090FF05C08091CC0180648093CC0193FF31
:1017300010C08091CC0180680AC094FF03C081E092
:101740008093CC0195FF05C08091CC01826080938D
:10175000CC010F900F900F900F900F90CF91DF91D1
:101760001F910F91FF90EF90DF90CF90BF90AF90BF
:101770009F908F907F9008951F93DF93CF9300D019
:1017800000D00F92CDB7DEB71FB7F894B99AC198C1
:1017900087B38F7C87BB88B3806388BBA09AA89AE5
:1017A00084B3817C84BB85B38E6385BB88EE93E074
:1017B0002CE231E0F9013197F1F70197D9F78FDE8B
:1017C000892B29F184E08093630182E090E090937B
:1017D000C9018093C801B9DE1092C9011092C801F5
:1017E0008091CC01282F80FF06C081E090E090938B
:1017F000C9018093C80121FF34C08091C801909134
:10180000C90182609093C9018093C8012AC0CE01AA
:1018100001961CDE81E080936301898190E08F70E6
:1018200090708330910519F41FBF8FEF1CC00F9784
:1018300089F48A818F70833069F48C818F70833052
:1018400021F48D818F70833011F083E001C082E03C
:10185000809363018A8185FD03C083E080936301E7
:1018600074DE1FBF80E00F900F900F900F900F90CD
:10187000CF91DF911F9108958EEF90E090935201E8
:10188000809351018DE491E00895009741F0DC01CF
:10189000EAECF1E083E001900D928150E1F7ADECCC
:1018A000B1E0EAECF1E083E001900D928150E1F7C4
:1018B00083E008958091610190916201892B31F05C
:1018C000109262011092610181E008958AEC91E02A
:1018D0006DEC71E043E050E0EED1089582E190E0DC
:1018E0000895A89888EB9BE0FC013197F1F7A99A3D
:1018F000FC013197F1F723B3A9980197F1F783B36E
:10190000A89A90E08C739070880F991F880F991F88
:1019100030E02C7330703595279535952795822BBF
:101920008095982F83FD03C040E850E002C040E05E
:1019300050E091FF02C04FEF50E090FD03C020E85F
:1019400030E002C020E030E092FF02C02FEF30E034
:101950002093D0014093D1011092D20187FF03C0A0
:1019600081E08093D20196FF05C08091D201826010
:101970008093D20195FF05C08091D201846080934D
:10198000D20194FF05C08091D20188608093D2017A
:1019900008951F931FB7F894B99AC19884B3837CB4
:1019A00084BB85B38C6385BB85B3836085BB84B3FF
:1019B000836084BB96DF1FBF80E01F9108958DE494
:1019C00091E090936901809368018BE391E090939B
:1019D0006D0180936C0184E691E00895009741F0D9
:1019E000DC01E0EDF1E083E001900D928150E1F740
:1019F000A3EDB1E0E0EDF1E083E001900D928150C4
:101A0000E1F783E008958091780190917901892B25
:101A100031F0109279011092780181E0089580ED03
:101A200091E063ED71E043E050E045D108958FB758
:101A3000F894B99AC198BD9AC59AA09AA89A94B3F5
:101A4000917C94BB95B39E6395BB8FBF80E0089556
:101A50008F929F92AF92BF92CF92DF92EF92FF92BE
:101A60000F931F93DF93CF93CDB7DEB762970FB677
:101A7000F894DEBF0FBECDBFA8988CE291E001972D
:101A8000F1F760E070E08E010F5F1F4F9FE0F92ECD
:101A9000ACE2B1E060FF04C0C59A999BFECF03C0E1
:101AA000C5989999FECF43B350E09A0128703070E1
:101AB00035952795CA0180719070F3E095958795CB
:101AC000FA95E1F7282BCA0184709070880F991F4E
:101AD000282B4072507035E0559547953A95E1F7BF
:101AE000242BF801E60FF71F2F252083CD01019746
:101AF000F1F76F5F7F4F6231710561F6C59AA89A61
:101B000089818F3009F046C08A818F3009F042C048
:101B100093E0E92EF12CEC0EFD1E26E030E0CC2403
:101B2000DD244E010894811C911C87E0A82EB12C65
:101B3000AC0EBD1ED7018C918E3019F08F3021F480
:101B400006C063E070E005C060E070E002C062E0E3
:101B500070E08401020F131FF601EA52FE4F40E0CD
:101B600050E006C0D8018D918D0181934F5F5F4F8A
:101B7000DA01A20FB31F46175707A4F30894E11C1C
:101B8000F11CE3E0F0E0CE0EDF1EEA14FB0411F0DE
:101B90009D01D0CF62960FB6F894DEBF0FBECDBFC9
:101BA000CF91DF911F910F91FF90EF90DF90CF9039
:101BB000BF90AF909F908F90089588E791E09093A9
:101BC0007F0180937E018CE292E090938301809369
:101BD00082018AE791E008950F931F93CF93DF93DB
:101BE0008C01662311F480E046C0862F992787FD7B
:101BF000909501979C01220F331F280F391FE9018F
:101C0000CA52DE4FD901AE51BE4FFE0183E00190B2
:101C10000D928150E1F7888180FD03C040E850E0DB
:101C200002C040E050E081FF02C04FEF50E082FD73
:101C300003C020E830E002C020E030E083FF02C0B3
:101C40002FEF30E0898190E080FD92E081FD94608B
:101C500082FD916083FD98608A8180FD906481FDA2
:101C6000906282FD906183FD9068F801608321831A
:101C70004283938384E0DF91CF911F910F91089568
:101C8000282F80918E0190918F01892B31F0109235
:101C90008F0110928E0181E00895215063E02602A9
:101CA000B0011124CB018A529E4F6E517E4F43E00A
:101CB00050E001D00895FB01DC0104C08D9101903A
:101CC000801921F441505040C8F7881B990B0895A2
:041CD000F894FFCFB6
:101CD400FF5A5A22032800530029004E004500539E
:101CE400002F00410074006100720069005F00551C
:101CF400005300420009022200010100803209045D
:101D0400000001030000000921010100012200007C
:101D14000705810308000A220353004E00450053BF
:101D2400004D006F007500730065005F0074006F64
:101D3400005F0055005300420022034E006500631B
:101D4400002D0050006300200065006E00670069EC
:101D5400006E00650020002000200022035300656F
:101D640000670061004D0075006C00740069007428
:101D740000610070005F0055005300420001002B19
:101D84000000000000000051062206C90668060093
:101D94000001000100320000001200000018087D5C
:101DA400073F086A0800000100010031000000122A
:101DB400000000F608DB081A092A09D30801002BE1
:101DC40000000000000000BC0BA50A5A0C450C00E2
:101DD4000001000201002B00000012000000C90CE9
:101DE400710C030DEE0C000001000400B4000000AF
:101DF40012000000170D280D400EEC0D000001002C
:00000001FF
