:100000000C9461000C947E000C947E000C947E0095
:100010000C947E000C947E000C947E000C947E0068
:100020000C947E000C947E000C947E000C947E0058
:100030000C947E000C947E000C947E000C947E0048
:100040000C945B010C947E000C947E000C947E005A
:100050000C947E000C947E000C947E000C947E0028
:100060000C947E000C947E00000000002400270009
:100070002A0000000000250028002B0000000000DE
:1000800023002600290004040404040404040202DA
:100090000202020203030303030301020408102007
:1000A0004080010204081020010204081020000012
:1000B0000007000201000003040600000000000029
:1000C000000011241FBECFEFD8E0DEBFCDBF11E08E
:1000D000A0E0B1E0E2E5F5E002C005900D92A230AB
:1000E000B107D9F711E0A2E0B1E001C01D92A7313C
:1000F000B107E1F70E94A0020C94A7020C94000043
:10010000EF92FF920F931F9380E00E94820222ECF5
:1001100031E0AC01429FC001439F900D529F900D72
:100120001124AA2797FDA095BA2F809302019093DE
:100130000301A0930401B093050181E00E948202B3
:100140009C0144E0220F331F4A95E1F7281B390B2D
:10015000A901662757FD6095762F409306015093BD
:100160000701609308017093090180910201909149
:100170000301A0910401B091050184179507A6071A
:10018000B70740F4409302015093030160930401C8
:10019000709305010E94A3017B018C0180910A01EB
:1001A00090910B01A0910C01B0910D01E816F90698
:1001B0000A071B0740F410920A0110920B011092DB
:1001C0000C0110920D0180910A0190910B01A091F8
:1001D0000C01B0910D01A8019701281B390B4A0BA6
:1001E0005B0B8091020190910301A0910401B091F9
:1001F000050182179307A407B507A0F58CE061E01D
:100200000E9435028DE061E00E9435020E94A30148
:1002100060930A0170930B0180930C0190930D0180
:1002200006C06AE070E080E090E00E94B1010E94A8
:10023000A3016E197F09800B910B2091060130916B
:100240000701409108015091090162177307840763
:10025000950738F38CE060E00E9435028DE060E0A5
:100260000E94350262E370E080E090E00E94B101FC
:100270001F910F91FF90EF900895E1E6F0E080E884
:10028000808310828BE061E00E9415028CE061E0C7
:100290000E9415028DE061E00E9415028BE061E092
:1002A0000E9435028CE060E00E9435028DE060E043
:1002B0000E94350208951F920F920FB60F921124DB
:1002C0002F933F938F939F93AF93BF93809112018E
:1002D00090911301A0911401B09115013091160174
:1002E0000196A11DB11D232F2D5F2D3720F02D5715
:1002F0000196A11DB11D20931601809312019093C8
:100300001301A0931401B093150180910E019091F7
:100310000F01A0911001B09111010196A11DB11D15
:1003200080930E0190930F01A0931001B0931101DF
:10033000BF91AF919F918F913F912F910F900FBEE1
:100340000F901F9018958FB7F8942091120130915B
:10035000130140911401509115018FBFB901CA01D9
:100360000895EF92FF920F931F937B018C018FB73B
:10037000F894409112015091130160911401709111
:1003800015018FBF2FB7F89480911201909113013E
:10039000A0911401B09115012FBF841B950BA60BE2
:1003A000B70BE816F9060A071B0760F71F910F91B4
:1003B000FF90EF900895789484B5826084BD84B5F1
:1003C000816084BD85B5826085BD85B5816085BD50
:1003D000EEE6F0E0808181608083E1E8F0E08081FA
:1003E00082608083808181608083E0E8F0E08081AA
:1003F00081608083E1EBF0E0808184608083E0EBCA
:10040000F0E0808181608083EAE7F0E080818460B1
:10041000808380818260808380818160808380810D
:10042000806880831092C1000895282F30E0C901B0
:1004300086569F4FFC0194912A573F4FF9018491B2
:10044000882391F0E82FF0E0EE0FFF1FE859FF4FEF
:10045000A591B491662329F48C91909589238C936E
:1004600008958C91892B8C930895482F50E0CA01F0
:1004700082559F4FFC012491CA0186569F4FFC0173
:1004800094914A575F4FFA0134913323D1F12223DB
:1004900031F1233021F4809180008F7705C0243022
:1004A00031F4809180008F7D8093800018C02130CE
:1004B00019F484B58F7704C0223021F484B58F7D80
:1004C00084BD0DC0263021F48091B0008F7705C027
:1004D000273029F48091B0008F7D8093B000E32F06
:1004E000F0E0EE0FFF1FEE58FF4FA591B491662389
:1004F00029F48C91909589238C9308958C91892B64
:100500008C9308958770909100019295990F990F9F
:10051000907C982B90937C0080917A0080648093EB
:100520007A0080917A0086FDFCCF2091780040917E
:100530007900942F80E030E0282B392BC9010895F1
:100540000E94DB010E943D010E948000FDCFF894D3
:02055000FFCFDB
:020552000100A6
:00000001FF
