:1000000019C033C032C031C030C02FC02EC02DC087
:100010002CC02BC02AC029C028C027C026C025C09C
:1000200024C023C022C021C020C01FC01EC01DC0CC
:100030001CC01BC011241FBECFEFD4E0DEBFCDBF5C
:1000400011E0A4E0B1E001C01D92AD30B107E1F7CD
:1000500011E0A0E0B1E0E6EBF3E002C005900D9204
:10006000A430B107D9F798D0A4C1CACF382F6130D6
:10007000D1F4883058F425B181E090E002C0880FB7
:10008000991F3A95E2F7282725B90895803130F570
:1000900028B181E090E002C0880F991F3A95E2F7FD
:1000A000282728B90895883060F425B181E090E0D0
:1000B00002C0880F991F3A95E2F78095822385B98F
:1000C0000895803158F428B181E090E002C0880F93
:1000D000991F3A95E2F78095822388B90895E5E063
:1000E000F1E0119281E0ED30F807D9F708958091A1
:1000F0000401382F3770282F26952695269541E044
:1001000050E002C0440F551F2A95E2F7E5E0F1E008
:10011000E30FF11D20812427208390E001968F7347
:100120009070809304010895E2DF20E030E041E028
:1001300050E0AFEF60ED77E0F901EB5FFE4FE0815B
:10014000EBB9CA01022E02C0880F991F0A94E2F788
:10015000809585B9263010F48FEF0CC026503040C2
:10016000CA01022E02C0880F991F0A94E2F72A5F83
:100170003F4F80958370E370EE0FEE0FE82BE8B9E8
:10018000CB010197F1F71BB8A5B9A8B92F5F3F4F75
:100190002830310589F608958FEF84B987B98AB977
:1001A000C3DFFECF1F9380E090E068E070E061D095
:1001B000182F80E090E068E070E05BD021E030E054
:1001C00002C0220F331F1A95E2F7FC01EB5FFE4FCE
:1001D0008081822780831F910895A0E0B0E0E2EF44
:1001E000F0E096C0EC01A880B980CA80DB80A11441
:1001F000B104C104D10441F484E2A82E89EDB82EE3
:100200008BE5C82E87E0D82EC601B5012DE133EF6E
:1002100041E050E05AD027EA31E440E050E036D0E7
:100220007B018C01C601B5012DE133EF41E050E0C7
:100230004CD0CA01B9012CEE34EF4FEF5FEF26D05E
:100240006E0D7F1D801F911F97FF04C0615070408D
:1002500080409048688379838A839B839B01AC01AB
:100260005F77B901CA01CDB7DEB7EAE06DC0B5DF8F
:10027000089580E091E0B1DF0895609300017093EC
:10028000010180930201909303010895629FD001C0
:10029000739FF001829FE00DF11D649FE00DF11D41
:1002A000929FF00D839FF00D749FF00D659FF00DF0
:1002B0009927729FB00DE11DF91F639FB00DE11DDD
:1002C000F91FBD01CF011124089597FB092E0526C2
:1002D0000ED057FD04D04BD00AD0001C38F45095F6
:1002E0004095309521953F4F4F4F5F4F0895F6F75A
:1002F00090958095709561957F4F8F4F9F4F089592
:100300002F923F924F925F926F927F928F929F9225
:10031000AF92BF92CF92DF92EF92FF920F931F9313
:10032000CF93DF93CDB7DEB7CA1BDB0B0FB6F894C4
:10033000DEBF0FBECDBF09942A88398848885F8404
:100340006E847D848C849B84AA84B984C884DF8075
:10035000EE80FD800C811B81AA81B981CE0FD11D59
:100360000FB6F894DEBF0FBECDBFED010895A1E238
:100370001A2EAA1BBB1BFD010DC0AA1FBB1FEE1F1F
:10038000FF1FA217B307E407F50720F0A21BB30B6A
:10039000E40BF50B661F771F881F991F1A9469F7E6
:1003A00060957095809590959B01AC01BD01CF0142
:0603B0000895F894FFCF50
:0403B6000100000042
:00000001FF
