:1000000019C033C032C031C030C02FC02EC02DC087
:100010002CC02BC02AC029C028C027C026C025C09C
:1000200024C023C015C221C020C01FC01EC01DC0D7
:100030001CC01BC011241FBECFEFD4E0DEBFCDBF5C
:1000400011E0A0E0B1E0E2EDF6E002C005900D9213
:10005000A431B107D9F711E0A4E1B1E001C01D92CC
:10006000A036B107E1F7B6D132C3CACF382F61301D
:10007000D1F4883058F425B181E090E002C0880FB7
:10008000991F3A95E2F7282725B90895803130F570
:1000900028B181E090E002C0880F991F3A95E2F7FD
:1000A000282728B90895883060F425B181E090E0D0
:1000B00002C0880F991F3A95E2F78095822385B98F
:1000C0000895803158F428B181E090E002C0880F93
:1000D000991F3A95E2F78095822388B90895E8E55B
:1000E000F1E0119281E0E036F807D9F708958091A8
:1000F0001601382F3770282F26952695269541E032
:1001000050E002C0440F551F2A95E2F7E8E5F1E000
:10011000E30FF11D20812427208390E001968F7347
:10012000907080931601089520E030E041E050E0A7
:10013000AFEF60ED77E0F901E85AFE4FE081EBB9EF
:10014000CA01022E02C0880F991F0A94E2F7809517
:1001500085B9263010F48FEF0CC026503040CA010C
:10016000022E02C0880F991F0A94E2F72A5F3F4FC0
:1001700080958370E370EE0FEE0FE82BE8B9CB01AA
:100180000197F1F71BB8A5B9A8B92F5F3F4F2830E9
:10019000310589F60895282FA0E0B1E0FD0190E037
:1001A0008081821721F4292F2295207F05C09F5F2F
:1001B00031969031A9F720E090E08C91861711F4E8
:1001C000290F04C09F5F11969031B9F7822F0895CF
:1001D0009091150180911401981709F464C09091D1
:1001E0001501809114019817D1F3809114018F5F4C
:1001F0008F7380931401E0911401F0E0E95EFE4FEB
:10020000E081E23541F4E8E5F1E0119281E0E03689
:10021000F807D9F708954E2F4053483008F043C0EF
:1002200090911501809114019817D1F380911401D8
:100230008F5F8F7380931401E0911401F0E0E95E09
:10024000FE4F208190911501809114019817D1F3F0
:10025000809114018F5F8F7380931401E0911401DA
:10026000F0E0E95EFE4F3081E0E0F1E0DF0190E098
:100270008C91821721F4292F2295207F05C09F5F42
:1002800011969031A9F720E090E08081831711F456
:10029000290F04C09F5F31969031B9F7E42FF0E049
:1002A000E85AFE4F208308958F929F92AF92BF929B
:1002B000CF92DF92EF92FF921F93CF93DF936B0168
:1002C0007C019B01AC0173E0220F331F441F551FBB
:1002D0007A95D1F760E072E18AE790E084D1E90194
:1002E00059010894A108B10881E2C81681EAD8062C
:1002F00087E0E80680E0F80608F045C0A70196010F
:1003000064E0220F331F441F551F6A95D1F760E048
:1003100072E18AE790E067D1490194E0220F331F30
:100320009A95E1F740E050E060E072E18AE790E002
:100330005AD1CA01B901A701960155D1CA01B90123
:100340002FEF30E040E050E02FD1162F1F5F83E009
:10035000CC0FDD1F8A95E1F79E0140E050E060E0A0
:1003600072E18AE790E03FD1CA01B901A701960185
:100370003AD1CA01B9012FEF30E040E050E014D18A
:100380006F5F611740F4A092C400B092C5008091E5
:10039000C000826009C0C40101978093C40090939B
:1003A000C5008091C0008D7F8093C00088E180935C
:1003B000C1001092C00086E08093C200DF91CF910F
:1003C0001F91FF90EF90DF90CF90BF90AF909F90E4
:1003D0008F9008951F931FEF14B917B91AB960E0F1
:1003E0007BE480E090E060DF14B98091C100806818
:1003F0008093C10078949091150180911401981711
:1004000011F492DEF8CFE4DEFCCFE1ECF0E0808185
:1004100080688083789408959091150180911401EB
:1004200020E0981321E0822F08959091150180918A
:1004300014019817D1F3809114018F5F8F7380930B
:100440001401E0911401F0E0E95EFE4F808108950F
:100450001F920F920FB60F9211242F933F938F93F9
:100460009F93EF93FF93809115012091140190E0E9
:1004700001968F73907030E08217930741F480915A
:10048000C6008093570181E0809357010EC0809190
:1004900015018F5F8F7380931501E0911501F0E0D6
:1004A0008091C600E95EFE4F8083FF91EF919F919E
:1004B0008F913F912F910F900FBE0F901F90189525
:1004C0001F9380E090E068E070E061D0182F80E03A
:1004D00090E068E070E05BD021E030E002C0220FE5
:1004E000331F1A95E2F7FC01E85AFE4F80818227FC
:1004F00080831F910895A0E0B0E0E0E8F2E0B8C08A
:10050000EC01A880B980CA80DB80A114B104C104C9
:10051000D10441F484E2A82E89EDB82E8BE5C82ED3
:1005200087E0D82EC601B5012DE133EF41E050E060
:100530007CD027EA31E440E050E036D07B018C01EA
:10054000C601B5012DE133EF41E050E06ED0CA01A4
:10055000B9012CEE34EF4FEF5FEF26D06E0D7F1D0B
:10056000801F911F97FF04C06150704080409048E9
:10057000688379838A839B839B01AC015F77B90190
:10058000CA01CDB7DEB7EAE08FC0B5DF089580E1DC
:1005900091E0B1DF08956093100170931101809391
:1005A0001201909313010895629FD001739FF0018F
:1005B000829FE00DF11D649FE00DF11D929FF00DF3
:1005C000839FF00D749FF00D659FF00D9927729F2A
:1005D000B00DE11DF91F639FB00DE11DF91FBD01B5
:1005E000CF0111240895A1E21A2EAA1BBB1BFD0105
:1005F0000DC0AA1FBB1FEE1FFF1FA217B307E40702
:10060000F50720F0A21BB30BE40BF50B661F771F59
:10061000881F991F1A9469F7609570958095909539
:100620009B01AC01BD01CF01089597FB092E052662
:100630000ED057FD04D0D7DF0AD0001C38F45095F7
:100640004095309521953F4F4F4F5F4F0895F6F7F6
:1006500090958095709561957F4F8F4F9F4F08952E
:100660002F923F924F925F926F927F928F929F92C2
:10067000AF92BF92CF92DF92EF92FF920F931F93B0
:10068000CF93DF93CDB7DEB7CA1BDB0B0FB6F89461
:10069000DEBF0FBECDBF09942A88398848885F84A1
:1006A0006E847D848C849B84AA84B984C884DF8012
:1006B000EE80FD800C811B81AA81B981CE0FD11DF6
:1006C0000FB6F894DEBF0FBECDBFED010895F894CC
:0206D000FFCF5A
:1006D2003031323334353637383941424344454676
:0406E2000100000013
:00000001FF
