:1000000019C033C032C031C030C02FC02EC02DC087
:100010002CC02BC02AC029C028C027C026C025C09C
:1000200024C023C0B3C121C020C01FC01EC01DC03A
:100030001CC01BC011241FBECFEFD4E0DEBFCDBF5C
:1000400011E0A4E0B1E001C01D92A035B107E1F7D5
:1000500011E0A0E0B1E0EEE0F6E002C005900D9204
:10006000A430B107D9F72ED1D0C2CACF382F613012
:10007000D1F4883058F425B181E090E002C0880FB7
:10008000991F3A95E2F7282725B90895803130F570
:1000900028B181E090E002C0880F991F3A95E2F7FD
:1000A000282728B90895883060F425B181E090E0D0
:1000B00002C0880F991F3A95E2F78095822385B98F
:1000C0000895803158F428B181E090E002C0880F93
:1000D000991F3A95E2F78095822388B90895E8E45C
:1000E000F1E0119281E0E035F807D9F708958091A9
:1000F0000601382F3770282F26952695269541E042
:1001000050E002C0440F551F2A95E2F7E8E4F1E001
:10011000E30FF11D20812427208390E001968F7347
:100120009070809306010895E2DF20E030E041E026
:1001300050E0AFEF60EA7FE0F901E85BFE4FE0815D
:10014000EBB9CA01022E02C0880F991F0A94E2F788
:10015000809585B9263010F48FEF0CC026503040C2
:10016000CA01022E02C0880F991F0A94E2F72A5F83
:100170003F4F80958370E370EE0FEE0FE82BE8B9E8
:10018000CB010197F1F71BB8A5B9A8B92F5F3F4F75
:100190002830310589F608958F929F92AF92BF92D1
:1001A000CF92DF92EF92FF921F93CF93DF936B0179
:1001B0007C019B01AC0173E0220F331F441F551FCC
:1001C0007A95D1F760E074E284EF90E0AAD1E9017A
:1001D00059010894A108B10881E4C81682E4D80640
:1001E0008FE0E80680E0F80608F045C0A701960118
:1001F00064E0220F331F441F551F6A95D1F760E05A
:1002000074E284EF90E08DD1490194E0220F331F16
:100210009A95E1F740E050E060E074E284EF90E00E
:1002200080D1CA01B901A70196017BD1CA01B901E8
:100230002FEF30E040E050E055D1162F1F5F83E0F4
:10024000CC0FDD1F8A95E1F79E0140E050E060E0B1
:1002500074E284EF90E065D1CA01B901A70196016B
:1002600060D1CA01B9012FEF30E040E050E03AD14F
:100270006F5F611740F4A092C400B092C5008091F6
:10028000C000826009C0C40101978093C4009093AC
:10029000C5008091C0008D7F8093C00088E180936D
:1002A000C1001092C00086E08093C200DF91CF9120
:1002B0001F91FF90EF90DF90CF90BF90AF909F90F5
:1002C0008F9008951F93CF93DF931FEF14B917B941
:1002D0001AB960E875E280E090E05EDF14B98091C1
:1002E000C10080688093C1007894C0E4DCE99091FB
:1002F000050180910401981709F190910501809101
:1003000004019817D1F3809104018F5F8F7380935C
:100310000401E0910401F0E0E95FFE4FE08180918B
:10032000C00085FFFCCFE093C600E23539F4E8E475
:10033000F1E0119281E0E035F807D9F7CE0101979D
:10034000F1F7F2DED4CFE1ECF0E0808180688083C9
:1003500078940895909105018091040120E098130C
:1003600021E0822F08959091050180910401981752
:10037000D1F3809104018F5F8F7380930401E0912A
:100380000401F0E0E95FFE4F808108951F920F9213
:100390000FB60F9211242F933F938F939F93EF9358
:1003A000FF93809105012091040190E001968F73E5
:1003B000907030E08217930741F48091C6008093DB
:1003C000470181E0809347010EC0809105018F5F56
:1003D0008F7380930501E0910501F0E08091C600E4
:1003E000E95FFE4F8083FF91EF919F918F913F9145
:1003F0002F910F900FBE0F901F9018951F9380E0C4
:1004000090E068E070E061D0182F80E090E068E054
:1004100070E05BD021E030E002C0220F331F1A955C
:10042000E2F7FC01E85BFE4F8081822780831F9109
:100430000895A0E0B0E0EEE1F2E0B8C0EC01A880E1
:10044000B980CA80DB80A114B104C104D10441F495
:1004500084E2A82E89EDB82E8BE5C82E87E0D82E31
:10046000C601B5012DE133EF41E050E07CD027EA31
:1004700031E440E050E036D07B018C01C601B5018B
:100480002DE133EF41E050E06ED0CA01B9012CEE0E
:1004900034EF4FEF5FEF26D06E0D7F1D801F911F51
:1004A00097FF04C061507040804090486883798312
:1004B0008A839B839B01AC015F77B901CA01CDB7E9
:1004C000DEB7EAE08FC0B5DF089580E091E0B1DFEC
:1004D000089560930001709301018093020190934D
:1004E00003010895629FD001739FF001829FE00D88
:1004F000F11D649FE00DF11D929FF00D839FF00DA3
:10050000749FF00D659FF00D9927729FB00DE11D4E
:10051000F91F639FB00DE11DF91FBD01CF0111242B
:100520000895A1E21A2EAA1BBB1BFD010DC0AA1F34
:10053000BB1FEE1FFF1FA217B307E407F50720F04C
:10054000A21BB30BE40BF50B661F771F881F991FC7
:100550001A9469F760957095809590959B01AC0110
:10056000BD01CF01089597FB092E05260ED057FD3A
:1005700004D0D7DF0AD0001C38F450954095309550
:1005800021953F4F4F4F5F4F0895F6F79095809517
:10059000709561957F4F8F4F9F4F08952F923F9297
:1005A0004F925F926F927F928F929F92AF92BF9283
:1005B000CF92DF92EF92FF920F931F93CF93DF932F
:1005C000CDB7DEB7CA1BDB0B0FB6F894DEBF0FBE8C
:1005D000CDBF09942A88398848885F846E847D84D9
:1005E0008C849B84AA84B984C884DF80EE80FD80DB
:1005F0000C811B81AA81B981CE0FD11D0FB6F89451
:0E060000DEBF0FBECDBFED010895F894FFCF11
:04060E0001000000E7
:00000001FF
