:100000000C9462000C948A000C948A000C948A0070
:100010000C948A000C948A000C948A000C948A0038
:100020000C948A000C948A000C948A000C948A0028
:100030000C948A000C948A000C948A000C948A0018
:100040000C94DF060C948A000C948A000C948A00AD
:100050000C948A000C948A000C948A000C948A00F8
:100060000C9430050C948A00000000002400270046
:100070002A0000000000250028002B0000000000DE
:1000800023002600290004040404040404040202DA
:100090000202020203030303030301020408102007
:1000A0004080010204081020010204081020000012
:1000B0000007000201000003040600000000000029
:1000C0000000CC0311241FBECFEFD8E0DEBFCDBFB0
:1000D00011E0A0E0B1E0E0E3F1E102C005900D9293
:1000E000A232B107D9F711E0A2E2B1E001C01D923E
:1000F000AF3EB107E1F710E0C4ECD0E004C02297B6
:10010000FE010E949208C23CD107C9F70E944E0826
:100110000C9496080C940000482F6AE00E945D0839
:10012000282F30E084E0220F331F8A95E1F7842FD7
:100130000E945D08892F820F0895E1E1F1E0282FE8
:1001400030E0808190E082239323892B11F428985A
:1001500001C0289A5E9A5E98319781E0E930F807ED
:1001600081F708950F931F93CF93DF938C01FC01C8
:100170009181992311F09E3171F4F80180818730CB
:1001800050F480912201882341F481E08093220180
:100190001092230102C01092220180912301C82FE6
:1001A000D0E08F5F809323015F98892F6AE00E94DF
:1001B0005D08E92FF0E0E050FF4FE08180912401DD
:1001C000823049F080912201882339F0CE0183707A
:1001D0009070892B11F480E801C080E08E2B0E9482
:1001E0009D00F80181816AE00E945D08E82FF0E03F
:1001F000E050FF4FE08180912401823049F08091EE
:100200002201882339F0CE0183709070019711F498
:1002100080E801C080E08E2B0E949D00F801828161
:100220006AE00E945D08E92FF0E0E050FF4FE081B6
:1002300080912401813049F080912201882339F096
:10024000CE0183709070029711F480E801C080E0C5
:100250008E2B0E949D00F8018281209124018A301A
:1002600070F4213041F080912201882331F0C37075
:10027000D070239711F48FEF18C08FE716C06AE093
:100280000E945D08E82FF0E0E050FF4FE081213050
:1002900041F080912201882331F0C370D070239700
:1002A00011F480E801C080E08E2B0E949D005F9ACF
:1002B000DF91CF911F910F910895809122018823A2
:1002C00089F08091230124E630E0281B3109253094
:1002D000310514F425E030E0B901882777FD8095D9
:1002E000982F04C064EF71E080E090E00E9427073F
:1002F000089587E061E00E94BB0786E061E00E940C
:10030000BB0788E061E00E94BB0708950F931F932D
:100310000CE611E0C80168E670E00E949203C80193
:100320006EE00E941404C8016CE10E941404C8012C
:1003300060E80E941404C8010E9457041F910F91A5
:1003400008958CE691E00E946C040E94860180E092
:1003500090E00895EF92FF920F931F937C010CE6BB
:1003600011E0C80168E670E00E949203C80160E0F5
:100370000E941404F70180810E948C00682FC8013C
:100380000E941404F70181810E948C00682FC8012B
:100390000E941404F70182810E948C00682FC8011A
:1003A0000E941404F70183810E948C00682FC80109
:1003B0000E941404F70184810E948C00682FC801F8
:1003C0000E941404F70185810E948C00682FC801E7
:1003D0000E941404F70186810E948C00682FC801D6
:1003E0000E941404C8010E9457041F910F91FF90AE
:1003F000EF900895FF920F931F930CE611E0C80150
:1004000068E670E00E949203C80160E00E94140454
:1004100080E00E948C00682FC8010E9414048BE1C8
:100420000E948C00F82EC8016F2D0E94140486E1F2
:100430000E948C00682FC8010E94140481E00E9471
:100440008C00682FC8010E941404C8016F2D0E94FF
:10045000140485E00E948C00682FC8010E941404D7
:100460008DE00E948C00682FC8010E941404C8010E
:100470000E9457041F910F91FF9008950E947901E7
:1004800080E00E94A10187B18C7F87B988B1836029
:1004900088B985B78F7E85BF85E291E061E070E025
:1004A0000E947F03813059F00E9486010E94FA0168
:1004B00085E291E061E070E041E00E9486030895EA
:1004C000DF92EF92FF920F931F937C010CE611E0F5
:1004D000C80168E670E00E949203C80160E00E94D3
:1004E0001404C8010E945704C80168E670E047E0A0
:1004F00050E00E946804C8010E94A503282F2F77AE
:1005000022952F703AE0D32E2D9D900111248F70EB
:10051000820FF7018083C8010E94A503282F2F773F
:1005200022952F702D9D900111248F70820FF7015D
:100530008183C8010E94A503282F2F7322952F7055
:100540002D9D900111248F70820FF7018283C801C5
:100550000E94A5038770F7018383C8010E94A50349
:10056000282F2F7322952F702D9D900111248F70AD
:10057000820FF7018483C8010E94A503282F2F71E1
:1005800022952F702D9D900111248F70820FF701FD
:100590008583C8010E94A503282F22952F702D9DC9
:1005A000900111248F70820FF7018683C8010E9489
:1005B00057041F910F91FF90EF90DF900895DF9205
:1005C000EF92FF920F931F93DF93CF93CDB7DEB7D8
:1005D00027970FB6F894DEBF0FBECDBF309957C036
:1005E0006CE271E080E090E00E94270781E0809358
:1005F000240100E010E07E010894E11CF11C42E0BF
:10060000D42E319924C066E970E080E090E00E9429
:100610002707C7010E9460020115110521F0013072
:10062000110591F409C08B8190E0019668E170E0BA
:100630000E9469088B8308C08A8190E001966CE370
:1006400070E00E9469088A83C7010E94AA0130995C
:100650000AC06CE271E080E090E00E942707D0922F
:1006600024010F5F1F4FC7010E946002C7010E9453
:10067000B2000E945D0162E370E080E090E00E94C1
:100680002707023011050CF4BCCF109224012796E5
:100690000FB6F894DEBF0FBECDBFCF91DF911F9193
:1006A0000F91FF90EF90DF9008950F931F93DF93CA
:1006B000CF93CDB7DEB727970FB6F894DEBF0FBE46
:1006C000CDBF0E94DF028E010F5F1F4FC8010E9445
:1006D0006002C8010E94B2000E945D0165E070E006
:1006E00080E090E00E94270727960FB6F894DEBFBF
:1006F0000FBECDBFCF91DF911F910F910895F99952
:10070000FECF72BD61BDF89A80B50895F999FECF0C
:100710001FBA72BD61BD40BD0FB6F894FA9AF99A3E
:100720000FBE089581E080936B01609348011092A1
:10073000690110926A0108952091470130E080918B
:100740004601281B3109C901089540914601809155
:100750004701481718F02FEF3FEF0AC0E42FF0E0F1
:10076000EA5DFE4F8081282F30E04F5F40934601C5
:10077000C9010895E091460180914701E81718F0FA
:10078000EFEFFFEF06C0F0E0EA5DFE4F8081E82F5B
:10079000F0E0CF010895089510926F0110926E015C
:1007A00088EE93E0A0E0B0E0809370019093710137
:1007B000A0937201B093730186E191E090936D0173
:1007C00080936C010895CF92DF92EF92FF920F9386
:1007D0001F93CF93DF937C016B018A0180916B01A2
:1007E0008823A1F0C0E0D0E00DC0D701ED91FC91CD
:1007F000D601AC0FBD1F0190F081E02DC7016C91B7
:1008000009952196C017D10780F304C0CB01642F4E
:100810000E941505C801DF91CF911F910F91FF90A4
:10082000EF90DF90CF900895DF93CF930F92CDB7E5
:10083000DEB7FC01698380916B018823C9F0809148
:100840006A01803238F081E090E09383828320E077
:1008500030E015C080916901E82FF0E0E75BFE4FC2
:10086000998190838F5F8093690180936A0105C0AD
:10087000CE01019661E00E94150521E030E0C9013A
:100880000F90CF91DF9108950F93062F809148012B
:1008900069E471E040916A0121E00E94C004109275
:1008A000690110926A0110926B010F91089561E045
:1008B0000E9444040895413208F040E2862F66E227
:1008C00071E00E94770410924601809347010895D9
:1008D00021E00E945B0408951092460110924701A6
:1008E0001092690110926A010E94C1060895382F82
:1008F000413210F040E042C0809178018823E1F756
:1009000091E09093780120937A018FEF8093E50135
:100910001092A00141504093A1014F5F9093790143
:1009200080917901330F832B8093790180917B0132
:10093000813041F410927B01809179018093BB005A
:1009400085EC01C085EE8093BC00809178018130F8
:10095000E1F38091A001841710F44091A00120E000
:1009600030E00AC0FB01E20FF31FD901A058BE4FCF
:100970008C9180832F5F3F4F2417A0F3842F08951D
:100980000F931F93582F122F413210F081E04AC06D
:10099000809178018823E1F782E0809378010093C9
:1009A0007A018FEF8093E5011092A0014093A1019D
:1009B000A0E8B1E0FB0102C081918D938E2F861BD0
:1009C0008417D0F31092790180917901550F852B0E
:1009D0008093790180917B01813041F410927B01F9
:1009E000809179018093BB0085EC01C085EE8093F6
:1009F000BC00112321F0809178018230E1F38091D5
:100A0000E5018F3F11F480E00DC08091E501803257
:100A100011F482E007C08091E501803311F084E099
:100A200001C083E01F910F910895482F613210F0AB
:100A300081E0089580917801843011F082E008957A
:100A40006093C301A2EAB1E0842F9C01F90102C0C6
:100A500081918D938E2F841B8617D0F380E00895AB
:100A60001F920F920FB60F9211242F933F934F9323
:100A70005F936F937F938F939F93AF93BF93EF9306
:100A8000FF938091B90090E0887F90708036910547
:100A900009F4F2C081369105CCF58832910509F44C
:100AA0007BC089329105B4F48031910509F46FC09F
:100AB000813191053CF4009709F447C1089709F08A
:100AC0004FC165C08831910509F466C0809709F06F
:100AD00047C182C08034910509F4A4C081349105D6
:100AE00044F48033910509F482C0C89709F038C1F5
:100AF00089C08035910509F489C08835910509F4CC
:100B000096C08834910509F02BC1AEC08839910593
:100B100009F413C189399105ECF48837910509F47A
:100B2000ABC0893791054CF48836910509F4A4C00F
:100B30008037910509F014C19FC08838910509F4E8
:100B4000FCC08039910509F49DC08038910509F0F9
:100B500007C198C0803B910509F4C6C0813B91054F
:100B60004CF4803A910509F49FC0883A910509F048
:100B7000F7C0BAC0803C910509F4E3C0883C9105F8
:100B800009F4DFC0883B910509F0EAC0C2C080913A
:100B900079018093BB00CFC09091A0018091A10109
:100BA000981768F49091A001E92FF0E0E058FE4F0B
:100BB00080818093BB009F5F9093A001BCC0809117
:100BC0007A01882309F44BC085ED8093BC008091A5
:100BD000BC0084FDFCCFC2C080E28093E50185EDBE
:100BE0008093BC008091BC0084FDFCCFB7C080E343
:100BF0008093E50185ED8093BC008091BC0084FD6D
:100C0000FCCFACC088E38093E5019BC08091A0013C
:100C10009091BB00E82FF0E0E058FE4F90838F5F8B
:100C20008093A0019091A0018091A10182C0809148
:100C3000A0019091BB00E82FF0E0E058FE4F9083B8
:100C40008F5F8093A00180917A01882341F085ED28
:100C50008093BC008091BC0084FDFCCF7FC081E00C
:100C600080937B0184EA6EC085ED8093BC00809107
:100C7000BC0084FDFCCF72C083E0809378011092A9
:100C8000E40159C08091E401803208F056C080919F
:100C9000E4019091BB00E82FF0E0EC53FE4F90830D
:100CA0008F5F8093E40147C08091E401803230F48B
:100CB000E091E401F0E0EC53FE4F108285ED80936B
:100CC000BC008091BC0084FDFCCF10927801609143
:100CD000E401E0917E01F0917F0184EC91E070E00D
:100CE00009951092E4012DC084E080937801109260
:100CF000C2011092C301E0917C01F0917D01099540
:100D00008091C301882329F481E08093C30110926C
:100D1000A2019091C201E92FF0E0EE55FE4F8081D3
:100D20008093BB009F5F9093C2019091C20180911C
:100D3000C301981710F485EC01C085E88093BC00CE
:100D40000FC085EC8093BC0009C01092E50185EDD1
:100D50008093BC008091BC0084FDFCCF1092780190
:100D6000FF91EF91BF91AF919F918F917F916F9183
:100D70005F914F913F912F910F900FBE0F901F9059
:100D800018951092780181E080937A0110927B018E
:100D900082E161E00E94FA0783E161E00E94FA07C4
:100DA000E9EBF0E080818E7F808380818D7F80837E
:100DB00088E48093B80085E48093BC0008951F9276
:100DC0000F920FB60F9211242F933F938F939F93FF
:100DD000AF93BF938091EA019091EB01A091EC0158
:100DE000B091ED013091EE010196A11DB11D232FAF
:100DF0002D5F2D3720F02D570196A11DB11D209399
:100E0000EE018093EA019093EB01A093EC01B09383
:100E1000ED018091E6019091E701A091E801B09188
:100E2000E9010196A11DB11D8093E6019093E701B0
:100E3000A093E801B093E901BF91AF919F918F9189
:100E40003F912F910F900FBE0F901F9018959B010F
:100E5000AC017FB7F8948091E6019091E701A091F1
:100E6000E801B091E90166B5A89B05C06F3F19F094
:100E70000196A11DB11D7FBFBA2FA92F982F8827DA
:100E8000860F911DA11DB11D62E0880F991FAA1F39
:100E9000BB1F6A95D1F7BC012DC0FFB7F8948091B4
:100EA000E6019091E701A091E801B091E901E6B572
:100EB000A89B05C0EF3F19F00196A11DB11DFFBF12
:100EC000BA2FA92F982F88278E0F911DA11DB11D14
:100ED000E2E0880F991FAA1FBB1FEA95D1F7861B76
:100EE000970B885E9340C8F22150304040405040FC
:100EF00068517C4F211531054105510571F6089562
:100F0000789484B5826084BD84B5816084BD85B5E4
:100F1000826085BD85B5816085BDEEE6F0E08081AB
:100F200081608083E1E8F0E01082808182608083CC
:100F3000808181608083E0E8F0E08081816080834F
:100F4000E1EBF0E0808184608083E0EBF0E0808181
:100F500081608083EAE7F0E0808184608083808123
:100F600082608083808181608083808180688083CB
:100F70001092C1000895CF93DF93482F50E0CA012B
:100F800086569F4FFC0134914A575F4FFA01849176
:100F9000882369F190E0880F991FFC01E859FF4F01
:100FA000A591B491FC01EE58FF4FC591D4916623F1
:100FB00051F42FB7F8948C91932F909589238C93AB
:100FC000888189230BC0623061F42FB7F8948C912B
:100FD000932F909589238C938881832B88832FBFAF
:100FE00006C09FB7F8948C91832B8C939FBFDF91A1
:100FF000CF910895482F50E0CA0182559F4FFC01C0
:101000002491CA0186569F4FFC0194914A575F4F25
:10101000FA013491332309F440C0222351F12330E3
:1010200071F0243028F42130A1F0223011F514C0E1
:101030002630B1F02730C1F02430D9F404C08091BB
:1010400080008F7703C0809180008F7D8093800027
:1010500010C084B58F7702C084B58F7D84BD09C070
:101060008091B0008F7703C08091B0008F7D809316
:10107000B000E32FF0E0EE0FFF1FEE58FF4FA591F9
:10108000B4912FB7F894662321F48C91909589231D
:1010900002C08C91892B8C932FBF0895CF93DF933F
:1010A0000E9480070E943E02C0E0D0E00E945503EB
:1010B0002097E1F30E940000F9CF991B79E004C06A
:1010C000991F961708F0961B881F7A95C9F7809587
:1010D000089597FB092E07260AD077FD04D00CD07F
:1010E00006D000201AF4709561957F4F0895F6F7A9
:1010F000909581959F4F0895AA1BBB1B51E107C096
:10110000AA1FBB1FA617B70710F0A61BB70B881F97
:10111000991F5A95A9F780959095BC01CD01089526
:10112000EE0FFF1F0590F491E02D0994F894FFCF86
:10113000041F28091341400F000101020408102078
:101140004080000000001404E3039C03A503BA03DD
:02115000CB03CF
:00000001FF
