:100000000C94AB000C94D3000C94D3000C94170206
:100010000C9441020C946B020C94D3000C94D3000A
:100020000C94D3000C94D3000C94D3000C94D30004
:100030000C94D3000C94D3000C94D3000C94D300F4
:100040000C946E060C94D3000C9416050C94D300FB
:100050000C94D3000C94D3000C94D3000C94D300D4
:100060000C94D3000C94D30000C2010001001100D5
:1000700011000D0000E100000A002500250022000B
:10008000009600001900390039003600127A00008D
:100090001F004600460044008070000022004D0012
:1000A0004D004A00004B00003600750075007200DC
:1000B000403800004A009C009C0099008025000008
:1000C0007200EC00EC00E900C0120000E900DA0167
:1000D000DA01D70160090000D701B603B603B30304
:1000E000B0040000B3036E076E076B072C0100001D
:1000F000DC0EC11DC11DBE1D000000002400270034
:100100002A0000000000250028002B00000000004D
:100110002300260029000404040404040404020249
:100120000202020203030303030301020408102076
:100130004080010204081020010204081020000081
:100140000007000201000003040600000000000098
:1001500000009D04170611241FBECFEFD8E0DEBFBC
:10016000CDBF11E0A0E0B1E0E6E3F0E102C0059010
:100170000D92AE32B107D9F712E0AEE2B1E001C0A4
:100180001D92A732B107E1F711E0C6E5D1E004C046
:100190002297FE010E941508C235D107C9F70E94B7
:1001A0000F050C9419080C94000080912E010895FD
:1001B000FF920F931F93CF93DF93EC0162E370E004
:1001C00080E090E00E94DE0689E092E00E94D00587
:1001D000888389E092E00E94D005898389E092E0DB
:1001E0000E94D0058A8389E092E00E94D0058B832B
:1001F0008E01FF2406C089E092E00E94F80515C038
:10020000F39489E092E00E94BC05882371F088E3B2
:10021000F81659F089E092E00E94D005F801848335
:100220000F5F1F4F882361F7E6CFCE01DF91CF919B
:100230001F910F91FF900895EF92FF920F931F93DC
:100240007C0162E370E080E090E00E94DE0609E05D
:1002500012E0C8016CE171E00E945606C801F70186
:1002600060810E944E06C801F70161810E944E061E
:10027000C801F70162810E944E06C801F70163813F
:100280000E944E0684E090E0E80EF91EC801B70116
:100290000E945606C8016FE171E00E94560662E3B3
:1002A00070E080E090E00E94DE061F910F91FF90C9
:1002B000EF900895EF92FF920F931F93DF93CF93E8
:1002C000CDB7DEB7EC970FB6F894DEBF0FBECDBF4B
:1002D0007C0110922E0189E092E00E94BC058823E7
:1002E00041F164E670E080E090E00E94DE0610E0FC
:1002F00001E019C089E092E00E94D005843211F437
:1003000011E011C0112379F08A3261F4C7010E9413
:10031000D800D701FC018CE301900D928150E1F7E8
:1003200000932E0110E089E092E00E94BC05882332
:1003300009F780912E018823A9F0F701838181308C
:1003400089F4808189838FEF8A838B838C8381E416
:100350008D8383E48E838BE48F831886CE01019690
:100360000E941C01C701EC960FB6F894DEBF0FBEC9
:10037000CDBFCF91DF911F910F91FF90EF90089526
:100380001F93CF93DF93FC01A481B5812C917381DE
:10039000272309F048C08185928501972FEF8F3F71
:1003A0009207D9F7C385D48560E031E040E050E0A2
:1003B00010E0CE01212F01972FEF8F3F9207D9F741
:1003C0008C91872311F0632B03C0832F80956823C2
:1003D000330F4F5F5F4F4830510559F7858596853C
:1003E00020E001972FEF8F3F9207D9F7809171019D
:1003F0002091720190E001968F73907030E0821727
:10040000930779F0E0917101F0E0EF5CFE4F6083BB
:100410008091710190E001968F73907080937101CB
:1004200002C081E0818BDF91CF911F9108951F92CF
:100430000F920FB60F9211242F933F934F935F9318
:100440006F937F938F939F93AF93BF93EF93FF939C
:1004500080912F0190913001009711F00E94C0010E
:10046000FF91EF91BF91AF919F918F917F916F918C
:100470005F914F913F912F910F900FBE0F901F9062
:1004800018951F920F920FB60F9211242F933F933E
:100490004F935F936F937F938F939F93AF93BF938C
:1004A000EF93FF9380912F0190913001009711F00D
:1004B0000E94C001FF91EF91BF91AF919F918F91E9
:1004C0007F916F915F914F913F912F910F900FBE50
:1004D0000F901F9018951F920F920FB60F92112434
:1004E0002F933F934F935F936F937F938F939F933C
:1004F000AF93BF93EF93FF9380912F0190913001C1
:10050000009711F00E94C001FF91EF91BF91AF9150
:100510009F918F917F916F915F914F913F912F911B
:100520000F900FBE0F901F901895CF92DF92EF9211
:10053000FF920F931F93CF93DF93EC017A018B010E
:10054000188A1F861E861D861C861B861A8619869B
:1005500020E030E06901CC0CDD1CC20ED31EB601D8
:10056000660F771F660F771FAB0148595F4FFA017F
:1005700085919591A591B4918E159F05A007B1071E
:10058000E9F4FB01E459FF4F859194919A8789879B
:10059000FB01E259FF4F859194919C878B87FB016A
:1005A000E059FF4F859194919E878D87FB01EE580E
:1005B000FF4F85919491988B8F8706C02F5F3F4F97
:1005C0002C30310509F0C6CF8D859E85892B09F425
:1005D0004CC03A81383090F48091680084608093F8
:1005E000680020916D0081E090E002C0880F991FA3
:1005F0003A95E2F7282B20936D002FC03E30B0F4DF
:100600008091680081608093680040916B00232F87
:1006100030E02850304081E090E002C0880F991F00
:100620002A95E2F7482B40936B0017C03631A8F4A7
:100630008091680082608093680040916C00232F55
:1006400030E02E50304081E090E002C0880F991FCA
:100650002A95E2F7482B40936C008F85988920E01B
:1006600001972FEF8F3F9207D9F780912F0190913B
:1006700030018C179D0771F0198A9FB7F89410927A
:1006800071018091710180937201D0933001C09308
:100690002F019FBFDF91CF911F910F91FF90EF909E
:1006A000DF90CF900895FC0180912F01909130014F
:1006B0008E179F0779F0118A9FB7F89410927101F5
:1006C0008091710180937201F0933001E0932F01CA
:1006D0009FBF06C09091720180917101981719F423
:1006E0002FEF3FEF0FC0E0917201F0E0EF5CFE4FA3
:1006F00020818091720190E001968F7390708093B9
:10070000720130E0C9010895FC0180912F019091A0
:1007100030018E179F0781F0118A9FB7F8941092CD
:1007200071018091710180937201F0933001E09327
:100730002F019FBF80E00895809171012091720187
:1007400090E0805C9F4F821B910960E470E00E9402
:10075000AF0708950F931F93DC011F968D919C9115
:100760005097892B09F46EC080912F019091300130
:100770008A179B0781F051961C9251979FB7F89466
:10078000109271018091710180937201B0933001D8
:10079000A0932F019FBF1FB7F8941796ED91FC917E
:1007A0001897908116968C9116978095892380834F
:1007B0001F968D919C915097059620E001972FEF01
:1007C0008F3F9207D9F731E040E050E070E000E061
:1007D000832F90E0862397231796ED91FC9118972D
:1007E00016962C911697892B21F08081822B80837D
:1007F00004C080812095282320831F968D919C9191
:100800005097202F01972FEF8F3F9207D9F7330F83
:100810004F5F5F4F48305105D9F61796ED91FC9127
:100820001897808116969C911697892B80831FBFFD
:100830001F968D919C91509720E001972FEF8F3F4D
:100840009207D9F71F910F910895FF920F931F936D
:100850008C01F62E862F60E00E9442078F2D61E00A
:100860000E946207D8011296FC9212978F2D90E099
:10087000FC01E65DFE4FE4911396EC9313978A5EBC
:100880009E4FFC016491E62FF0E0EE0FFF1FE45F46
:10089000FE4F8591949115969C938E9314971F917A
:1008A0000F91FF900895FF920F931F938C01F62EE6
:1008B000862F61E00E9442078F2D61E00E9462074F
:1008C0008F2D90E0FC01E65DFE4FE491D801169675
:1008D000EC9316978A5E9E4FFC016491E62FF0E040
:1008E000EE0FFF1FEE5FFE4F8591949118969C933B
:1008F0008E9317971F910F91FF900895FF920F937A
:100900001F938C01F62E86E291E0F801918380839B
:10091000128611861486138616861586108A178607
:10092000118AC801642F0E945304C8016F2D0E94D0
:1009300025041F910F91FF90089583E791E063E0F4
:1009400042E00E947E0408950F931F93DF93CF939C
:10095000CDB7DEB7C857D0400FB6F894DEBF0FBE94
:10096000CDBF83E791E00E948403882399F083E759
:1009700091E00E945303982F882361F081E08983DE
:1009800082E68A8380E88B839D831E82CE01019656
:100990000E941C018E01035C1F4FC8010E945A0176
:1009A000D801FC018CE301900D928150E1F70E9487
:1009B000D500882389F083E791E06EAD0E944E0652
:1009C00083E791E06FAD0E944E0683E791E0BE01A0
:1009D0006F5B7F4F0E9456066AE070E080E090E017
:1009E0000E94DE06C858DF4F0FB6F894DEBF0FBE78
:1009F000CDBFCF91DF911F910F91089583E791E0D3
:100A000040E855E260E070E00E94950289E092E0E3
:100A100040E855E260E070E00E94530508950E94AE
:100A200008070E94FE040E94A404FDCF1F920F92AB
:100A30000FB60F9211242F933F934F935F936F93B1
:100A40007F938F939F93AF93BF93EF93FF934091C7
:100A5000C600E0910502F0910602CF01019660E820
:100A600070E00E94AF079C018091070290910802FC
:100A70002817390739F0EB57FE4F408330930602B1
:100A800020930502FF91EF91BF91AF919F918F91BC
:100A90007F916F915F914F913F912F910F900FBE7A
:100AA0000F901F901895AF92BF92CF92DF92EF9266
:100AB000FF920F931F93CF93DF936C017A018B0109
:100AC000DC011496AD90BC901597CB01BA0122E0E1
:100AD00030E040E050E00E94E407205C3D4B404F96
:100AE0005F4FCA01B901A80197010E94E407C9013B
:100AF000DA010197A109B109292F3A2F4B2F552768
:100B000047FD5A950196A11DB11DE5012883E60117
:100B1000EE81FF8181508083EA85FB85208141E061
:100B200050E0CA010E8402C0880F991F0A94E2F7B0
:100B3000282B2083EA85FB852081CA010F8402C00F
:100B4000880F991F0A94E2F7282B2083EA85FB85FA
:100B50008081088802C0440F551F0A94E2F7842B55
:100B60008083DF91CF911F910F91FF90EF90DF90E5
:100B7000CF90BF90AF900895DC011296ED91FC915B
:100B80001397E058FF4F8191919180589F4F20819A
:100B90003181821B930B60E870E00E94AF070895DB
:100BA000CF93DF93DC011296ED91FC911397EF0147
:100BB000CE57DF4F48815981E058FF4F80819181A6
:100BC000E058F0408417950719F42FEF3FEF0CC061
:100BD000E40FF51F2081CA01019660E870E00E94D1
:100BE000AF079983888330E0C901DF91CF910895E1
:100BF000DC011296ED91FC911397EE57FF4F808127
:100C00009181929382930895FC01A085B1852189F9
:100C10008C9190E0022E02C0959587950A94E2F798
:100C200080FFF6CF0484F585E02D608308958CE283
:100C300091E090930A028093090285E891E09093F5
:100C40000C0280930B0285EC90E090930E0280934F
:100C50000D0284EC90E09093100280930F0280ECE0
:100C600090E0909312028093110281EC90E09093B7
:100C700014028093130286EC90E090931602809306
:100C8000150284E08093170283E08093180287E0C6
:100C90008093190285E080931A020895DC01ED919A
:100CA000FC910190F081E02D099508950F931F9319
:100CB000CF93DF938C01EB0109C02196D801ED9110
:100CC000FC910190F081E02DC801099568816623AF
:100CD000A1F7DF91CF911F910F9108951F920F926D
:100CE0000FB60F9211242F938F939F93AF93BF93BF
:100CF00080911B0290911C02A0911D02B0911E02D6
:100D00000196A11DB11D80931B0290931C02A0931C
:100D10001D02B0931E0280911F0290912002A091AB
:100D20002102B09122028050904CAF4FBF4F809370
:100D30001F0290932002A0932102B093220227C0A9
:100D400080911F0290912002A0912102B091220275
:100D500080589E43A040B04080931F029093200291
:100D6000A0932102B0932202809123029091240249
:100D7000A0912502B09126020196A11DB11D80937C
:100D8000230290932402A0932502B093260280911F
:100D90001F0290912002A0912102B091220281585D
:100DA0009E43A040B04060F6BF91AF919F918F915C
:100DB0002F910F900FBE0F901F901895EF92FF92FA
:100DC0000F931F937B018C018FB7F89440912302FE
:100DD0005091240260912502709126028FBF2FB797
:100DE000F8948091230290912402A0912502B09161
:100DF00026022FBF841B950BA60BB70BE816F9062E
:100E00000A071B0760F71F910F91FF90EF9008955D
:100E1000789484B5826084BD84B5816084BD85B5D5
:100E2000826085BD85B5816085BDEEE6F0E080819C
:100E300081608083E1E8F0E080818260808380814E
:100E400081608083E0E8F0E0808181608083E1EB75
:100E5000F0E0808184608083E0EBF0E0808181605D
:100E60008083EAE7F0E08081846080838081826013
:100E700080838081816080838081806880831092FC
:100E8000C1000895282F30E0C901865D9E4FFC0106
:100E900094912A5E3E4FF9018491882391F0E82FC6
:100EA000F0E0EE0FFF1FE850FF4FA591B4916623CD
:100EB00029F48C91909589238C9308958C91892B9A
:100EC0008C930895482F50E0CA01825C9E4FFC012C
:100ED0002491CA01865D9E4FFC0194914A5E5E4F4B
:100EE000FA0134913323D1F1222331F1233021F45B
:100EF000809180008F7705C0243031F4809180008C
:100F00008F7D8093800018C0213019F484B58F77CD
:100F100004C0223021F484B58F7D84BD0DC02630FD
:100F200021F48091B0008F7705C0273029F480919B
:100F3000B0008F7D8093B000E32FF0E0EE0FFF1F35
:100F4000EE5FFE4FA591B491662329F48C919095A4
:100F500089238C9308958C91892B8C93089597FB0A
:100F6000092E07260AD077FD04D049D006D00020EC
:100F70001AF4709561957F4F0895F6F790958195D5
:100F80009F4F0895A1E21A2EAA1BBB1BFD010DC0A5
:100F9000AA1FBB1FEE1FFF1FA217B307E407F50729
:100FA00020F0A21BB30BE40BF50B661F771F881F05
:100FB000991F1A9469F760957095809590959B019B
:100FC000AC01BD01CF01089597FB092E05260ED077
:100FD00057FD04D0D7DF0AD0001C38F45095409557
:100FE000309521953F4F4F4F5F4F0895F6F79095FD
:100FF0008095709561957F4F8F4F9F4F0895AA1BE5
:10100000BB1B51E107C0AA1FBB1FA617B70710F0F3
:10101000A61BB70B881F991F5A95A9F78095909525
:10102000BC01CD010895EE0FFF1F0590F491E02D56
:061030000994F894FFCFC3
:1010360049443A2000547970653A20005375625449
:101046007970653A200041636B3A2000242A002A11
:0E105600240000000000AA03000000000406B1
:00000001FF
