:1000000012C01FC01EC01DC01CC01CC01AC019C019
:1000100018C017C016C015C014C013C012C011C03C
:1000200010C00FC00EC011241FBECFEDCDBF10E019
:10003000A0E6B0E001C01D92A436B107E1F752D0AE
:1000400087C0DECF1F920F920FB60F9211248F93AD
:100050009F93809160009091610001969093610060
:10006000809360008091620090916300019690936C
:10007000630080936200809160009091610002971C
:1000800070F01092610010926000809907C0C79ACA
:100090001092630010926200949A01C0C7988091F8
:1000A000620090916300C39728F010926300109251
:1000B000620012BA9F918F910F900FBE0F901F9008
:1000C000189583E08EBD80E889BF7894089580B745
:1000D000836080BF80B7806880BF83B7816083BF43
:1000E00016BE089590E896BD16BC8EEF81BB8FEFCB
:1000F00087BB109261001092600080B7836080BF60
:1001000080B7806880BF83B7816083BF16BE83E0FD
:100110008EBD99BF789420E040E553EC68EC70E028
:1001200005C026BFCA010197F1F72F5F243BC8F332
:1001300024EB26BFCA010197F1F72150D1F716BE73
:1001400080E29EE4FB013197F1F70197D9F7E9CFFF
:04015000F894FFCF51
:00000001FF
