:100000000C94AB000C94D3000C94D3000C947901A5
:100010000C94A3010C94CD010C94D3000C94D30048
:100020000C94D3000C94D3000C94D3000C94D30004
:100030000C94D3000C94D3000C94D3000C94D300F4
:100040000C94CF050C94D3000C94BF040C94D300F3
:100050000C94D3000C94D3000C94D3000C94D300D4
:100060000C94D3000C94D30000C2010001001100D5
:1000700011000D0000E100000A002500250022000B
:10008000009600001900390039003600127A00008D
:100090001F004600460044008070000022004D0012
:1000A0004D004A00004B00003600750075007200DC
:1000B000403800004A009C009C0099008025000008
:1000C0007200EC00EC00E900C0120000E900DA0167
:1000D000DA01D70160090000D701B603B603B30304
:1000E000B0040000B3036E076E076B072C0100001D
:1000F000DC0EC11DC11DBE1D000000002400270034
:100100002A0000000000250028002B00000000004D
:100110002300260029000404040404040404020249
:100120000202020203030303030301020408102076
:100130004080010204081020010204081020000081
:100140000007000201000003040600000000000098
:100150000000FF03780511241FBECFEFD8E0DEBFFB
:10016000CDBF11E0A0E0B1E0E8EFFEE002C00590F5
:100170000D92AE32B107D9F712E0AEE2B1E001C0A4
:100180001D92A632B107E1F711E0C6E5D1E004C047
:100190002297FE010E947607C235D107C9F70E9457
:1001A000B8040C947A070C940000FB01DC01415068
:1001B000504048F001900D920020C9F701C01D92F7
:1001C00041505040E0F70895EF92FF920F931F9334
:1001D0007C016EE170E080E090E00E943F0608E064
:1001E00012E0C8016CE171E00E94B705C801F70197
:1001F00060810E94AF05C801F70161810E94AF05CF
:10020000C801F70162810E94AF05C801F70163814F
:100210000E94AF0584E090E0E80EF91EC801B70126
:100220000E94B705C8016FE171E00E94B7056EE159
:1002300070E080E090E00E943F061F910F91FF90D8
:10024000EF9008951F93CF93DF93FC01A481B581B4
:100250002C917381272309F048C0818592850197ED
:100260002FEF8F3F9207D9F7C385D48560E031E047
:1002700040E050E010E0CE01212F01972FEF8F3F9B
:100280009207D9F78C91872311F0632B03C0832F3A
:1002900080956823330F4F5F5F4F4830510559F702
:1002A0008585968520E001972FEF8F3F9207D9F73C
:1002B000809170012091710190E001968F73907090
:1002C00030E08217930779F0E0917001F0E0E05D93
:1002D000FE4F60838091700190E001968F73907063
:1002E0008093700102C081E0818BDF91CF911F91DB
:1002F00008951F920F920FB60F9211242F933F93E0
:100300004F935F936F937F938F939F93AF93BF931D
:10031000EF93FF9380912E0190912F01009711F0A0
:100320000E942201FF91EF91BF91AF919F918F9118
:100330007F916F915F914F913F912F910F900FBEE1
:100340000F901F9018951F920F920FB60F921124C5
:100350002F933F934F935F936F937F938F939F93CD
:10036000AF93BF93EF93FF9380912E0190912F0154
:10037000009711F00E942201FF91EF91BF91AF9180
:100380009F918F917F916F915F914F913F912F91AD
:100390000F900FBE0F901F9018951F920F920FB6DF
:1003A0000F9211242F933F934F935F936F937F93FB
:1003B0008F939F93AF93BF93EF93FF9380912E0101
:1003C00090912F01009711F00E942201FF91EF916F
:1003D000BF91AF919F918F917F916F915F914F915D
:1003E0003F912F910F900FBE0F901F901895CF92B5
:1003F000DF92EF92FF920F931F93CF93DF93EC0165
:100400007A018B01188A1F861E861D861C861B8614
:100410001A86198620E030E06901CC0CDD1CC20E82
:10042000D31EB601660F771F660F771FAB014859C1
:100430005F4FFA0185919591A591B4918E159F0515
:10044000A007B107E9F4FB01E459FF4F85919491AE
:100450009A878987FB01E259FF4F859194919C8788
:100460008B87FB01E059FF4F859194919E878D8783
:10047000FB01EE58FF4F85919491988B8F8706C0B2
:100480002F5F3F4F2C30310509F0C6CF8D859E85FB
:10049000892B09F44CC03A81383090F4809168007F
:1004A00084608093680020916D0081E090E002C03C
:1004B000880F991F3A95E2F7282B20936D002FC0E3
:1004C0003E30B0F480916800816080936800409174
:1004D0006B00232F30E02850304081E090E002C0D4
:1004E000880F991F2A95E2F7482B40936B0017C09D
:1004F0003631A8F480916800826080936800409152
:100500006C00232F30E02E50304081E090E002C09C
:10051000880F991F2A95E2F7482B40936C008F852E
:10052000988920E001972FEF8F3F9207D9F78091AC
:100530002E0190912F018C179D0771F0198A9FB79A
:10054000F894109270018091700180937101D093A2
:100550002F01C0932E019FBFDF91CF911F910F916B
:10056000FF90EF90DF90CF900895FC0180912E01D5
:1005700090912F018E179F0779F0118A9FB7F894F9
:10058000109270018091700180937101F0932F019E
:10059000E0932E019FBF06C0909171018091700180
:1005A000981719F42FEF3FEF0FC0E0917101F0E0C1
:1005B000E05DFE4F20818091710190E001968F7384
:1005C00090708093710130E0C9010895FC01809121
:1005D0002E0190912F018E179F0781F0118A9FB7EE
:1005E000F894109270018091700180937101F093E2
:1005F0002F01E0932E019FBF80E00895809170014C
:100600002091710190E0805C9F4F821B910960E412
:1006100070E00E94100708950F931F93DC011F964E
:100620008D919C915097892B09F46EC080912E0179
:1006300090912F018A179B0781F051961C92519738
:100640009FB7F894109270018091700180937101AE
:10065000B0932F01A0932E019FBF1FB7F894179658
:10066000ED91FC911897908116968C911697809534
:10067000892380831F968D919C915097059620E049
:1006800001972FEF8F3F9207D9F731E040E050E01C
:1006900070E000E0832F90E0862397231796ED917A
:1006A000FC91189716962C911697892B21F0808132
:1006B000822B808304C080812095282320831F966D
:1006C0008D919C915097202F01972FEF8F3F92078C
:1006D000D9F7330F4F5F5F4F48305105D9F6179662
:1006E000ED91FC911897808116969C911697892B15
:1006F00080831FBF1F968D919C91509720E001979A
:100700002FEF8F3F9207D9F71F910F910895FF9216
:100710000F931F938C01F62E862F60E00E94A30694
:100720008F2D61E00E94C306D8011296FC921297A9
:100730008F2D90E0FC01E65DFE4FE4911396EC9363
:1007400013978A5E9E4FFC016491E62FF0E0EE0F56
:10075000FF1FE45FFE4F8591949115969C938E93B5
:1007600014971F910F91FF900895FF920F931F937D
:100770008C01F62E862F61E00E94A3068F2D61E08A
:100780000E94C3068F2D90E0FC01E65DFE4FE491D0
:10079000D8011696EC9316978A5E9E4FFC016491E1
:1007A000E62FF0E0EE0FFF1FEE5FFE4F8591949174
:1007B00018969C938E9317971F910F91FF90089511
:1007C000FF920F931F938C01F62E86E291E0F801C1
:1007D0009183808312861186148613861686158669
:1007E000108A1786118AC801642F0E94B503C801B8
:1007F0006F2D0E9487031F910F91FF90089582E74C
:1008000091E062E043E00E94E0030895EF92FF92DE
:100810000F931F93DF93CF93CDB7DEB7CA54D04069
:100820000FB6F894DEBF0FBECDBF82E791E00E9405
:10083000E602882309F45BC08E010F5F1F4F8FE033
:10084000E82EF12CEC0EFD1E82E791E00E94E602FC
:100850008823D1F382E791E00E94B502F8018193E9
:100860008F01EE15FF0581F78981823029F58E858C
:10087000833011F581E08F8780E4888B82E5898B56
:10088000CE014396BE016E5F7F4F4CE050E00E9468
:10089000D5001F8EC8010E94E4008CE061E00E9438
:1008A000C30660E273E080E090E00E943F068CE0C7
:1008B00060E00E94C3061BC000E010E08CE061E035
:1008C0000E94C30664E670E080E090E00E943F066C
:1008D0008CE060E00E94C30662E370E080E090E09C
:1008E0000E943F060F5F1F4F0330110539F7C65BAB
:1008F000DF4F0FB6F894DEBF0FBECDBFCF91DF91B3
:100900001F910F91FF90EF900895CF93DF938CE0AC
:1009100061E00E94A30688E092E040E855E260E0D2
:1009200070E00E94FC0482E791E040E855E260E05C
:1009300070E00E94F701C0E0D0E08CE061E00E942E
:10094000C30664E670E080E090E00E943F068CE021
:1009500060E00E94C30662E370E080E090E00E94E5
:100960003F062196C530D10541F7DF91CF9108951B
:100970000E9469060E9485040E940604FDCF1F9212
:100980000F920FB60F9211242F933F934F935F93C3
:100990006F937F938F939F93AF93BF93EF93FF9347
:1009A0004091C600E0910402F0910502CF0101964A
:1009B00060E870E00E9410079C018091060290910F
:1009C00007022817390739F0EC57FE4F4083309360
:1009D000050220930402FF91EF91BF91AF919F9187
:1009E0008F917F916F915F914F913F912F910F90D8
:1009F0000FBE0F901F901895AF92BF92CF92DF92CB
:100A0000EF92FF920F931F93CF93DF936C017A01C4
:100A10008B01DC011496AD90BC901597CB01BA0107
:100A200022E030E040E050E00E944507205C3D4B72
:100A3000404F5F4FCA01B901A80197010E944507C5
:100A4000C901DA010197A109B109292F3A2F4B2FCA
:100A5000552747FD5A950196A11DB11DE501288333
:100A6000E601EE81FF8181508083EA85FB8520814C
:100A700041E050E0CA010E8402C0880F991F0A9419
:100A8000E2F7282B2083EA85FB852081CA010F84A9
:100A900002C0880F991F0A94E2F7282B2083EA8569
:100AA000FB858081088802C0440F551F0A94E2F735
:100AB000842B8083DF91CF911F910F91FF90EF9056
:100AC000DF90CF90BF90AF900895FC01A085B185D5
:100AD00021898C9190E0022E02C0959587950A9409
:100AE000E2F780FFF6CF0484F585E02D608308955A
:100AF0008CE291E0909309028093080284E891E0EF
:100B000090930B0280930A0285EC90E090930D0283
:100B100080930C0284EC90E090930F0280930E027D
:100B200080EC90E0909311028093100281EC90E0B1
:100B3000909313028093120286EC90E0909315023A
:100B40008093140284E08093160283E0809317025E
:100B500087E08093180285E0809319020895DC01F4
:100B6000ED91FC910190F081E02D099508950F938E
:100B70001F93CF93DF938C01EB0109C02196D8011D
:100B8000ED91FC910190F081E02DC80109956881FB
:100B90006623A1F7DF91CF911F910F9108951F92C6
:100BA0000F920FB60F9211242F938F939F93AF93B1
:100BB000BF9380911A0290911B02A0911C02B091E8
:100BC0001D020196A11DB11D80931A0290931B0274
:100BD000A0931C02B0931D0280911E0290911F02EF
:100BE000A0912002B09121028050904CAF4FBF4F96
:100BF00080931E0290931F02A0932002B0932102C3
:100C000027C080911E0290911F02A0912002B091F6
:100C1000210280589E43A040B04080931E029093D2
:100C20001F02A0932002B093210280912202909192
:100C30002302A0912402B09125020196A11DB11DAD
:100C40008093220290932302A0932402B093250262
:100C500080911E0290911F02A0912002B09121026A
:100C600081589E43A040B04060F6BF91AF919F91E4
:100C70008F912F910F900FBE0F901F901895EF92AC
:100C8000FF920F931F937B018C018FB7F8944091D3
:100C900022025091230260912402709125028FBF9D
:100CA0002FB7F8948091220290912302A091240200
:100CB000B09125022FBF841B950BA60BB70BE8162E
:100CC000F9060A071B0760F71F910F91FF90EF903D
:100CD0000895789484B5826084BD84B5816084BDB4
:100CE00085B5826085BD85B5816085BDEEE6F0E0A5
:100CF000808181608083E1E8F0E080818260808390
:100D0000808181608083E0E8F0E080818160808381
:100D1000E1EBF0E0808184608083E0EBF0E08081B3
:100D200081608083EAE7F0E0808184608083808155
:100D300082608083808181608083808180688083FD
:100D40001092C1000895282F30E0C901865D9E4FA2
:100D5000FC0194912A5E3E4FF9018491882391F021
:100D6000E82FF0E0EE0FFF1FE850FF4FA591B49180
:100D7000662329F48C91909589238C9308958C9106
:100D8000892B8C930895482F50E0CA01825C9E4FB6
:100D9000FC012491CA01865D9E4FFC0194914A5E3C
:100DA0005E4FFA0134913323D1F1222331F1233004
:100DB00021F4809180008F7705C0243031F4809138
:100DC00080008F7D8093800018C0213019F484B595
:100DD0008F7704C0223021F484B58F7D84BD0DC08F
:100DE000263021F48091B0008F7705C0273029F498
:100DF0008091B0008F7D8093B000E32FF0E0EE0F84
:100E0000FF1FEE5FFE4FA591B491662329F48C91EC
:100E1000909589238C9308958C91892B8C930895B8
:100E200097FB092E07260AD077FD04D049D006D0BB
:100E300000201AF4709561957F4F0895F6F790950C
:100E400081959F4F0895A1E21A2EAA1BBB1BFD019D
:100E50000DC0AA1FBB1FEE1FFF1FA217B307E40799
:100E6000F50720F0A21BB30BE40BF50B661F771FF1
:100E7000881F991F1A9469F76095709580959095D1
:100E80009B01AC01BD01CF01089597FB092E0526FA
:100E90000ED057FD04D0D7DF0AD0001C38F450958F
:100EA0004095309521953F4F4F4F5F4F0895F6F78E
:100EB00090958095709561957F4F8F4F9F4F0895C6
:100EC000AA1BBB1B51E107C0AA1FBB1FA617B70770
:100ED00010F0A61BB70B881F991F5A95A9F780958C
:100EE0009095BC01CD010895EE0FFF1F0590F49180
:080EF000E02D0994F894FFCFF6
:100EF80049443A2000547970653A20005375625489
:100F08007970653A200041636B3A2000242A002A50
:0E0F18002400000000000C030000000065052E
:00000001FF
