:100000005EC0B3C075C074C073C072C071C070C030
:100010006FC06EC06DC06CC06BC06AC069C068C084
:1000200067C066C065C0050C0901A1018501190002
:100030002A3C021500263C02950175108100C0097A
:1000400002220001010080320904000001030101C5
:1000500000092101010001221900070581030800A0
:100060000A1201100100000008C016E0060001019C
:1000700002000128034D0069006E00690020006D38
:1000800000650064006900610020006B0065007974
:100090000062006F006100720064001E0365006C66
:1000A0000065006300740072006F00670065006502
:1000B000006B002E00630063000403090400112498
:1000C0001FBECFEDCDBF10E0A0E6B0E0E0EBF7E063
:1000D00002C005900D92A236B107D9F720E0A2E642
:1000E000B0E001C01D92AE39B207E1F79CD15EC30A
:1000F00087CFA82FB92F8FEF9FEF1BC02D9182279D
:10010000282F22952827722F269526952727239575
:1001100026952170782F892F82272195207C922F78
:1001200022277695279597278227769527959727D3
:100130008227615018F7809590950895DADF8D93A6
:100140009D930895A6E088279927AA9569F00197BD
:10015000E1F38499FCCF849BFECF81E09927A0B383
:10016000019611F0A471D9F70895CF93CFB7CF932B
:10017000C395849BE9F7849B09C0849B07C0849B3B
:1001800005C0849B03C0849B01C0A3C0DF93C091C2
:100190008100DD27C857DF4F849B02C0DF91EBCF82
:1001A0002F930F931F9300B32FEF04FB20F94F936E
:1001B0003F9310B34FEF012704FB21F93BE031C01F
:1001C0004E7F012F10B3216028C0102F4D7F226079
:1001D000000000B329C04B7F2460012F000010B342
:1001E0002BC010B3477F28602AC04F7E00B3206128
:1001F0002CC04F7D10B320622FC04F7B00B3206412
:1002000032C0422700B349934FEF0000102714FB80
:1002100020F910B31471C9F1297F91F2012704FB71
:1002200021F900B3237F89F2315058F1102714FBD4
:1002300022F910B3277E79F2012704FB23F92F7CE2
:1002400081F200B3102714FB24F92F7971F200C05A
:1002500010B3012704FB25F92F7359F200C000B336
:10026000102714FB26F9223040F200C010B30127FA
:1002700004FB27F9243028F64F77206810B30000DC
:10028000F9CF10E41ABF002719C03B503195C31BAA
:10029000D04010E41ABF0881033CF9F00B34E9F0B8
:1002A00020917F001981110F1213EDCF4A81441F55
:1002B000093641F10D3211F0013E29F70093860015
:1002C0003F914F911F910F912F91DF91CAB7C6FDBA
:1002D0004FCFCF91CFBFCF91189520918600222389
:1002E00079F310918400112369F534306AF1309369
:1002F000840020938000109181003BE0311B3093FB
:10030000810022C0009184000130E4F40AE54F70BE
:1003100049F43091610034FD19C000936100C8E6D2
:10032000D0E018C03091730034FD10C0009373000A
:10033000C4E7D0E00FC02795A8F45150A9F4220FCC
:100340000000F9CF4AE503C042ED01C0432FC4E1EC
:10035000D0E032E011B31461949A11BB02B320E4EF
:1003600014E15F93012756E002BB279520F451501A
:1003700021F4220FF9CF012756E000003B5A02BBBF
:10038000D0F2279528F4515029F4220F0000F9CF1C
:10039000012756E0279502BB20F4515021F4220F8B
:1003A000F9CF012756E02991332302BB21F60B7EBA
:1003B00010918500110FC651D04002BB11F010936F
:1003C0007F0010E41ABF006111B31B7E402F4B7EEB
:1003D0005F9100C000C002BB11BB42BB71CF08954A
:1003E000FC0183E690E090938300809382009081EB
:1003F0009076903211F080E008958181813049F04B
:10040000823049F08A30B9F783818093620080E0BE
:10041000089583E0089582E690E0909383008093AE
:10042000820081E008958AEF82BB87E081BB82E091
:1004300081BB85E083BFADD18C9A8FEFA895E7EBA8
:10044000FBE03197F1F700C000008150B9F78C98BC
:10045000789481E0809363001092650087B38C7F6D
:1004600087BB88B3836088BB85B785BF87B3886146
:1004700087BB88B3877E88BB63D0B09925C0C39AF9
:100480009DEC8091730084FD27C0C5E0D0E09FEB18
:10049000E4EDF1E09150E040F040E1F700C00000F1
:1004A000A8954ED087E293E20197F1F700C00000D3
:1004B0008091730084FFF4CF219749F788B3877E3A
:1004C00088BB3ED0B09BDBCFB199D3CFC49A95EB1C
:1004D0008091730084FFD9CF9093640063E083E63A
:1004E00090E00DD08FE295E70197F1F700C0000092
:1004F0001092640063E083E690E001D0C6CFCF9312
:10050000C62F2091730024FF17C03091740028E893
:10051000232720937400FC01A5E7B0E08C2F919174
:100520009D938150E1F76C2F85E790E007DECC5F6B
:10053000C0937300CF9108952AE520937300EBCF09
:10054000CF93DF9380918400835087FD07C0909103
:1005500080009D3209F456C01092840080916100A1
:1005600084FF35C0609160006F3F89F1693008F405
:1005700078C06850609360009091680088E889278F
:1005800080936800CCE068E0209182003091830085
:1005900080916700A9E6B0E0F90186FF75C0862F5B
:1005A00094919D9331968150D9F72F5F3F4F8FEFF4
:1005B000860F280F311D309383002093820089E637
:1005C00090E0BCDDCC3009F05BC0C093610094E1E9
:1005D00080B3847181F49150D9F710928500109204
:1005E0007F0080916600813019F0C1E0C093660001
:1005F000DF91CF910895C0E0809166008823C1F318
:10060000EEDEF4CF883009F0A7CF80918100CCE0F6
:10061000D0E0C81BD109C857DF4F83EC8093680036
:100620008AE580936100109267008881807691F559
:100630009A81109271008981811132C010927200EA
:1006400021E730E082E030938300209382009F8195
:10065000911104C09E81981708F4892F809360003F
:100660007BCF109260009091680088E88927809382
:100670006800611112C060E089E690E05FDDC4E0CF
:100680008FEF80936000A1CF862F91919D93815031
:10069000E1F78BCFCE01A4DEDACFC4E0C60F74CF72
:1006A000853071F0863039F1883081F08930B1F0D1
:1006B0008A3081F08B30C1F021E730E080E0C3CF99
:1006C0009093850021E730E080E0BDCF27E830E05F
:1006D00081E0B9CF21E730E081E0B5CF909387008A
:1006E00021E730E080E0AFCF8BE48093740021E716
:1006F00030E080E0A8CF8B81813069F0823069F1F1
:10070000833009F18132B9F0823269F080E090E4FF
:10071000909367009CCF81E690E090938300809354
:10072000820082E1F4CF86E290E090938300809390
:10073000820089E1ECCF81E590E090938300809383
:10074000820089E0E4CF911110C089EB90E0909392
:1007500083008093820084E0DACF8FE390E090936F
:1007600083008093820082E2D2CF913051F09230A8
:1007700069F683E790E0909383008093820088E29B
:10078000C6CF8BE990E090938300809382008EE146
:10079000BECF85B7826085BF8BB780648BBFE3E730
:1007A000F0E08BE481838AE580830895F894FFCF9D
:0207B000FF5AEE
:00000001FF
