:100000000C945C000C946E000C946E000C946E00CA
:100010000C946E000C946E000C946E000C946E00A8
:100020000C946E000C946E000C946E000C946E0098
:100030000C946E000C946E000C946E000C946E0088
:100040000C9445010C946E000C946E000C946E00A0
:100050000C946E000C946E000C946E000C946E0068
:100060000C946E000C946E00000000080002010069
:100070000003040700000000000000000000000072
:10008000250028002B0000000000240027002A0083
:10009000040404040404040402020202020203032E
:1000A0000303030301020408102040800102040836
:1000B000102001020408102011241FBECFEFD8E049
:1000C000DEBFCDBF21E0A0E0B1E001C01D92A531AF
:1000D000B207E1F70E948F010C94E2040C94000037
:1000E00090E0FC01EC55FF4F2491FC01E057FF4FDD
:1000F0008491882399F090E0880F991FFC01EA57BA
:10010000FF4FA591B491FC01E458FF4F8591949164
:100110008FB7F894EC91E22BEC938FBF089590E0A9
:10012000FC01E859FF4F3491FC01EC55FF4F24913D
:10013000FC01E057FF4FE491EE2309F43BC0332369
:1001400039F1333091F038F43130A9F0323001F523
:1001500084B58F7D12C0373091F03830A1F0343043
:10016000B9F4809180008F7D03C0809180008F77EB
:10017000809380000DC084B58F7784BD09C08091C5
:10018000B0008F7703C08091B0008F7D8093B00066
:10019000F0E0EE0FFF1FE458FF4FA591B4918FB729
:1001A000F894EC91611103C020952E2301C02E2BF1
:1001B0002C938FBF08958230910538F0880F991FD6
:1001C000880F991F05970197F1F708953FB7F894A5
:1001D0008091050190910601A0910701B09108015D
:1001E00026B5A89B05C02F3F19F00196A11DB11D92
:1001F0003FBFBA2FA92F982F8827820F911DA11DCD
:10020000B11DBC01CD0142E0660F771F881F991F09
:100210004A95D1F708958F929F92AF92BF92CF9255
:10022000DF92EF92FF926B017C010E94E6004B018E
:100230005C01C114D104E104F104F1F00E94E60074
:10024000DC01CB0188199909AA09BB09883E9340B2
:10025000A105B10570F321E0C21AD108E108F10847
:1002600088EE880E83E0981EA11CB11CC114D10435
:10027000E104F10419F7DDCFFF90EF90DF90CF900C
:10028000BF90AF909F908F9008951F920F920FB6DE
:100290000F9211242F933F938F939F93AF93BF930C
:1002A0008091010190910201A0910301B09104019C
:1002B0003091000123E0230F2D3720F40196A11D7A
:1002C000B11D05C026E8230F0296A11DB11D209384
:1002D00000018093010190930201A0930301B09368
:1002E00004018091050190910601A0910701B09150
:1002F00008010196A11DB11D80930501909306018F
:10030000A0930701B0930801BF91AF919F918F9186
:100310003F912F910F900FBE0F901F9018957894DA
:1003200084B5826084BD84B5816084BD85B58260FA
:1003300085BD85B5816085BD80916E0081608093AB
:100340006E00109281008091810082608093810014
:100350008091810081608093810080918000816024
:10036000809380008091B10084608093B10080917F
:10037000B00081608093B00080917A0084608093A7
:100380007A0080917A00826080937A0080917A006E
:10039000816080937A0080917A00806880937A00EF
:1003A0001092C10088E00E947000C2E18C2F0E9470
:1003B0007000C150C830D1F7C2E161E08C2F0E94BB
:1003C0008F0062E370E080E090E00E940B01C1507A
:1003D000C83099F760E08C2F0E948F0062E370E0D4
:1003E00080E090E00E940B01CF5FC23199F785E475
:1003F000E82E92E1F92EC0E0D0E060E088E00E94B3
:100400008F0088E191E00E94DB00E0927C00809107
:100410007A00806480937A0080917A0086FDFCCF18
:10042000609178008091790070E0782B072E000CA5
:10043000880B990B0E94C5034B015C01609311016D
:1004400070931201809313019093140188E290E05D
:100450000E94DB0061E088E00E948F0080ED95E261
:100460000E94DB0020E030E040EA5BE3C501B4011C
:100470000E9475044B015C0160930D0170930E01A5
:1004800080930F01909310012AE939E949E15FE374
:100490000E941603181634F52AE939E949E550E4B3
:1004A000C501B4010E94160318167CF02AE939E947
:1004B00049E15FE3C501B4010E94A90220E030E0F8
:1004C00040EC50E40E941B0310C020E030E040E507
:1004D00050E4C501B4010E94A9029B01AC010E9435
:1004E000AA0203C060E070E0CB0160930901709341
:1004F0000A0180930B0190930C0120E030E040E270
:1005000051E40E9475042DEC3CEC4CE45FE30E9446
:100510001B030E948D035B0100E010E00A151B0520
:1005200014F461E001C060E08F2D801B0E948F00F9
:100530000F5F1F4F0A30110589F764EF71E080E00B
:1005400090E00E940B01209709F457CF0E94000011
:1005500054CF5058BB27AA270E94C1020C943B04D9
:100560000E942D0438F00E94340420F039F49F3F9B
:1005700019F426F40C942A040EF4E095E7FB0C948D
:100580002404E92F0E944C0458F3BA17620773073A
:100590008407950720F079F4A6F50C946E040EF408
:1005A000E0950B2EBA2FA02D0B01B90190010C0183
:1005B000CA01A0011124FF27591B99F0593F50F49B
:1005C000503E68F11A16F040A22F232F342F4427F3
:1005D000585FF3CF469537952795A795F0405395EB
:1005E000C9F77EF41F16BA0B620B730B840BBAF0BB
:1005F0009150A1F0FF0FBB1F661F771F881FC2F726
:100600000EC0BA0F621F731F841F48F48795779539
:100610006795B795F7959E3F08F0B0CF9395880FF3
:1006200008F09927EE0F9795879508950E9400048A
:1006300008F481E008950E942F030C943B040E946B
:10064000340458F00E942D0440F029F45F3F29F053
:100650000C94240451110C946F040C942A040E94ED
:100660004C0468F39923B1F3552391F3951B550B73
:10067000BB27AA2762177307840738F09F5F5F4F75
:10068000220F331F441FAA1FA9F335D00E2E3AF0B4
:10069000E0E832D091505040E695001CCAF72BD0CC
:1006A000FE2F29D0660F771F881FBB1F261737071D
:1006B0004807AB07B0E809F0BB0B802DBF01FF274F
:1006C00093585F4F3AF09E3F510578F00C94240404
:1006D0000C946F045F3FE4F3983ED4F386957795CE
:1006E0006795B795F7959F5FC9F7880F911D969508
:1006F000879597F90895E1E0660F771F881FBB1F64
:10070000621773078407BA0720F0621B730B840B10
:10071000BA0BEE1F88F7E09508950E949403689441
:10072000B1110C946F0408950E94540488F09F57EF
:1007300098F0B92F9927B751B0F0E1F0660F771F05
:10074000881F991F1AF0BA95C9F714C0B13091F0FB
:100750000E946E04B1E008950C946E04672F782F08
:100760008827B85F39F0B93FCCF3869577956795C0
:10077000B395D9F73EF490958095709561957F4F2C
:100780008F4F9F4F0895E89409C097FB3EF49095D2
:100790008095709561957F4F8F4F9F4F9923A9F05A
:1007A000F92F96E9BB279395F695879577956795E9
:1007B000B795F111F8CFFAF4BB0F11F460FF1BC02D
:1007C0006F5F7F4F8F4F9F4F16C0882311F096E9C0
:1007D00011C0772321F09EE8872F762F05C066236E
:1007E00071F096E8862F70E060E02AF09A95660F27
:1007F000771F881FDAF7880F9695879597F90895E0
:10080000990F0008550FAA0BE0E8FEEF1616170621
:10081000E807F907C0F012161306E407F50798F089
:10082000621B730B840B950B39F40A2661F0232BA2
:10083000242B252B21F408950A2609F4A140A6951E
:100840008FEF811D811D089597F99F6780E870E003
:1008500060E008959FEF80EC089500240A94161636
:10086000170618060906089500240A94121613069E
:10087000140605060895092E0394000C11F488232C
:1008800052F0BB0F40F4BF2B11F460FF04C06F5F48
:100890007F4F8F4F9F4F089557FD9058440F551F1E
:1008A00059F05F3F71F04795880F97FB991F61F0F2
:1008B0009F3F79F087950895121613061406551F69
:1008C000F2CF4695F1DF08C0161617061806991FD5
:1008D000F1CF86957105610508940895E894BB27CA
:1008E00066277727CB0197F908950E9488040C9416
:1008F0003B040E942D0438F00E94340420F095231C
:1009000011F00C9424040C942A0411240C946F0408
:100910000E944C0470F3959FC1F3950F50E0551F52
:10092000629FF001729FBB27F00DB11D639FAA2744
:10093000F00DB11DAA1F649F6627B00DA11D661F93
:10094000829F2227B00DA11D621F739FB00DA11DB4
:10095000621F839FA00D611D221F749F3327A00D6E
:10096000611D231F849F600D211D822F762F6A2F0A
:1009700011249F5750409AF0F1F088234AF0EE0F6F
:10098000FF1FBB1F661F771F881F91505040A9F79C
:100990009E3F510580F00C9424040C946F045F3F3B
:1009A000E4F3983ED4F3869577956795B795F795D8
:1009B000E7959F5FC1F7FE2B880F911D9695879550
:0809C00097F90895F894FFCFA8
:00000001FF
