:100000000C9434000C9451000C9451000C94510049
:100010000C9451000C9451000C9451000C9451001C
:100020000C9451000C9451000C9451000C9451000C
:100030000C9451000C9451000C9451000C945100FC
:100040000C9451000C9451000C9451000C945100EC
:100050000C9451000C9451000C9451000C945100DC
:100060000C9451000C94510011241FBECFEFD8E026
:10007000DEBFCDBF11E0A0E0B1E0E2E9F7E002C0F1
:1000800005900D92A231B107D9F721E0A2E1B1E0CC
:1000900001C01D92A531B207E1F70E9408030C943C
:1000A000C7030C9400009DEC899F912D1124969517
:1000B0009695969526E0929F800D11240895982F8D
:1000C00092959F708F702AE0929F800D1124089561
:1000D000982F8F7094FD865F95FD8C5E96FD885DF0
:1000E00008958EBD0DB407FEFDCF8EB508952A9AF2
:1000F000229A8CB580618CBD8CB580648CBD84B136
:10010000886284B908958CB58F7B8CBD089588234F
:1001100021F08CB58F7D8CBD08958CB580628CBD2F
:1001200008959CB5937F892B8CBD08959CB59C7FC9
:10013000282F2370922B9CBD9DB582FB882780F9C8
:100140009E7F892B8DBD0895229A2A9A229A9CB56A
:1001500090619CBD9CB590649CBD94B1986294B92B
:100160009CB59F7D9CBD9CB5937F94609CBD88236E
:1001700071F02A988EE88EBD0DB407FEFDCF8EB5C6
:1001800080E68EBD0DB407FEFDCF8EB52A9A8FE3B3
:100190009CE90197F1F700C0000080E00895EF921C
:1001A000FF920F931F93CF93DF93CDB7DEB72E97B8
:1001B0000FB6F894DEBF0FBECDBFFA82E9821C8372
:1001C0000B833E832D8318861F8290E09A87898750
:1001D000862F90E09C878B875E874D8710E01330D9
:1001E00009F45DC0412F50E0440F551FE1E0F0E0FD
:1001F000EC0FFD1FE40FF51F0190F081E02D9F0132
:10020000ADECBCEC0E94B8039695879596958795C2
:1002100096958795BC01660F771F9C01220F331FAF
:10022000220F331F220F331F260F371FE21BF30B42
:1002300020E8210F1F5FA1E0B0E0AC0FBD1FA40FAD
:10024000B51F82959295907F9827807F9827E80F19
:10025000F91FED93FC932A982EBD0DB407FEFDCF38
:100260008EB5E1E0F0E0EC0FFD1FE40FF51F80819B
:100270008EBD0DB407FEFDCF8EB52A9A173008F457
:10028000AECF80E02E960FB6F894DEBF0FBECDBF86
:10029000DF91CF911F910F91FF90EF900895E98525
:1002A000FA859F01ADECBCEC0E94B803969587954A
:1002B0009695879596958795AC01440F551F9C019F
:1002C000220F331F220F331F220F331F240F351F1E
:1002D000E21BF30B15E024E848E050E0ACCFEF92CE
:1002E000FF920F931F93FC01E080F12C018110E03D
:1002F000228130E0468150E0658184810E94CF00F8
:100300001F910F91FF90EF900895FC0150E02A9803
:100310005EBD0DB407FEFDCF8EB51EBC0DB407FE4D
:10032000FDCF2EB52A9A622F6F705230C9F054302B
:1003300041F1553089F1563009F447C0511137C0A9
:10034000322F3077369536953695232F220F220F90
:10035000230F260F20835F5F5330C9F654E0D7CFB9
:10036000207330E0329522952F7023273F7023278A
:1003700022303105B1F121303105A9F1260F228358
:10038000EACF2073269526952695822F880F880F11
:10039000280F260F2483DFCF24FB992790F9990F8C
:1003A000292F220F220F290F260F2583D4CF51305A
:1003B00091F6822F8077869586958695282F220F35
:1003C000220F280F260F2183C6CF422F407F46954C
:1003D00046954695242F220F220F240F260F2683A1
:1003E000089524E1CBCF2AE0C9CF209A8AB1806C4E
:1003F0008AB90895E8E0F1E007C028985E9A5E980F
:1004000091E0E030F90751F092919823B1F3289AE6
:100410005E9A5E9891E0E030F907B1F70895809315
:1004200012010895681708F4682F862F08958091A7
:100430001401882389F09091130184E6891B86308A
:10044000A0F485E0EFE1FEE43197F1F700C0000091
:1004500085508630B8F30895FFEF29E688E1F15022
:1004600020408040E1F700C0000008951F93CF9323
:10047000DF93EC018981882309F477C08E3109F478
:1004800074C0109214011091130181E0810F8093C8
:1004900013015F98E9818DECE89F812D11248695E9
:1004A000869586959AE0899FE0191124F0E0E85F2F
:1004B000FE4F808190911201923009F495C0909185
:1004C000140191118DC090E0892B0E94FA0189815D
:1004D000EDEC8E9FE12D1124E695E695E695F0E092
:1004E000E85FFE4F808190911201923009F476C04E
:1004F0009091140191116DC090E0892B0E94FA0136
:10050000EA818DECE89F812D11248695869586954C
:100510009AE0899FE0191124F0E0E85FFE4F8081A6
:1005200090911201913009F452C0909114019111EF
:1005300049C090E0892B0E94FA018A818A3018F51F
:1005400080911201813009F453C0809114018823F5
:1005500021F01370133009F44BC08FE70E94FA01A9
:100560005F9ADF91CF911F9108958881873008F0BD
:1005700088CF80911401882309F485CF81E080938E
:10058000140110E084CFEDEC8E9FE12D1124E6954F
:10059000E695E695F0E0E85FFE4F808190911201CC
:1005A000913021F190911401992319F013701330B7
:1005B000E9F090E0892B0E94FA015F9ADF91CF91D8
:1005C0001F910895912F9370923009F0B2CF90E867
:1005D000B1CF912F9370913009F08ECF90E88DCFED
:1005E000912F937009F06FCF90E86ECF90E8E2CF33
:1005F0008FEF0E94FA015F9ADF91CF911F910895CA
:1006000081E00E94A400209A8AB1806C8AB9089582
:10061000CF93DF93CDB7DEB727970FB6F894DEBF41
:100620000FBECDBF81E00E94A400209A8AB1806CE9
:100630008AB914E6CE0101960E948501CE01019689
:100640000E943602809114018823D1F08091130119
:10065000212F281B263050F485E0EFE1FEE431978E
:10066000F1F700C0000085508630B8F39FEFE9E64F
:10067000F8E19150E040F040E1F700C00000DACF2F
:10068000FFEF29E688E1F15020408040E1F700C00B
:100690000000ECCF1092C50087E68093C400E1EC27
:1006A000F0E0808188618083E2ECF0E08081866008
:1006B000808308959091C00095FFFCCF8093C60081
:1006C00008958091C00087FFFCCF8091C6000895F7
:1006D00002C08091C6008091C00087FDFACF0895C6
:1006E000AC0120E0FA01E20FF11D30819091C000D1
:1006F00095FFFCCF3093C6002F5F90819111F2CF10
:1007000008951092B9008CE08093B80084E0809343
:10071000BC00089584EA8093BC008091BC0087FFF0
:10072000FCCF089584E98093BC0008958093BB00BA
:1007300084E88093BC008091BC0087FFFCCF0895C3
:1007400084EC8093BC008091BC0087FFFCCF80913B
:10075000BB00089584E88093BC008091BC0087FFB3
:10076000FCCF8091BB0008958091B900887F0895E7
:10077000A29FB001B39FC001A39F700D811D1124E2
:10078000911DB29F700D811D1124911D0895F89443
:02079000FFCF99
:100792000102040810204080041F28091341400F61
:0207A200000154
:00000001FF
