:1000000019C033C032C031C030C02FC02EC02DC087
:100010002CC02BC02AC029C028C008C126C025C0BA
:1000200024C023C022C021C020C01FC01EC01DC0CC
:100030001CC01BC011241FBECFEFD4E0DEBFCDBF5C
:1000400011E0A0E0B1E0E6E5F9E002C005900D9214
:10005000AC31B107D9F721E0ACE1B1E001C01D92AC
:10006000A632B207E1F727D274C4CACF882339F089
:10007000823080F08230D9F0833031F10895809160
:1000800022018BB981E088B98FE097E20197F1F7FF
:1000900000C00000662391F3809123018BB982E0B8
:1000A00088B98FE097E20197F1F700C00000623055
:1000B00028F3809124018BB984E088B98FE097E21E
:1000C0000197F1F700C000006330C0F28091250174
:1000D0008BB988E088B98FE097E20197F1F700C00B
:1000E000000008958FEF8BB918B80895CF92DF9272
:1000F000EF92FF920F931F9360911E0170911F0169
:10010000809120019091210120E034E244E759E4FC
:1001100095D387FD43C086EF8093250120E034E22C
:1001200044E759E460911E0170911F018091200104
:100130009091210161D26B017C01B80180E090E0D7
:10014000EFD2A70196017ED3BFD2CB01B801DBD19C
:1001500081113BC0C701B601B7D2CB01B801D3D1E1
:100160009B01FC01E050FF4F8081809324016115C9
:10017000710509F051C08FEF80932301C901B801C7
:10018000C2D161157105A1F1CB01B801BCD1FC014F
:10019000E050FF4F8081809322012DC060911E01AD
:1001A00070911F01809120019091210120E030E0A9
:1001B0004AE754E443D387FD27C087EF80932501A6
:1001C00020E030E04AE754E4ADCFFC01E050FF4FBF
:1001D000808180932401CB01B80195D1FC01E050CE
:1001E000FF4F80818F77809323016115710561F640
:1001F0008FEF8093220163E080E01F910F91FF90C9
:10020000EF90DF90CF9032CF8FEF8093250120E0E9
:1002100030E040E85FE386CFCB01B80174D1FC0148
:10022000E050FF4F808180932301A8CF1F920F924F
:100230000FB60F921124CF92DF92EF92FF922F937D
:100240003F934F935F936F937F938F939F93AF935E
:10025000BF93CF93DF93EF93FF9320E030E0E4E090
:10026000F0E061E070E043ECCF01821B930BDB0117
:1002700002C0AA0FBB1F8A95E2F7CD018095836C5F
:1002800085B90000000083B1982F937C45B9933C59
:1002900009F03EC02F5F3F4F2330310529F7CFEFE4
:1002A00020E030E0A4E0B0E0E1E0F0E043ECCD019C
:1002B000821B930BBF0102C0660F771F8A95E2F77E
:1002C000CB018095836C85B90000000083B1982F25
:1002D000937C45B9933C39F52F5F3F4F233031056F
:1002E00031F7FF91EF91DF91CF91BF91AF919F9146
:1002F0008F917F916F915F914F913F912F91FF90DF
:10030000EF90DF90CF900F900FBE0F901F90189539
:1003100081FF14C080FF82C086FFC4C097FDC8C0A3
:1003200089E090E00DC081FF12C080FF74C086FF9D
:10033000B6C097FDBAC089E090E00BC080E090E0C5
:10034000205F3E4FF901E80FF91FC081A9CF80E07F
:1003500090E0205F3E4FF901E80FF91F80818F3F49
:1003600009F4BFCF8FEF8BB918B8CA32A1F1C334EB
:10037000C9F180911C01813009F43FC080911C01BA
:1003800081111FC080911D01813009F466C038F0D1
:10039000823009F446C0833079F410921D016C2F2D
:1003A00070E080E090E0BCD160931E0170931F016B
:1003B000809320019093210180911D018F5F809394
:1003C0001D017FEF81EE94E0715080409040E1F795
:1003D00000C0000086CF90911C0181E0911180E067
:1003E00080931C0110921E0110921F011092200197
:1003F0001092210110921D01E4CF6C2F70E080E07B
:1004000090E08ED160931E0170931F0180932001B4
:1004100090932101D6CF83E090E09BCF83E090E0E2
:100420008FCFCC2349F2D1E060911E0170911F0162
:10043000809120019091210120E030E040E251E4E0
:1004400001D260931E0170931F018093200190934D
:100450002101DF5FCD1740F7AFCF60911E01709192
:100460001F01809120019091210120E030E040E2C5
:1004700051E4E8D16B017C016C2F70E080E090E0EA
:100480004FD19B01AC01C701B60152D060931E0150
:1004900070931F0180932001909321018DCF86E0FE
:1004A00090E057CF86E090E04BCF8DEF92E051CFB8
:1004B0008DEF92E045CF80E880936100109261005B
:1004C0008FE087B98FEF88B98AB98CE184B985B795
:1004D0008F7E85BF83EC85B91092800082E0809387
:1004E000810081E080936F00789460911E0170918B
:1004F0001F0180912001909121010AE010E022E08B
:1005000040E0F4DDF2CFAA1BBB1B51E107C0AA1FDC
:10051000BB1FA617B70710F0A61BB70B881F991FA4
:100520005A95A9F780959095BC01CD010895505832
:10053000BB27AA270ED048C139D130F03ED120F0D8
:1005400031F49F3F11F41EF42EC10EF4E095E7FB49
:1005500024C1E92F4AD180F3BA17620773078407D1
:10056000950718F071F49EF562C10EF4E0950B2E1C
:10057000BA2FA02D0B01B90190010C01CA01A001F5
:100580001124FF27591B99F0593F50F4503E68F150
:100590001A16F040A22F232F342F4427585FF3CF91
:1005A000469537952795A795F0405395C9F77EF462
:1005B0001F16BA0B620B730B840BBAF09150A1F0AB
:1005C000FF0FBB1F661F771F881FC2F70EC0BA0F31
:1005D000621F731F841F48F4879577956795B795B9
:1005E000F7959E3F08F0B3CF9395880F08F09927B1
:1005F000EE0F9795879508950CD0E6C0DED040F0B9
:10060000D5D030F021F45F3F19F0C7C0511110C1AF
:10061000CAC0EBD098F39923C9F35523B1F3951BC6
:10062000550BBB27AA2762177307840738F09F5F13
:100630005F4F220F331F441FAA1FA9F333D00E2E82
:100640003AF0E0E830D091505040E695001CCAF7EF
:1006500029D0FE2F27D0660F771F881FBB1F2617B4
:1006600037074807AB07B0E809F0BB0B802DBF0187
:10067000FF2793585F4F2AF09E3F510568F08DC0C9
:10068000D7C05F3FECF3983EDCF38695779567958E
:10069000B795F7959F5FC9F7880F911D9695879538
:1006A00097F90895E1E0660F771F881FBB1F621757
:1006B00073078407BA0720F0621B730B840BBA0B15
:1006C000EE1F88F7E095089598D088F09F5790F036
:1006D000B92F9927B751A0F0D1F0660F771F881F67
:1006E000991F1AF0BA95C9F712C0B13081F09FD0A6
:1006F000B1E008959CC0672F782F8827B85F39F044
:10070000B93FCCF3869577956795B395D9F73EF4C5
:1007100090958095709561957F4F8F4F9F4F08956D
:10072000E89409C097FB3EF490958095709561958B
:100730007F4F8F4F9F4F9923A9F0F92F96E9BB2741
:100740009395F695879577956795B795F111F8CFBD
:10075000FAF4BB0F11F460FF1BC06F5F7F4F8F4F28
:100760009F4F16C0882311F096E911C0772321F01E
:100770009EE8872F762F05C0662371F096E8862FB6
:1007800070E060E02AF09A95660F771F881FDAF70D
:10079000880F9695879597F9089597F99F6780E850
:1007A00070E060E008959FEF80EC089500240A94C3
:1007B0001616170618060906089500240A9412163C
:1007C0001306140605060895092E0394000C11F46F
:1007D000882352F0BB0F40F4BF2B11F460FF04C01C
:1007E0006F5F7F4F8F4F9F4F089557FD9058440F75
:1007F000551F59F05F3F71F04795880F97FB991F80
:1008000061F09F3F79F0879508951216130614063C
:10081000551FF2CF4695F1DF08C0161617061806C9
:10082000991FF1CF86957105610508940895E894A4
:10083000BB2766277727CB0197F9089566D008F480
:100840008FEF08950BD0C0CFB1DF28F0B6DF18F0DE
:10085000952309F0A2CFA7CF1124EACFC6DFA0F3DA
:10086000959FD1F3950F50E0551F629FF001729F45
:10087000BB27F00DB11D639FAA27F00DB11DAA1F64
:10088000649F6627B00DA11D661F829F2227B00DB1
:10089000A11D621F739FB00DA11D621F839FA00D3C
:1008A000611D221F749F3327A00D611D231F849F8C
:1008B000600D211D822F762F6A2F11249F575040E3
:1008C0008AF0E1F088234AF0EE0FFF1FBB1F661F7E
:1008D000771F881F91505040A9F79E3F510570F037
:1008E0005CCFA6CF5F3FECF3983EDCF3869577951F
:1008F0006795B795F795E7959F5FC1F7FE2B880F32
:10090000911D9695879597F90895990F0008550FB1
:10091000AA0BE0E8FEEF16161706E807F907C0F085
:1009200012161306E407F50798F0621B730B840B8D
:10093000950B39F40A2661F0232B242B252B21F467
:1009400008950A2609F4A140A6958FEF811D811D07
:060950000895F894FFCFAA
:10095600C0F9A4B0999282F880908883C6A1868E49
:0C09660007080904050601020343002AEB
:00000001FF
